:100000000C9464000C948C000C948C000C94B40F31
:100010000C94B40F0C94B40F0C948C000C94B60E8A
:100020000C948C000C948C000C948C000C944B1150
:100030000C948C000C948C000C948C000C948C0010
:100040000C946A0F0C948C000C94380F0C94120FC3
:100050000C948C000C948C000C948C000C948C00F0
:100060000C942C100C948C0000000000240027003D
:100070002A0000000008000201000003040700003D
:1000800000000000000002000000002300260029FC
:100090000000000000250028002B000404040404D4
:1000A0000404040202020202020303030303030125
:1000B00002040810204080010204081020010204FC
:1000C000081020004C12021E11241FBECFEFD8E0F2
:1000D000DEBFCDBF11E0A0E0B1E0ECE5F6E402C088
:1000E00005900D92A23CB107D9F724E0A2ECB1E053
:1000F00001C01D92A039B207E1F710E0C3E6D0E0DD
:1001000004C02197FE010E941B21C236D107C9F706
:100110000E9413130C9421230C9400000895089559
:10012000E0915D04F0915E048E179F0798F5309181
:100130006304332361F0639FB0011124672F349F60
:10014000A0011124452F329F90011124232F3091BB
:100150006904E0916404F0916504509166043513DC
:100160001AC0DC01AA0FBB1F8A0F9B1F8E0F9F1F97
:10017000E0916604E80FF92FF11D6083E0916704B8
:10018000E80FF92FF11D408330916804830F911D12
:10019000FC0120830895880F991F880F991F8E0FE7
:1001A0009F1FFC01E30FF11D1082E2CFFC012481AF
:1001B00035816217730748F480819181009729F097
:1001C000860F971FFC018081089580E00895AF920B
:1001D000BF92CF92DF92EF92FF920F931F93CF9334
:1001E000DF936C017B018B01040F151FEB015E0196
:1001F000AE18BF08C017D10759F06991D601ED912B
:10020000FC910190F081E02DC6010995892B79F7C9
:10021000C501DF91CF911F910F91FF90EF90DF907B
:10022000CF90BF90AF900895FC01538D448D252F42
:1002300030E0842F90E0821B930B541710F0CF9680
:10024000089501970895FC01918D828D981761F0B2
:10025000A28DAE0FBF2FB11D5D968C91928D9F5FC9
:100260009F73928F90E008958FEF9FEF0895FC01A8
:10027000918D828D981731F0828DE80FF11D858D5B
:1002800090E008958FEF9FEF0895FC01918D228DEE
:10029000892F90E0805C9F4F821B91098F73992773
:1002A000089584E593E00E94450121E0892B09F43B
:1002B00020E0822F089580E090E0892B29F00E94B1
:1002C000510181110C9400000895FC01A48DA80F28
:1002D000B92FB11DA35ABF4F2C91848D90E0019688
:1002E0008F739927848FA689B7892C93A089B189A8
:1002F0008C91837080648C93938D848D981306C049
:100300000288F389E02D80818F7D80830895EF92AC
:10031000FF920F931F93CF93DF93EC0181E0888FBF
:100320009B8D8C8D98131AC0E889F989808185FF8F
:1003300015C09FB7F894EE89FF896083E889F98931
:1003400080818370806480839FBF81E090E0DF9133
:10035000CF911F910F91FF90EF900895F62E0B8D86
:1003600010E00F5F1F4F0F731127E02E8C8D8E1141
:100370000CC00FB607FCFACFE889F989808185FFA8
:10038000F5CFCE010E946501F1CFEB8DEC0FFD2F73
:10039000F11DE35AFF4FF0829FB7F8940B8FEA8963
:1003A000FB8980818062CFCFCF93DF93EC01888D72
:1003B0008823B9F0AA89BB89E889F9898C9185FDE0
:1003C00003C0808186FD0DC00FB607FCF7CF8C916E
:1003D00085FFF2CF808185FFEDCFCE010E946501C0
:1003E000E9CFDF91CF910895833081F028F48130F7
:1003F00099F08230A9F008958730A9F08830C9F0CB
:100400008430B1F4809180008F7D03C080918000A2
:100410008F7780938000089584B58F7784BD089589
:1004200084B58F7DFBCF8091B0008F778093B00033
:1004300008958091B0008F7DF9CFCF93DF93282F5F
:1004400030E0F901EE58FF4F8491F901E155FF4F7B
:10045000D491F901E556FF4FC491CC23A1F081114D
:100460000E94F401EC2FF0E0EE0FFF1FE957FF4F61
:10047000A591B491EC91ED2381E090E009F480E046
:10048000DF91CF91089580E090E0FACF1F93CF9352
:10049000DF93282F30E0F901EE58FF4F8491F901E6
:1004A000E155FF4FD491F901E556FF4FC491CC239C
:1004B000A9F0162F81110E94F401EC2FF0E0EE0F4D
:1004C000FF1FEF56FF4FA591B4918FB7F894EC91B1
:1004D000111108C0D095DE23DC938FBFDF91CF913F
:1004E0001F910895DE2BF8CF9091000189130BC066
:1004F000E6E8F0E0E4919FEF90930001E13049F0ED
:1005000028F0E23061F060E00C94460210926E0038
:10051000FACF90916F009D7F90936F00F4CF9091F0
:1005200070009D7F9093700091E09093B000909147
:10053000B100987F94609093B1001092B300E3CF24
:10054000CF93DF9390E0FC01E155FF4F2491855656
:100550009F4FFC0184918823C9F090E0880F991F78
:10056000FC01E859FF4FA591B491FC01EF56FF4FF4
:10057000C591D49161110DC09FB7F8948C912095CD
:1005800082238C938881282328839FBFDF91CF917A
:100590000895623051F49FB7F8943C91822F809572
:1005A00083238C93E8812E2BEFCF8FB7F894EC91B7
:1005B0002E2B2C938FBFEACF0F931F93CF93DF93F4
:1005C000EC01162F042F1B821A8288EE93E0A0E024
:1005D000B0E08C839D83AE83BF8385E391E09983F4
:1005E00088831F8A1E8A198E188E1B8E1A8E1D8E66
:1005F0001C8E6E8D6E7F6D7F6E8F6695617081E053
:100600006827842F0E94460261E0802F0E94A0028A
:10061000802F90E0FC01E155FF4FE491E88BFC0155
:10062000E556FF4FE491F0E0EE0FFF1FEF56FF4F4E
:10063000859194919A8B898B60E0812F0E94A00212
:100640008E8D81FD04C061E0812F0E9446021C87CF
:10065000812F90E0FC01E155FF4FE491ED87FC0113
:10066000E556FF4FE491F0E0EE0FFF1FE957FF4F13
:10067000859194919F878E87DF91CF911F910F91E4
:100680000895809161049091620497FD08C061E033
:100690000E94A00260E0809161040E94460281E015
:1006A00080935C0408951F93CF93DF93182FEB0181
:1006B00061E00E94A002209739F460E0812FDF9171
:1006C000CF911F910C944602CF3FD10511F461E008
:1006D000F5CFE12FF0E0EE58FF4FE491E33031F138
:1006E00040F4E130B1F0E230E1F0C038D1057CF700
:1006F000E4CFE73029F1E83059F1E430B1F78091E7
:100700008000806280938000D0938B00C0938A0029
:1007100004C084B5806884BDC7BDDF91CF911F91AF
:10072000089584B5806284BDC8BDF7CF80918000F4
:10073000806880938000D0938900C0938800EDCFBB
:100740008091B00080688093B000C093B300E5CF83
:100750008091B00080628093B000C093B400DDCF80
:100760003FB7F8948091BE029091BF02A091C00261
:10077000B091C10226B5A89B05C02F3F19F0019684
:10078000A11DB11D3FBFBA2FA92F982F8827BC01EB
:10079000CD01620F711D811D911D42E0660F771F13
:1007A000881F991F4A95D1F70895CF92DF92EF9253
:1007B000FF920F931F93CF93DF93CDB7DEB72997A7
:1007C0000FB6F894DEBF0FBECDBF80916404909148
:1007D0006504892B09F480C0C0906A04D0906B0432
:1007E000E0906C04F0906D040E94B0036C157D05E0
:1007F0008E059F0550F40E94B00360936A047093C5
:100800006B0480936C0490936D040E94B00300917C
:100810006A0410916B0420916C0430916D04601B8C
:10082000710B820B930B6C32714081059105A0F224
:10083000F89480915F04909160049A838983E09199
:100840006404F0916504DF0111968081898790919D
:100850005B04E0916E04F0916F0480917004992321
:1008600009F449C09081982B9887908180958923BD
:100870008F838F818C8388E08B8358856F81498536
:100880003B812C8189819A81508347FD252F3A95A0
:100890002083262F39F0441F00C000006083000031
:1008A00000C0F2CF38E04D9160830000019761F7FE
:1008B000F0936F04E0936E0449873B832C839A8303
:1008C000898378940E94B00360936A0470936B04E8
:1008D00080936C0490936D0429960FB6F894DEBF54
:1008E0000FBECDBFDF91CF911F910F91FF90EF9081
:1008F000DF90CF9008959081982B98879081809574
:1009000089238F838F818E8388E08D8358856F81C3
:1009100049853D812E8189819A81508347FD252F0C
:1009200000C000C0208300C000C000C000C000C0E4
:1009300060830000262F3A9541F0441F000000C05C
:1009400000C000C000C000C0E8CF38E04D9100C03A
:10095000608300C0019709F7F0936F04E0936E0481
:1009600049873D832E83ABCF8F929F92AF92BF92E8
:10097000CF92DF92EF92FF926B017C010E94B00355
:100980004B015C01C114D104E104F104B9F00E94EF
:10099000B003681979098A099B09683E734081058B
:1009A000910580F321E0C21AD108E108F10888EE30
:1009B000880E83E0981EA11CB11CE4CFFF90EF903D
:1009C000DF90CF90BF90AF909F908F9008952FB7FA
:1009D000F8946091BA027091BB028091BC02909130
:1009E000BD022FBF08950F931F93CF93DF93EC01A8
:1009F00088819981DC01ED91FC910084F185E02DE5
:100A00000995892B09F4B3C060E070E0CB010E9426
:100A1000B4042E8D88819981DC01ED91FC910284D2
:100A2000F385E02D211108C009958A878E3701F7DB
:100A30008E8D8F5F8E8FDCCF09959E8DFE01E90F25
:100A4000F11D8287923099F09930B1F0913089F49C
:100A50008F3F79F01E8E81E088A31BA21AA28CA37F
:100A60001DA280E0DF91CF911F910F9108958630F4
:100A700089F79F5F9E8FBCCF8F3E61F7FE013B964B
:100A80009E012F5E3F4F90E080E04191840F911DC9
:100A90002E173F07D1F7298930E0322F22274A89C4
:100AA000240F311D9195819591092817390791F6E9
:100AB0001E8EED85E13411F41DA22FC0E9A38F85B0
:100AC000282F30E0322F22278889820F932F911D03
:100AD0009BA38AA3EA53E63108F043C0F0E0ED5847
:100AE000FA4F0C941B219D05A505AF058905AF059F
:100AF0008F05AD05B105AF05AF05AF05AF05AF0576
:100B0000AF05AF05AF05B105AF05AF05AF05AF0543
:100B1000AF0585E088A381E08CA38CA1A3CF80FFE3
:100B200002C089E0F7CF81FF02C084E0F3CF837079
:100B30009927892B91F38AE0EDCF80FF02C087E0EF
:100B4000E9CF81FFEACF82E0E5CF80FF02C088E0F5
:100B5000E1CF81FFE2CF83E0DDCF86E0DBCF8BE02A
:100B6000D9CF81E088A31BA21AA28CA3A5CF8DA107
:100B7000882399F20E94E7040A811B812C813D8120
:100B8000601B710B820B930B0E811F8128853985A9
:100B9000601771078207930708F4BFCF1E8E18A253
:100BA0001BA21AA281E05BCF0F931F93CF93DF9319
:100BB000EC016F8B598F4A8F8C010C5E1F4FFC012B
:100BC00075969C01255E3F4F90E080E04191840F37
:100BD000911D2E173F07D1F79195819591099B8F14
:100BE0008C8F888D882361F08DA1882349F060E087
:100BF00070E0CB010E94B404CE010E94F304F4CF54
:100C000088819981DC01ED91FC910280F381E02DD6
:100C10004AE050E0B80109950E94E7046A837B83AB
:100C20008C839D83888D91E0811101C090E09DA30C
:100C300081110AC06AE070E080E090E0DF91CF911E
:100C40001F910F910C94B404DF91CF911F910F91DC
:100C50000895CF92DF92EF92FF92CF93DF93EC0152
:100C60007983688381E0888F50E040E06CE0CE01BA
:100C70000E94D4050E94E7046B017C01CE010E9412
:100C8000F304811111C00E94E7046C197D098E09DB
:100C90009F09613D77408105910530F460E070E087
:100CA000CB010E94B404EACF68EC70E080E090E0F1
:100CB0000E94B4041CA298A181E0943019F09930EC
:100CC00009F080E0DF91CF91FF90EF90DF90CF901F
:100CD000089520914A0330914B032817390771F486
:100CE0009091480380914903981741F0E09148039F
:100CF000F0E0E758FD4F808190E008958FEF9FEF7F
:100D000008950895EF92FF920F931F93CF93DF936F
:100D1000DC015C96ED90FC905D97E114F10479F4B0
:100D200081E090E013969C938E93129790E080E080
:100D3000DF91CF911F910F91FF90EF900895519601
:100D4000ED91FC91529750968C915097982F9095D9
:100D50000FB75E962C915E97122F127021FD609551
:100D6000F8942081112319F1282B2083E701219782
:100D7000F1F728E0462F50E0308160FF1AC0382B91
:100D80003083E7012197F1F7BA01759567952150F6
:100D900089F7112381F08081892380830FBF5C96BE
:100DA0008D919C910197F1F781E090E0C1CF2923CB
:100DB000DCCF3923E5CF9081892BEFCF20914A03F7
:100DC00030914B032817390771F480914903209122
:100DD000480390E0805C9F4F821B910960E470E0C3
:100DE0000E940721089590E080E0089520914A0331
:100DF00030914B0328173907B9F49091480380913B
:100E00004903981789F0E0914803F0E0E758FD4F57
:100E100080812091480330E02F5F3F4F2F733327AD
:100E20002093480390E008958FEF9FEF0895E0919D
:100E30004A03F0914B03E817F90769F4A389B489D1
:100E40009C918589809589238C9310924B031092F5
:100E50004A0381E0089580E00895CF93DF93EC0189
:100E60001B8E1A8E198E188E1F8A1E8A8DE991E0AC
:100E70009D8F8C8F8C858631E0F52DEB30E03F8B9C
:100E80002E8B2BE931E0398F288F2CE231E03B8F1C
:100E90002A8F90916800883008F44EC021E08E308F
:100EA00008F420E081E001C0880F2A95EAF7892B39
:100EB000809368009C852DE630E0983050F02BE65A
:100EC00030E09E3030F02CE630E0963110F030E02B
:100ED00020E03C8B2B8B292F30E0983078F581E097
:100EE00001C0880F9A95EAF78D8B8C8D9D8D0197A7
:100EF000F1F78A8D9B8D892BE1F080914A039091C7
:100F00004B03C817D907A9F0009711F00E941707E3
:100F10008E8D8E7F8E8F1092490310924803D0934E
:100F20004B03C0934A03EB89FC8980819D89892BFF
:100F30008083DF91CF91089584E0B9CF9E3040F453
:100F40002850310981E001C0880F2A95EAF7CCCFFB
:100F50002E503109F7CF20912F02260F3327331F50
:100F600021323105ECF420915302FC0190E080E045
:100F7000243069F082E00895A0912F022191AC0104
:100F8000415F5D4FA40FB52FB11D2C9301968617BD
:100F900098F380912F02680F60932F0280E00895EC
:100FA00081E008951092530281E0809355021092DF
:100FB000540261E082E10E94460261E083E10E9406
:100FC0004602E9EBF0E080818E7F808380818D7F17
:100FD000808388E48093B80085E48093BC00089502
:100FE000CF93DF9391E090930E028823B9F0C091E4
:100FF000B800D091BA008091BC008A7B8093BC007D
:1010000060E082E10E94460260E083E10E944602C5
:101010000E94D207D093BA00C093B800DF91CF915D
:101020000895E091530380915203E81730F4F0E003
:10103000E751FE4F808190E008958FEF9FEF089574
:1010400090915303809152032FEF3FEF981748F48C
:10105000E92FF0E0E751FE4F208130E09F5F909351
:101060005303C90108958091520390915303891B42
:10107000990B0895CF92DF92EF92FF920F931F93F7
:10108000CF93DF937C01CB018A012091E8012223D9
:1010900089F0EB016B01C40ED51ECC15DD0569F09E
:1010A0006991D701ED91FC910190F081E02DC7018C
:1010B0000995F3CF642F0E94AB07C801DF91CF9150
:1010C0001F910F91FF90EF90DF90CF900895CF93F5
:1010D000DF931F92CDB7DEB769832091E801222309
:1010E000F9F020915003203258F021E030E0FC016B
:1010F0003383228390E080E00F90DF91CF910895B9
:1011000080915103E82FF0E0E853FE4F99819083DE
:101110008F5F809351038093500381E090E0ECCF88
:1011200061E0CE0101960E94AB07F7CFCF92DF922C
:10113000EF92FF920F931F93CF93DF93FC01C48133
:1011400021E02093E801C093C7011092510310924F
:1011500050038385682B81EF93E00E946708D0914C
:101160005003D13208F092C00E94B0036B017C01A1
:1011700080915302811165C082E08093530281E027
:10118000809355028FEF8093520210927702D09392
:101190007602A8ECB1E0E6E5F2E080E0D81385C085
:1011A0001092780280917802CC0FC82BC0937802FD
:1011B00080915402813009F07CC0109254020E9448
:1011C000B0036B017C01809178028093BB00809119
:1011D0000A0290910B02A0910C02B0910D02892B92
:1011E0008A2B8B2B99F00E94B00300910A02109178
:1011F0000B0220910C0230910D026C197D098E09B1
:101200009F090617170728073907E0F18091BC00EE
:1012100083FDD9CF85EC8093BC000E94B0036B01A5
:101220007C0180915302823009F445C080915202C2
:101230008F3F61F180915202803241F180915202E0
:1012400025C080910A0290910B02A0910C02B091EE
:101250000D02892B8A2B8B2B09F48ACF0E94B003B5
:1012600000910A0210910B0220910C0230910D02A4
:101270006C197D098E099F0906171707280739077A
:1012800008F076CF809109020E94F0071092510376
:10129000109250031092E801DF91CF911F910F91AE
:1012A000FF90EF90DF90CF9008959D9191938F5F85
:1012B00075CF85EEB0CF80910A0290910B02A0917C
:1012C0000C02B0910D02892B8A2B8B2B09F4A9CF2C
:1012D0000E94B00300910A0210910B0220910C02AF
:1012E00030910D026C197D098E099F0906171707A9
:1012F0002807390708F095CFC5CF089590E080E022
:101300000895FC01EE0FFF1FE45DFC4F2081318149
:10131000232B39F421E030E03183208361E00C9409
:10132000A0020895682F84E593E00C9487010F9341
:101330001F93CF93DF938B01D82FC92F82E00E9498
:101340009209C801AD2FBC2F8093C2019093C301B5
:10135000A093C401B093C5010E949209812F0E94FD
:1013600092098D2F0E9492098C2FDF91CF911F91AE
:101370000F910C94920942E050E063E771E084E53C
:1013800093E00C94E7008FEF0E94920985E50E949C
:1013900092090C94BB098FEF0E94920985E50C9489
:1013A00092098F929F92AF92BF92CF92DF92EF926B
:1013B000FF920F931F93CF93DF93C091EB02809125
:1013C0004E04882309F0F8941092490410924A04BC
:1013D00010924B0410924C0410924D0461E08C2F3B
:1013E0000E94A00260E08C2F0E94460262E170E041
:1013F00080E090E00E94B40460E08C2F0E94A00284
:101400008BE990E00197F1F700E911E08C2F0E9441
:101410001D02892B09F062C001501109B9F78EEF46
:101420009FEF20914E04222309F07894892B09F430
:101430009EC080E090ECA9E7B4EC809341049093C7
:101440004204A0934304B0934404809345049093D2
:101450004604A0934704B0934804809045049090BC
:101460004604A0904704B0904804C0904104D09036
:101470004204E0904304F090440462E370E080E0B2
:1014800090E00E94B40480912903882359F00E94BF
:10149000CB09C501B4010E94970983E10E9492091A
:1014A0000E94BB0980912A03882309F4AFC00E94DF
:1014B000CB09C701B6010E94970982E10E949209F7
:1014C000DF91CF911F910F91FF90EF90DF90CF9020
:1014D000BF90AF909F908F900C94BB0900E911E0F2
:1014E0008C2F0E941D02019721F401501109C1F7B0
:1014F00096CF18E2D0E800E090E9E92EFF24F394BB
:101500008C2F0E941D02892B29F481E0E81AF10832
:10151000B9F785CF0E94B0036B017C0180E9A82E4A
:10152000BB24B3948C2F0E941D02019729F481E003
:10153000A81AB108B9F773CF0E94B0036C197D09DE
:101540008E099F09693271058105910538F0E02FF8
:10155000F0E0EF5BFB4F80858D2B8087D69511F4F3
:101560000F5FD0E8115041F690E080E05ACF6091D3
:101570004A0470E090E080E00E94231E2DEC3CECD9
:101580004CEC5DE30E94821E6B017C01609149047A
:1015900070E090E080E00E94231E9B01AC01C70137
:1015A000B6010E94D31F609341047093420480935C
:1015B000430490934404C0914B0460914C0470E048
:1015C00090E080E00E94231E2DEC3CEC4CEC5DE3AF
:1015D0000E94821E6B017C016C2F6F7770E090E09F
:1015E00080E00E94231E9B01AC01C701B6010E944E
:1015F000D31FC7FD09C060934504709346048093D0
:1016000047049093480429CF9058F5CFDF91CF91AC
:101610001F910F91FF90EF90DF90CF90BF90AF9010
:101620009F908F900895CF93DF93EC0184EF91E02A
:10163000A0E0B0E08E839F83A887B9878AE0E3E1CA
:10164000F1E0DE01549601900D928A95E1F71E8E2D
:1016500082E08F8F1CA21DA2DF91CF9108954F923F
:101660005F926F927F928F929F92AF92BF92CF9232
:10167000DF92EF92FF920F931F93CF93DF9300D0EF
:10168000CDB7DEB78C0149832A83660F771FF80137
:10169000EA5AFF4FE080F180EE0CFF1CF801CF0109
:1016A000801B910B8E159F0514F41192F8CF898140
:1016B000F801E60FF71F81838A818083680184E542
:1016C000C80ED11C60E0F60180810E9446025801DC
:1016D000F2E5AF0EB11C480180E5880E911C1E1486
:1016E0001F040CF5E1E0EE1AF108F801EE0DFF1D04
:1016F0006080F5015080F401408088E0782E662DEE
:10170000661F6627661F842D0E944602660C61E0F4
:10171000852D0E94460260E0852D0E9446027A9443
:101720007110EDCFDCCF61E0F60180810F900F905A
:10173000DF91CF911F910F91FF90EF90DF90CF90AD
:10174000BF90AF909F908F907F906F905F904F90E1
:101750000C944602242FFC01EA5AFF4F408151812C
:101760001416150654F4FC01E60FF71F208B41E018
:10177000460F70E060E00C942F0B0895CF93DF9339
:10178000EC01FC01EA5AFF4F80819181181619067D
:101790000CF5E0E8F0E002C0F595E7954A95E2F730
:1017A000DE01A60FB71F50969C915097222379F027
:1017B000E92B5096EC93509741E0460F50962C91B0
:1017C00070E060E0CE01DF91CF910C942F0BE0959B
:1017D000E923EFCFDF91CF910895CF92DF92EF927F
:1017E000FF921F93CF93DF937C016B01EB0183E0AA
:1017F000CC0FDD1F8A95E1F76096CE0DDF1D11E05D
:10180000199220E0412FB601C7010E942F0B1F5FE4
:101810001930B1F7DF91CF911F91FF90EF90DF90DA
:10182000CF9008958F929F92AF92BF92CF92DF9206
:10183000EF92FF920F931F93CF93DF938C01D62EDD
:10184000C72EEC01C05BDF4F688379834C0182E5D2
:10185000880E911CF401518340835801F4E5AF0ECA
:10186000B11CF501318320837801F6E5EF0EF11C00
:1018700081E090E0F7019183808361E08D2D0E94EB
:10188000A00261E0F40180810E94A00261E0F50104
:1018900080810E94A00261E0F50180810E944602E1
:1018A000D882C982F80170961192EC17FD07E1F712
:1018B000D0E0C0E0F70180819181C817D90784F595
:1018C00020E04FE0BE01C8010E942F0BF70180818C
:1018D0009181C817D90734F427E04BE0BE01C80155
:1018E0000E942F0B20E049E0BE01C8010E942F0B8F
:1018F000F70180819181C817D90724F4BE01C8017E
:101900000E94ED0BF70180819181C817D90734F44B
:1019100020E04CE0BE01C8010E942F0B2196CACFE7
:10192000DF91CF911F910F91FF90EF90DF90CF90BB
:10193000BF90AF909F908F9008950F931F93CF9378
:101940008C01C62F0E9496086C2F6460C8010E940B
:1019500096086C2F6B7FC8010E94960883EC90E07C
:101960000197F1F7CF911F910F9108950F931F9356
:10197000CF93DF938C01D62FC42F607F642B0E94FE
:101980009D0C80E1D89FB00111246C2BC801DF9120
:10199000CF911F910F910C949D0C40E061E08FE47A
:1019A00094E00E94B60C8BE39FE10197F1F7089554
:1019B000CF93DF931092530310925203109251036E
:1019C000109250030E94D2078EE890E090934F034C
:1019D00080934E038FE890E090934D0380934C03E7
:1019E0001092540480915904823018F098E090933A
:1019F00054048093570462E370E080E090E00E941A
:101A0000B40460915A048FE494E00E94960868EE52
:101A100073E080E090E00E94B40460E38FE494E01F
:101A20000E949D0CCBE4D6E4CE010197F1F760E370
:101A30008FE494E00E949D0C2197F1F760E38FE41E
:101A400094E00E949D0C83E592E00197F1F760E23B
:101A50008FE494E00E949D0C60915404606240E029
:101A60008FE494E00E94B60C84E08093550440E03B
:101A70006CE08FE494E00E94B60C0E94CD0C82E0F2
:101A80008093560440E066E08FE494E00E94B60C38
:101A900040E062E08FE494E00E94B60C8BE39FE1AB
:101AA0000197F1F7DF91CF9108950E94D80C88E05B
:101AB00080935A0460E08FE494E00E9496080C94AE
:101AC000CD0C41E00E94B60C81E090E00895CF92E9
:101AD000DF92EF92FF920F931F93CF93DF93EC016E
:101AE0006B018A01198218861F86188A198A1A8A38
:101AF00081E08E878B871C8692E09D8788837B019F
:101B0000EE0CFF1CE60EF71EFD82EC82C7010E9460
:101B100028219A878987009779F1A70170E060E012
:101B20000E941323DB82CA821F830E83898188234C
:101B300041F061E0802F0E94A00260E0802F0E94AF
:101B40004602F801E556FF4FE491F0E0EE0FFF1F6B
:101B5000EF56FF4F859194919C8B8B8BF801E1554B
:101B6000FF4FE491ED8BDF91CF911F910F91FF908B
:101B7000EF90DF90CF9008951D821C821B821A8205
:101B8000D3CFFC0180819181009711F00C94C42186
:101B900008950F931F93CF93DF93EC018881998170
:101BA000009759F02A813B812617370730F081E0F2
:101BB000DF91CF911F910F9108958B016F5F7F4F40
:101BC0000E944D22009759F0998388831B830A83D2
:101BD0002C813D81232B59F7FC011082E8CF80E056
:101BE000E7CFEF92FF920F931F93CF93DF93EC0118
:101BF0007B018A01BA010E94C90D288139818111B6
:101C000014C02115310519F0C9010E94C42119829F
:101C100018821D821C821B821A82CE01DF91CF9115
:101C20001F910F91FF90EF9008951D830C83B701D2
:101C3000C9010E941A23F1CFFB0101900020E9F7AE
:101C40003197AF01461B570B0C94F10DAF92BF9229
:101C5000CF92DF92EF92FF920F931F93CF93DF9378
:101C600000D0CDB7DEB78C016B017A01FC01118287
:101C70001082138212821582148250E040E065E7E0
:101C800071E00E94F10DC70183519D4F5C01CE0CA4
:101C9000DF1CC5018D5E92408C159D050CF5F5018C
:101CA00081915F0189831A82F801E480F580FFEF5A
:101CB000EF1AFF0AB701C8010E94C90D882349F332
:101CC000F8012081318184819581BE016F5F7F4F52
:101CD000820F931F0E941A23F801F582E482D9CF64
:101CE000C8010F900F90DF91CF911F910F91FF903E
:101CF000EF90DF90CF90BF90AF90089585ED8093E7
:101D0000BC0080910A0290910B02A0910C02B0914C
:101D10000D020796A11DB11D23E0B695A7959795D5
:101D200087952A95D1F72091BC0024FD03C010921D
:101D30005302089540910A0250910B0260910C02E7
:101D400070910D02452B462B472B69F30097A10597
:101D5000B10541F025E32A95F1F700000197A109AB
:101D6000B109E1CF809109020C94F0071F920F9204
:101D70000FB60F9211242F933F934F935F936F935E
:101D80007F938F939F93AF93BF93EF93FF93809134
:101D9000C9029091CA02A091CB02B091CC02892BCA
:101DA0008A2B8B2BD1F19091C402E091C502F09166
:101DB000C6028081892780838091C9029091CA02DE
:101DC000A091CB02B091CC02181619061A061B0678
:101DD0009CF48091C9029091CA02A091CB02B0916B
:101DE000CC020197A109B1098093C9029093CA025C
:101DF000A093CB02B093CC02FF91EF91BF91AF9132
:101E00009F918F917F916F915F914F913F912F9112
:101E10000F900FBE0F901F901895809100010E94A7
:101E20007402EACF1F920F920FB60F9211242F93D4
:101E30003F934F935F936F937F938F939F93AF9352
:101E4000BF93EF93FF9384E593E00E946501FF91B8
:101E5000EF91BF91AF919F918F917F916F915F9122
:101E60004F913F912F910F900FBE0F901F9018959B
:101E70001F920F920FB60F9211242F938F939F935F
:101E8000EF93FF93E0916403F09165038081E0910B
:101E90006A03F0916B0382FD1BC0908180916D03FA
:101EA0008F5F8F7320916E03821741F0E0916D0375
:101EB000F0E0EC5AFC4F958F80936D03FF91EF910A
:101EC0009F918F912F910F900FBE0F901F9018959B
:101ED0008081F4CF1F920F920FB60F9211242F938F
:101EE0003F938F939F93AF93BF938091BA0290914A
:101EF000BB02A091BC02B091BD023091B90223E0B7
:101F0000230F2D3758F50196A11DB11D2093B9025D
:101F10008093BA029093BB02A093BC02B093BD021F
:101F20008091BE029091BF02A091C002B091C10207
:101F30000196A11DB11D8093BE029093BF02A09394
:101F4000C002B093C102BF91AF919F918F913F9119
:101F50002F910F900FBE0F901F90189526E8230F1A
:101F60000296A11DB11DD2CF1F920F920FB60F92F4
:101F700011242F933F934F935F936F937F938F938E
:101F80009F93AF93BF93EF93FF93E0914A03F09138
:101F90004B03309749F0A685B7858585968D91FFCF
:101FA00014C09C918923A1F4FF91EF91BF91AF914F
:101FB0009F918F917F916F915F914F913F912F9161
:101FC0000F900FBE0F901F9018959C91892361F779
:101FD000A389B4899C918589809589238C9386896E
:101FE00097890197F1F7608D718DA685B785558525
:101FF00038E020E0CB010197F1F7822F90E0959532
:102000008795282F4C91452309F02068315091F78E
:10201000868D81FD20958091490390E001968F7314
:10202000992730914803381799F0A0914903B0E0FF
:10203000A758BD4F2C9380934903828D938D0197B0
:10204000F1F7A389B4898C919589892B8C93ACCFB6
:10205000868D8160868FF1CF1F920F920FB60F92FF
:1020600011242F933F934F935F936F937F938F939D
:102070009F93AF93BF93EF93FF938091B900887FB5
:10208000803609F44AC0F0F5883209F4A7C018F583
:10209000803109F49BC0B8F4882309F4F9C0883072
:1020A00009F494C0FF91EF91BF91AF919F918F91EF
:1020B0007F916F915F914F913F912F910F900FBE44
:1020C0000F901F901895883109F488C0803251F71D
:1020D0008093520214C0803409F49DC040F48033D0
:1020E000B9F38833F9F68093520285ECB0C080359D
:1020F00009F485C0883509F496C0883499F60E94A1
:102100007E0ED0CF883909F48CC038F5883729F095
:1021100050F4883611F0803729F683E0809353021B
:102120001092510257C0883809F47BC0803919F0E9
:10213000803809F0B7CF80915102803208F071C029
:10214000E091510281E08E0F809351028091BB009B
:10215000F0E0EF5CFD4F80833DC0803B39F0E0F460
:10216000803A09F479C0883A09F09CCF84E08093E2
:1021700053021092300210922F02E0914E03F09120
:102180004F03099580912F0281110FC081E0809348
:102190002F0210920F0209C0803C09F4A6CF883CA0
:1021A00009F4A3CF883B09F07DCFE091300281E0B4
:1021B0008E0F80933002F0E0E15FFD4F80818093CD
:1021C000BB009091300280912F0229C0809178024B
:1021D0008093BB0085EC8093BC0064CF9091770224
:1021E00080917602981758F5E091770281E08E0F82
:1021F00080937702F0E0EA5AFD4F8081E9CFE091C9
:10220000770281E08E0F809377028091BB00F0E02F
:10221000EA5AFD4F80839091770280917602981759
:10222000C8F285E8D8CFE091770281E08E0F8093E5
:1022300077028091BB00F0E0EA5AFD4F80838091E5
:10224000550281115CCF81E08093540284EA80932F
:10225000BC001092530226CF85EC8093BC001092F4
:10226000530280915102803230F4E0915102F0E04B
:10227000EF5CFD4F10826091510270E0E0914C03E1
:10228000F0914D0381E392E00995109251020ACF3B
:102290001092520234CF1F920F920FB60F92112458
:1022A0002F933F934F935F936F937F938F939F935E
:1022B000AF93BF93CF93DF93EF93FF938091C601CA
:1022C000C0912104D0E087FF24C0109285001092B5
:1022D00084008091C6018F5F8093C6018091C60102
:1022E000082E000C990B8C179D0724F48091C601D1
:1022F0008C30C4F1809184009091850004968034E4
:102300009C4908F47AC080918400909185000496DD
:1023100076C08091C601082E000C990B8C179D0782
:10232000C4F6E091C6018E2FEE0F990BFC01EE0F63
:10233000FF1FE80FF91FE350FC4F808186FFC9CFD4
:10234000E091C6018E2FEE0F990BFC01EE0FFF1FDF
:10235000E80FF91FE350FC4F808160E08F730E940B
:102360004602B7CF2091840030918500E091C601EC
:102370008E2FEE0F990BFC01EE0FFF1FE80FF91FD8
:10238000E350FC4F81819281820F931F90938900CB
:1023900080938800E091C6018E2FEE0F990BFC010F
:1023A000EE0FFF1FE80FF91FE350FC4F808186FFFF
:1023B00011C0E091C6018E2FEE0F990BFC01EE0FBC
:1023C000FF1FE80FF91FE350FC4F808161E08F731E
:1023D0000E944602FF91EF91DF91CF91BF91AF91A3
:1023E0009F918F917F916F915F914F913F912F912D
:1023F0000F900FBE0F901F90189580E49CE990936A
:102400008900809388008FEF8093C601E3CFCF923D
:10241000DF92EF92FF920F931F93E82FF92F05C0E1
:10242000015011092109310961F190819623941716
:10243000B9F305C0015011092109310911F1908149
:1024400096239413F7CFC12CD12CE12CF12C0AC088
:102450008FEFC81AD80AE80AF80A0C151D052E05D0
:102460003F0579F080818623841791F36C2D7D2DB3
:102470008E2D9F2D1F910F91FF90EF90DF90CF90A9
:10248000089560E070E080E090E01F910F91FF9070
:10249000EF90DF90CF90089510925703109256035B
:1024A00088EE93E0A0E0B0E0809358039093590346
:1024B000A0935A03B0935B0327E431E030935503B4
:1024C0002093540325EC30E03093610320936003A4
:1024D00024EC30E0309363032093620320EC30E07F
:1024E000309365032093640321EC30E0309367035D
:1024F0002093660322EC30E0309369032093680355
:1025000026EC30E030936B0320936A0310926D0346
:1025100010926E0310926F03109270031092F403E6
:102520001092F3038093F5039093F603A093F703BF
:10253000B093F80389E591E09093F2038093F1035F
:10254000E4E7F4E02CE834E04FEF68EB7BE08091C7
:1025500021048C3008F061C091E0980F9093210421
:10256000808390E0DC01AA0FBB1FA80FB91FA35006
:10257000BC4F12967C936E93119733962E173F079C
:1025800031F7809121048C3008F049C091E0980F18
:10259000909321048093710490E0FC01EE0FFF1FE3
:1025A000E80FF91FE350FC4F88EB9BE09283818397
:1025B00047E050E064E070E08BE594E00E94670D36
:1025C00010925204109251048BE691E090935004C3
:1025D00080934F0487E28093530480E180935804F2
:1025E00082E08093590410925A0410924E04109283
:1025F0004504109246041092470410924804109229
:10260000410410924204109243041092440443E0A7
:1026100062E082E294E00C94DC024083AECF8FEF64
:1026200080937104C5CFCF93DF93CDB7DEB7CB5482
:10263000D1090FB6F894DEBF0FBECDBF789484B534
:10264000826084BD84B5816084BD85B5826085BDAE
:1026500085B5816085BD80916E00816080936E003C
:10266000109281008091810082608093810080912E
:1026700081008160809381008091800081608093DF
:1026800080008091B10084608093B1008091B0009F
:1026900081608093B00080917A00846080937A009A
:1026A00080917A00826080937A0080917A008160C4
:1026B00080937A0080917A00806880937A001092EB
:1026C000C100E0916403F091650382E08083E091B2
:1026D0006003F09161031082E0916203F091630363
:1026E00080E1808310926C03E0916803F0916903AC
:1026F00086E08083E0916603F091670380818061CA
:102700008083E0916603F091670380818860808315
:10271000E0916603F0916703808180688083E09197
:102720006603F091670380818F7D808314E061E010
:10273000812F0E94A00260E0812F0E9446021F5F4D
:102740001E30A9F70E9441030E94D5030E94550D37
:1027500068EC70E080E090E00E94B40484E593E0CF
:102760000E944501892B11F40C94AC1C84E593E084
:102770000E944501181619068CF784E593E00E9423
:10278000230190912403853589F591112FC0809103
:1027900023038F3F29F481E0809322038093240355
:1027A000809122038F5F8433C0F580932203809150
:1027B0002403882399F2809121038111CFCF809146
:1027C0002203843058F210922403E091F202009127
:1027D000F302E02EF12C4091F102423009F4ABC03B
:1027E0000CF5413041F110922203B8CF80932303BE
:1027F0009923B1F2E0912203E23039F4809321036E
:10280000F0E0E351FD4F8083CBCFE330C8F39091EC
:102810002103915090932103F3CF10922203109241
:102820002403C5CF433011F40C943F1C4430D9F637
:102830000E94C309D8CFE13059F4F701EE0FFF1F12
:10284000E45DFC4F8091F40290E091838083CBCFD4
:10285000F0E0E730F10509F040C01091F402812F5B
:1028600090E020912B03211129C040932B03F0927B
:102870000C01E0920B0190930A0180930901F7018A
:10288000EE0FFF1FE45DFC4F21E030E03183208339
:10289000880F991FFC01E45DFC4F3183208361E0C8
:1028A000802F0E94A00260E0812F0E94A00262E3BC
:1028B00070E080E090E00E94B40495CF20910B017D
:1028C00030910C01E216F30691F620910901309146
:1028D0000A012817390759F686CF9701220F331FAF
:1028E000E231F10561F440932A03F092EC02E092A8
:1028F000EB02245D3C4F81E090E0F901A6CF739795
:1029000021F481E080932903F0CF80910B01909115
:102910000C01E816F90639F08091090190910A013D
:10292000E816F90611F410922B03245D3C4FF901CF
:102930001182108258CF80910B0190910C01E81602
:10294000F90639F08091090190910A01E816F9061B
:1029500011F410922B03E150E13208F069CF0E2EF2
:10296000000CFF0BEA54FB4E0C941B21D7141814D7
:10297000E014401BEA1418141814231C181418141B
:10298000181418141814271C1814181418141814D0
:1029900018141F1759179817CE17F517F91733186A
:1029A0003B188B190F18C41AD91A111B3C1BC701ED
:1029B0000E9481096091F402802F0E94460238CF64
:1029C000C7010E9481096091F40270E0802F0E948B
:1029D00053032ECFC7010E9481098091F402809396
:1029E000C2028091F5028093C3028091C20290914D
:1029F000C30228969FAF8EAF28978091F6028093EE
:102A0000C2028091F7028093C302E091C202F0916A
:102A1000C3022C96FFAFEEAF2C971E161F060CF0CC
:102A20000AC2809100010813D2C0E6E8F0E01491D8
:102A300017FDFECE61E0802F0E94A0021123C9F095
:102A400028968EAD9FAD28972C01712C612C60E0EB
:102A500072E18AE790E0A30192010E94401F6901A0
:102A60007A0191E0C91AD108E108F108123009F0A1
:102A70009FC12896EEADFFAD28972F01712C612CD8
:102A800060E072E18AE790E0A3019F010E94401F8D
:102A900049015A017A016901F1E0CF1AD108E10830
:102AA000F1082FEFC216D104E104F10409F00CF48F
:102AB0004EC160E472E48FE090E0A30192010E94B5
:102AC000401F69017A0181E0C81AD108E108F108C4
:102AD000123009F0F3C082E09FEFC916D104E1047F
:102AE000F10409F00CF46CC060E970ED83E090E053
:102AF000A30192010E94401F69017A01E1E0CE1A10
:102B0000D108E108F10883E0FFEFCF16D104E1041A
:102B1000F10409F00CF454C068E478EE81E090E030
:102B2000A30192010E94401F69017A0191E0C91A34
:102B3000D108E108F10884E0EFEFCE16D104E104FA
:102B4000F104F1F1ECF164E274EF80E090E0A301B4
:102B500092010E94401F69017A0191E0C91AD108CF
:102B6000E108F10885E0EFEFCE16D104E104F104AD
:102B700039F130F162E17AE780E090E0A30192015F
:102B80000E94401F69017A0181E0C81AD108E1085A
:102B9000F10886E09FEFC916D104E104F10481F049
:102BA00078F0750164012AE0F594E794D794C7940E
:102BB0002A95D1F721E0C21AD108E108F10887E08F
:102BC0009091B100987F892B8093B100C7C08F3F4F
:102BD00009F02ECE00930001E6E8F0E014911F3FCB
:102BE00009F426CE113031F150F0123009F442C010
:102BF00017FD1ECE61E0802F0E94A00221CF14BCE1
:102C000015BC84B5826084BD85B5816085BDF70142
:102C1000E556FF4FE491F0E0EE0FFF1FEF56FF4F38
:102C200085919491F701E155FF4FE491E093C8023B
:102C300010E000CF109280001092810080918100FE
:102C40008860809381008091810081608093810001
:102C5000F701E556FF4FE491F0E0EE0FFF1FEF564E
:102C6000FF4F85919491F701E155FF4FE491E09377
:102C7000C702E0CE1092B0001092B1008091B00077
:102C800082608093B0008091B10081608093B10038
:102C9000F701E556FF4FE491F0E0EE0FFF1FEF560E
:102CA000FF4F859194919093C6028093C502F701DE
:102CB000E155FF4FE491E093C402BCCE2FEFC21662
:102CC000D104E104F10409F00CF470C068E478EE7A
:102CD00081E090E0A30192010E94401F69017A0106
:102CE00081E0C81AD108E108F10884E011113BCF56
:102CF00083E0FFEFCF16D104E104F10459F154F160
:102D000062E17AE780E090E0A30192010E94401F17
:102D100069017A01E1E0CE1AD108E108F10884E006
:102D2000FFEFCF16D104E104F104A1F098F0750192
:102D300064019AE0F594E794D794C7949A95D1F7F3
:102D400081E0C81AD108E108F10885E003C081E0FC
:102D5000111136CF95B5987F892B85BD28962EAD5C
:102D60003FAD2897220F331F2C96AEADBFAD2C97E9
:102D70000E94212128EE33E040E050E00E94A11F94
:102D80001130B9F1123009F446C0111151CDC7BC50
:102D90002093D1023093D2024093D3025093D402B5
:102DA00080916E00826080936E0042CD82E0D0CF31
:102DB00091E0C114D10421E0E206F10484F068E45A
:102DC00078EE81E090E0A30192010E94401F69012A
:102DD0007A0181E0C81AD108E108F10893E01130C6
:102DE00009F0BCCF80918100887F892B809381007E
:102DF000B5CFD0928900C09288002093CD02309345
:102E0000CE024093CF025093D00280916F00826037
:102E100080936F000DCDC092B3002093C902309310
:102E2000CA024093CB025093CC0280917000826022
:102E300080937000FDCC802F0E947402F9CCC701F2
:102E40000E9481096091F40270E0A701CE01019611
:102E50000E94670D86E1FE013196ABE5B4E001907A
:102E60000D928A95E1F78A859B850E94C4218F8106
:102E7000988597FD03C060E00E94A0020E94410374
:102E800020E040E060E090E080E00E94900020E0E0
:102E900040E060E081E090E00E94900020E040E0AF
:102EA00060E082E090E00E94900020E040E060E07E
:102EB00093C08091F402FF24F394F80E20916304F0
:102EC000F21609F4B5CC0091640410916504215008
:102ED00070E060E061F08F3FF1F430E050E040E0FE
:102EE0006FEF7FEF80E090E00E94401FB901F80192
:102EF00040915F0450916004CF01801B910B8417B7
:102F0000950798F44081469FC001479F900D11247A
:102F100090833196EDCF8F2D90E0982F88270197E1
:102F2000622F70E00E94F320E2CFF092630480CC25
:102F30008091F4026091F6024091F8022091FA0229
:102F400090E0843009F04AC0C7010E94810920E066
:102F500040E060E090E080E00E94900020E040E0EF
:102F600060E081E090E00E94900020E040E060E0BE
:102F700082E090E00E94900020E040E060E083E08A
:102F800090E00E9490000E94D5030E94D50362E366
:102F900070E080E090E00E94B4044ACC1091F4020A
:102FA0000091F602F090F8022F2D402F612F90E053
:102FB00080E00E9490002F2D402F612F81E090E053
:102FC0000E9490002F2D402F612F82E090E00E9400
:102FD00090002F2D402F612F83E090E00E94900001
:102FE0000E94D5030E94D50323CCC7010E9481090A
:102FF00047CF8091F40290E09093080180930701FD
:103000008091F60290E090930601809305018091F3
:10301000F80290E0909304018093030109CC88E5C5
:1030200090E00E9428218C0120910301309104013D
:1030300040910501509106016091070170910801CE
:103040000E94120CF801EA5AFF4F808191811816F4
:1030500019062CF470E060E0C8010E94ED0BC80175
:103060000E94C421E5CB8091F40290E0909302018C
:1030700080930101DDCB6091F40270E049E050E003
:10308000CE0187960E94260E1A8219821C821B820C
:103090001E821D8250E040E065E771E0CE0101969E
:1030A0000E94F10D88E590E00E9428216C0120919A
:1030B0000301309104014091050150910601609196
:1030C0000701709108010E94120C86010A5A1F4FD5
:1030D000F80180819181181619063CF421E04CE03A
:1030E00070E060E0C6010E942F0B20910101309139
:1030F0000201F80180819181181619064CF42031E3
:10310000310530F44AE070E060E0C6010E942F0B08
:103110000EE010E0B801CE0187960E94D6008733FA
:1031200009F4A9C00CF086C0833309F4A1C00CF0E7
:1031300076C0813309F496C00CF097C066E771E061
:10314000803309F482C0780117FF03C0FFEFEF1A44
:10315000FF0AF594E794F194E194F10827E0E20E78
:10316000F11CB12CA12CB501CE0101960E94D60014
:1031700021E0813309F020E0A501B701C6010E94DA
:10318000BE0B8FEFA81AB80A94E0A916B10459F73C
:10319000B8016F5F7F4FCE0187960E94D6008733BC
:1031A00009F4A7C00CF084C0833309F49FC00CF06D
:1031B00074C0813309F494C00CF095C066E771E0E7
:1031C000803309F480C0B12CA12CB501CE01019649
:1031D0000E94D600A5014C5F5F4F21E0813309F0CA
:1031E00020E0B701C6010E94BE0BEFEFAE1ABE0A87
:1031F000F4E0AF16B10449F7025011090E3F2FEF6A
:10320000120709F087CFC6010E94C421CE010196A2
:103210000E94C10DCE0187960E94C10D09CB6FE8B7
:1032200071E0853391F06AE871E0863374F064E907
:1032300071E00BC0823641F16CF4893311F1F4F086
:1032400068EA71E0813609F07ECFCE0101960E94D6
:103250001C0E79CF8436F1F0D4F06CEB71E085363A
:10326000A1F371CF6BE771E0F0CF60E871E0EDCFD3
:1032700065E871E0EACF69E971E0E7CF6EE971E0F6
:10328000E4CF63EA71E0E1CF6DEA71E0DECF62EB9B
:1032900071E0DBCF67EB71E0D8CF6FE871E0853389
:1032A00091F06AE871E0863374F064E971E00BC074
:1032B000823641F16CF4893311F1F4F068EA71E07F
:1032C000813609F080CFCE0101960E941C0E7BCF83
:1032D0008436F1F0D4F06CEB71E08536A1F373CF56
:1032E0006BE771E0F0CF60E871E0EDCF65E871E089
:1032F000EACF69E971E0E7CF6EE971E0E4CF63EA14
:1033000071E0E1CF6DEA71E0DECF62EB71E0DBCF1F
:1033100067EB71E0D8CFD090F40288E590E00E948E
:1033200028218C0120910301309104014091050175
:103330005091060160910701709108010E94120CE2
:10334000780186E5E80EF11CF7018081918118165D
:1033500019063CF421E04CE070E060E0C8010E94F6
:103360002F0B2091010130910201F70180819181A1
:10337000181619064CF42031310530F44AE070E09B
:1033800060E0C8010E942F0BF3E0DF1609F490C043
:10339000FD159CF121E0D21609F459C082E0D81243
:1033A0005ECE46E670E060E0C8010E94AA0B49E9E3
:1033B00061E070E0C8010E94AA0B41E862E070E0A1
:1033C000C8010E94AA0B41E863E070E0C8010E94B6
:1033D000AA0B42E464E070E0C8010E94AA0B44E238
:1033E00065E070E0C8010E94AA0B48E166E070E069
:1033F000C8010E94AA0B40E055C095E0D91609F417
:103400009DC0D9160CF47AC0E6E0DE1228CE40E06A
:1034100070E060E0C8010E94AA0B48E061E070E043
:10342000C8010E94AA0B44E062E070E0C8010E945B
:10343000AA0B4EE763E070E0C8010E94AA0B44E0CB
:1034400064E070E0C8010E94AA0B48E096C046E61E
:1034500070E060E0C8010E94AA0B4FEF61E070E0ED
:10346000C8010E94AA0B4FEF62E070E0C8010E9401
:10347000AA0B4FEF63E070E0C8010E94AA0B4EE771
:1034800064E070E0C8010E94AA0B4CE365E070E0C4
:10349000C8010E94AA0B48E166E070E0C8010E94E2
:1034A000AA0B46E667E070E0C8010E94AA0BD7CDE0
:1034B00040E070E060E0C8010E94AA0B40E161E0DA
:1034C00070E0C8010E94AA0B48E362E070E0C80106
:1034D0000E94AA0B44E563E070E0C8010E94AA0BB9
:1034E00040E164E070E0C8010E94AA0B40E165E0A1
:1034F00070E0C8010E94AA0B40E178CF40E070E084
:1035000060E0C8010E94AA0B40E161E070E0C801E0
:103510000E94AA0B40E162E070E0C8010E94AA0B81
:1035200040E163E070E0C8010E94AA0B44E564E05A
:1035300070E0C8010E94AA0B48E3D9CF40E070E0D8
:1035400060E0C8010E94AA0B40E161E070E0C801A0
:103550000E94AA0B40E262E070E0C8010E94AA0B40
:103560004EE763E070E0C8010E94AA0B40E264E00D
:1035700070E0C8010E94AA0B40E165E070E0C8015C
:103580000E94AA0B40E032CF8091F40290E0909329
:10359000EA028093E9028091F60290E09093E802BB
:1035A0008093E7028FE090E09093E6028093E5023B
:1035B0003FC94091E7026091E902CE0187960E94DF
:1035C000DC02CE0101960E94130BCE0187960E9469
:1035D0002D07BE01695D7F4FCE0101960E9429062D
:1035E0004091E5025091E602552766E0CE01019632
:1035F0000E94D4056AE070E080E090E00E94B4048C
:103600004091F60250E063E0CE0101960E94D4059D
:1036100085E391E098A78FA3CE0187960E941707B4
:1036200007C91091F6024091E7026091E902CE01CC
:1036300087960E94DC02CE0101960E94130BCE01F8
:1036400087960E942D07BE01695D7F4FCE010196CE
:103650000E9429064091E5025091E602552766E056
:10366000CE0101960E94D4056AE070E080E090E00F
:103670000E94B404412FC6CF8091F60290E094CF0F
:10368000C7010E948109B090F402F4EBFB1508F425
:10369000CFC8E5EDF2E090E080E021913191E216B3
:1036A000F30651F0232B09F0C6C0FC01EE0FFF1FFB
:1036B000EB52FD4FF182E082FC01EE0FFF1FE80F9D
:1036C000F91FEC58FB4F8081218192818093710416
:1036D00020937204909373048C3008F053C061E01F
:1036E000802F0E94A00280917104282F30E0F90100
:1036F000EE0FFF1FE20FF31FE350FC4F902F9F735D
:103700000081007C092B00831092720410927304D4
:103710002CE0622F0E94E720829FB001112430E04C
:1037200020E0AB01420F531FFA01EE0FFF1FE40F21
:10373000F51FE350FC4F908196FD16C02F5F3F4F61
:103740002C30310571F781110FC01092800082E09A
:10375000809381001092850010928400B19A80912C
:103760006F00826080936F00E09171048E2F90E073
:10377000FC01EE0FFF1FE80FF91FE350FC4F8081A3
:1037800080648083F090710480917304B8E5CB2E3F
:10379000B2E0DB2EC81AD10887FDD394CC0CDD1C17
:1037A000CC0CDD1C8091720408E810E0081B1109A4
:1037B00087FD1395000F111F000F111F2801012E07
:1037C000000C6608770896010D2C000C440B550B75
:1037D0002419350946095709AB2DB0E00E945F1F37
:1037E00024EB30E040E050E00E94401F420E531EA8
:1037F000641E751E2BE02F1510F40C94181440163F
:1038000051062CF086014C145D040CF48201025028
:103810001109000F111F2FB7F8948F2D90E0FC01B4
:10382000EE0FFF1FE80FF91FE350FC4F12830183D7
:103830002FBF0C94181401968830910509F02DCFF4
:1038400090E080E039CF0E94E7040C941814E090D7
:10385000F402F090F602D090F8020091FA0210E023
:103860008E2D90E00E9481098F2D90E00E948109A9
:103870006D2D8E2D0E944602B8018F2DA8C8EC3008
:1038800051F0E13159F0EB3041F51091F402133071
:1038900051F50E94D80C0E94CD0C1FC08091F802F7
:1038A0009091F6022091F402109252041092510469
:1038B000211117C027E22093530410925404109250
:1038C0005504109256041092570490935804809314
:1038D000590410925A040E94550D0E94C3090C9479
:1038E00018142FE3E8CF0091F6026091F80270E01F
:1038F0004DE050E0CE0187960E94260E88E0EDE173
:10390000F1E0DE01119601900D928A95E1F7809128
:103910005704811710F41FEF180FE12FF0E0EE0F9E
:10392000FF1F81E090E08C0F9D1FE80FF91F608161
:10393000600F606840E08FE494E00E94B60C4BA5F5
:103940005CA56FA178A58FE494E00E94E700CE010A
:1039500087960E94C10DC1CF6FE070E080E090E0DB
:103960000E94B40400E313E062E0F62EF8018191B6
:1039700091918F01009721F00297E9F462E001C074
:1039800060E08F2D0E94A0020E94CB098F2D0E9423
:103990001D02BC01990F880B990B0E94231E0E94E7
:1039A00097098F2D0E94920981E00E9492090E943E
:1039B000BB090E94C309F394FEE0FF12D7CF55E282
:1039C000C52E51E0D52E10E0F601819191916F0145
:1039D000892B09F070C044E1E42EF12C01E0712E36
:1039E000689476F870927C0080917A00806480936D
:1039F0007A0080917A0086FDFCCF809178006091FA
:103A00007900762F682F072E000C880B990B0E94E7
:103A1000231E4B015C01002339F029966FAF2997D3
:103A20002A969FAE2A971C012DEC3CEC4CEC5DE3F2
:103A300029966FAD29972A967FAD2A97C1010E94DA
:103A4000821E1B012C0126E636E646E65FE3B40142
:103A5000C5010E94821E9B01AC01C201B1010E94FE
:103A6000D31F29966FAF29972A967FAF2A971C01FB
:103A7000F1E0EF1AF10800E009F0B4CF0E94CB09A1
:103A800029966FAD29972A967FAD2A97C1010E948A
:103A9000B120072E000C880B990B0E94231E0E9458
:103AA0009709812F0E94920982E00E9492090E9448
:103AB000BB090E94C3091F5F163009F085CF8091B2
:103AC0002B03882309F46FC010910B0160E0812F54
:103AD0000E94460283E090E00197F1F761E0812FB8
:103AE0000E94460283E290E00197F1F760E0812FA7
:103AF0000E9446028091090190910A019927FC01D8
:103B0000E155FF4F6491FC01E556FF4FE491F0E071
:103B1000EE0FFF1FE957FF4F8591949100E315E7E2
:103B200020E030E0462F0E940712611571058105E3
:103B3000910529F06F5F7F4F8F4F9F4F9F700E94BD
:103B4000211E20E030E048EE51E40E943F2020E0BA
:103B500030E040E05FE30E94821E6B017C0120E0C8
:103B600030E0A9010E941C1E811143C0C0902503B2
:103B7000D0902603E0902703F09028030E94CB0901
:103B8000C701B6010E94970980910B010E9492091A
:103B9000809109010E94920987E00E9492090E9487
:103BA000BB090E94C30980912A03882321F00E9447
:103BB000D1090E94C30980912903882321F00E9422
:103BC000D1090E94C3096AE070E080E090E00E94A1
:103BD000B40480E090E0892B11F40C94AE130E94A1
:103BE0005101882311F40C94AE130E9400000C9430
:103BF000AE13C0922503D0922603E0922703F092E1
:103C00002803BCCF85E391E09093230480932204A2
:103C100082E294E00E941707809164049091650409
:103C20000E94C421809161049091620497FD03C0B9
:103C300060E00C94A00208950E945E1E08F481E0EA
:103C40000895E89409C097FB3EF49095809570958F
:103C500061957F4F8F4F9F4F9923A9F0F92F96E9D8
:103C6000BB279395F695879577956795B795F1114D
:103C7000F8CFFAF4BB0F11F460FF1BC06F5F7F4FEA
:103C80008F4F9F4F16C0882311F096E911C07723FC
:103C900021F09EE8872F762F05C0662371F096E805
:103CA000862F70E060E02AF09A95660F771F881FD4
:103CB000DAF7880F9695879597F90895990F000878
:103CC000550FAA0BE0E8FEEF16161706E807F907EE
:103CD000C0F012161306E407F50798F0621B730B89
:103CE000840B950B39F40A2661F0232B242B252B0A
:103CF00021F408950A2609F4A140A6958FEF811DAD
:103D0000811D08950E94951E0C94061F0E94F81EA6
:103D100038F00E94FF1E20F0952311F00C94EF1E46
:103D20000C94F51E11240C943A1F0E94171F70F377
:103D3000959FC1F3950F50E0551F629FF001729F50
:103D4000BB27F00DB11D639FAA27F00DB11DAA1F5F
:103D5000649F6627B00DA11D661F829F2227B00DAC
:103D6000A11D621F739FB00DA11D621F839FA00D37
:103D7000611D221F749F3327A00D611D231F849F87
:103D8000600D211D822F762F6A2F11249F575040DE
:103D90009AF0F1F088234AF0EE0FFF1FBB1F661F59
:103DA000771F881F91505040A9F79E3F510580F022
:103DB0000C94EF1E0C943A1F5F3FE4F3983ED4F34B
:103DC000869577956795B795F795E7959F5FC1F7C6
:103DD000FE2B880F911D9695879597F9089597F971
:103DE0009F6780E870E060E008959FEF80EC0895A1
:103DF00000240A94161617061806090608950024CA
:103E00000A9412161306140605060895092E039443
:103E1000000C11F4882352F0BB0F40F4BF2B11F4B7
:103E200060FF04C06F5F7F4F8F4F9F4F089557FD16
:103E30009058440F551F59F05F3F71F04795880F18
:103E400097FB991F61F09F3F79F0879508951216AF
:103E500013061406551FF2CF4695F1DF08C016165B
:103E600017061806991FF1CF86957105610508940C
:103E70000895E894BB2766277727CB0197F9089523
:103E8000052E97FB1EF400940E94571F57FD07D084
:103E90000E94A11F07FC03D04EF40C94571F5095AD
:103EA0004095309521953F4F4F4F5F4F0895909526
:103EB0008095709561957F4F8F4F9F4F08950E9419
:103EC000C31FA59F900DB49F900DA49F800D911DC1
:103ED000112408952F923F924F925F926F927F929A
:103EE0008F929F92AF92BF92CF92DF92EF92FF920A
:103EF0000F931F93CF93DF93CDB7DEB7CA1BDB0BB6
:103F00000FB6F894DEBF0FBECDBF09942A8839885A
:103F100048885F846E847D848C849B84AA84B98461
:103F2000C884DF80EE80FD800C811B81AA81B9816D
:103F3000CE0FD11D0FB6F894DEBF0FBECDBFED0181
:103F40000895A1E21A2EAA1BBB1BFD010DC0AA1FDA
:103F5000BB1FEE1FFF1FA217B307E407F50720F0F2
:103F6000A21BB30BE40BF50B661F771F881F991F6D
:103F70001A9469F760957095809590959B01AC01B6
:103F8000BD01CF010895A29FB001B39FC001A39FBF
:103F9000700D811D1124911DB29F700D811D112482
:103FA000911D08955058BB27AA270E94EA1F0C9420
:103FB000061F0E94F81E38F00E94FF1E20F039F400
:103FC0009F3F19F426F40C94F51E0EF4E095E7FBE0
:103FD0000C94EF1EE92F0E94171F58F3BA176207BF
:103FE00073078407950720F079F4A6F50C94391F20
:103FF0000EF4E0950B2EBA2FA02D0B01B901900104
:104000000C01CA01A0011124FF27591B99F0593F47
:1040100050F4503E68F11A16F040A22F232F342F8F
:104020004427585FF3CF469537952795A795F040DD
:104030005395C9F77EF41F16BA0B620B730B840BF2
:10404000BAF09150A1F0FF0FBB1F661F771F881FAA
:10405000C2F70EC0BA0F621F731F841F48F4879502
:1040600077956795B795F7959E3F08F0B0CF9395F4
:10407000880F08F09927EE0F9795879508950E946D
:1040800053200C94061F0E94FF1E58F00E94F81E39
:1040900040F029F45F3F29F00C94EF1E51110C946D
:1040A0003A1F0C94F51E0E94171F68F39923B1F371
:1040B000552391F3951B550BBB27AA27621773074E
:1040C000840738F09F5F5F4F220F331F441FAA1FE2
:1040D000A9F335D00E2E3AF0E0E832D0915050409E
:1040E000E695001CCAF72BD0FE2F29D0660F771F4C
:1040F000881FBB1F261737074807AB07B0E809F032
:10410000BB0B802DBF01FF2793585F4F3AF09E3FB6
:10411000510578F00C94EF1E0C943A1F5F3FE4F3C6
:10412000983ED4F3869577956795B795F7959F5FF9
:10413000C9F7880F911D9695879597F90895E1E045
:10414000660F771F881FBB1F621773078407BA07A4
:1041500020F0621B730B840BBA0BEE1F88F7E095FF
:1041600008950E94B8206894B1110C943A1F0895E4
:104170000E941F1F88F09F5798F0B92F9927B751B9
:10418000B0F0E1F0660F771F881F991F1AF0BA95FB
:10419000C9F714C0B13091F00E94391FB1E0089501
:1041A0000C94391F672F782F8827B85F39F0B93FF3
:1041B000CCF3869577956795B395D9F73EF49095AE
:1041C0008095709561957F4F8F4F9F4F0895991BF4
:1041D00079E004C0991F961708F0961B881F7A95FE
:1041E000C9F780950895AA1BBB1B51E107C0AA1F00
:1041F000BB1FA617B70710F0A61BB70B881F991F88
:104200005A95A9F780959095BC01CD01089597FB2B
:10421000072E16F4009407D077FD09D00E94F320F2
:1042200007FC05D03EF4909581959F4F08957095B9
:1042300061957F4F0895EE0FFF1F0590F491E02DDB
:1042400009940E94C31FB7FF0895821B930B089522
:104250000F931F93CF93DF938230910510F482E088
:1042600090E0E0918E04F0918F0430E020E0B0E027
:10427000A0E0309799F42115310509F44AC0281BB4
:10428000390B24303105D8F58A819B816115710580
:1042900089F1FB0193838283FE0111C0408151812A
:1042A0000281138148175907E0F04817590799F41C
:1042B000109761F012960C93129713961C933296F6
:1042C000CF01DF91CF911F910F91089500938E043C
:1042D00010938F04F4CF2115310551F04217530785
:1042E00038F0A901DB019A01BD01DF01F801C1CF5E
:1042F000EF01F9CF90938F0480938E04CDCFFE0110
:10430000E20FF31F8193919322503109398328835F
:10431000D7CF20918C0430918D04232B41F4209130
:104320000F013091100130938D0420938C04209163
:104330000D0130910E012115310541F42DB73EB725
:104340004091110150911201241B350BE0918C0416
:10435000F0918D04E217F307A0F42E1B3F0B2817F2
:10436000390778F0AC014E5F5F4F2417350748F0EE
:104370004E0F5F1F50938D0440938C048193919353
:104380009FCFF0E0E0E09CCFCF93DF930097E9F080
:10439000FC01329713821282A0918E04B0918F0497
:1043A000ED0130E020E01097A1F420813181820FEF
:1043B000931F20918C0430918D042817390709F040
:1043C00061C0F0938D04E0938C04DF91CF91089548
:1043D000EA01CE17DF07E8F54A815B819E014115AE
:1043E0005105B1F7E901FB83EA8349915991C40F63
:1043F000D51FEC17FD0761F4808191810296840F2F
:10440000951FE90199838883828193819B838A83A5
:10441000F0E0E0E012968D919C9113970097B9F52A
:104420002D913C911197CD010296820F931F2091FF
:104430008C0430918D042817390739F6309751F5DF
:1044400010928F0410928E04B0938D04A0938C046C
:10445000BCCFD383C28340815181840F951FC8177D
:10446000D90761F44E5F5F4F88819981480F591FCA
:10447000518340838A819B819383828321153105F7
:1044800009F0B0CFF0938F04E0938E049ECFFD012E
:10449000DC01C0CF13821282D7CFB0E0A0E0E3E509
:1044A000F2E20C946C1F8C01009751F4CB010E9436
:1044B00028218C01C801CDB7DEB7E0E10C94881F3C
:1044C000FC01E60FF71F9C0122503109E217F307A8
:1044D00008F49DC0D901CD91DC911197C617D7077B
:1044E00098F0C530D10530F3CE01049786179707B1
:1044F00008F3C61BD70B2297C193D1936D937C937E
:10450000CF010E94C421D6CF5B01AC1ABD0A4C0179
:104510008C0E9D1EA0918E04B0918F04512C412CC5
:10452000F12CE12C109731F580918C0490918D0441
:104530008815990509F05CC04616570608F058C062
:1045400080910D0190910E01009741F48DB79EB7B7
:104550004091110150911201841B950BE817F90746
:1045600008F055C0F0938D04E0938C04F901718339
:104570006083A0CF8D919C91119712966C901297A9
:1045800013967C901397A815B90559F56C0142E074
:10459000C40ED11CCA14DB0420F1AC014A195B091A
:1045A000DA011296159780F06282738251834083FC
:1045B000D9016D937C93E114F10471F0D701139646
:1045C000FC93EE93129776CF22968C0F9D1FF901E4
:1045D00091838083F301EFCFF0938F04E0938E04F7
:1045E00069CF4816590608F42C017D01D3019ACFF2
:1045F000CB010E9428217C01009749F0AE01B8014F
:104600000E940A23C8010E94C421870153CF10E0F1
:1046100000E050CFFB01DC0102C001900D9241503F
:104620005040D8F70895DC0101C06D9341505040CF
:10463000E0F70895FB01DC0101900D920020E1F705
:10464000089510E0C3E6D0E004C0FE010E941B21E3
:0C4650002196C436D107C9F7F894FFCFBB
:10465C00FF08000A000B000C000C000D000000907D
:10466C000480007EFF06000100000000EF00004007
:10467C0000140054000000000000000000000000C6
:10468C0000000000008206E7007E098106DE06F6C7
:10469C00066906000000008701E7001401D40145FB
:1046AC0001230137010000000067083A087E0981E8
:1046BC000633082008110800000000610DE7007E99
:1046CC00097D090D0A0030303030003030303100B7
:1046DC00303031300030303131003031303000305A
:1046EC003130310030313130003031313100313046
:1046FC003030003130303100313031300031303138
:10470C003100313130300031313031003131313123
:02471C0000009B
:00000001FF
