:100000000C9464000C948C000C948C000C94A90E3D
:100010000C94A90E0C94A90E0C948C000C94AB0DAE
:100020000C948C000C948C000C948C000C9440105C
:100030000C948C000C948C000C948C000C948C0010
:100040000C945F0E0C948C000C942D0E0C94070EE7
:100050000C948C000C948C000C948C000C948C00F0
:100060000C94210F0C948C00000000002400270049
:100070002A0000000008000201000003040700003D
:1000800000000000000002000000002300260029FC
:100090000000000000250028002B000404040404D4
:1000A0000404040202020202020303030303030125
:1000B00002040810204080010204081020010204FC
:1000C000081020004111FF1D11241FBECFEFD8E002
:1000D000DEBFCDBF11E0A0E0B1E0EAE4F6E402C08B
:1000E00005900D92A83CB107D9F725E0A8ECB1E046
:1000F00001C01D92AE30B207E1F710E0C3E6D0E0D8
:1001000004C02197FE010E941221C236D107C9F70F
:100110000E9439120C9418230C940000089508953D
:10012000E091DB04F091DC048E179F0798F5309185
:10013000E104332361F0639FB0011124672F349FE2
:10014000A0011124452F329F90011124232F3091BB
:10015000E704E091E204F091E3045091E4043513E4
:100160001AC0DC01AA0FBB1F8A0F9B1F8E0F9F1F97
:10017000E091E404E80FF92FF11D6083E091E504BC
:10018000E80FF92FF11D40833091E604830F911D94
:10019000FC0120830895880F991F880F991F8E0FE7
:1001A0009F1FFC01E30FF11D1082E2CFFC012481AF
:1001B00035816217730748F480819181009729F097
:1001C000860F971FFC018081089580E00895AF920B
:1001D000BF92CF92DF92EF92FF920F931F93CF9334
:1001E000DF936C017B018B01040F151FEB015E0196
:1001F000AE18BF08C017D10759F06991D601ED912B
:10020000FC910190F081E02DC6010995892B79F7C9
:10021000C501DF91CF911F910F91FF90EF90DF907B
:10022000CF90BF90AF900895FC01538D448D252F42
:1002300030E0842F90E0821B930B541710F0CF9680
:10024000089501970895FC01918D828D981761F0B2
:10025000A28DAE0FBF2FB11D5D968C91928D9F5FC9
:100260009F73928F90E008958FEF9FEF0895FC01A8
:10027000918D828D981731F0828DE80FF11D858D5B
:1002800090E008958FEF9FEF0895FC01918D228DEE
:10029000892F90E0805C9F4F821B91098F73992773
:1002A000089584E593E00E94450121E0892B09F43B
:1002B00020E0822F089580E090E0892B29F00E94B1
:1002C000510181110C9400000895FC01A48DA80F28
:1002D000B92FB11DA35ABF4F2C91848D90E0019688
:1002E0008F739927848FA689B7892C93A089B189A8
:1002F0008C91837080648C93938D848D981306C049
:100300000288F389E02D80818F7D80830895EF92AC
:10031000FF920F931F93CF93DF93EC0181E0888FBF
:100320009B8D8C8D98131AC0E889F989808185FF8F
:1003300015C09FB7F894EE89FF896083E889F98931
:1003400080818370806480839FBF81E090E0DF9133
:10035000CF911F910F91FF90EF900895F62E0B8D86
:1003600010E00F5F1F4F0F731127E02E8C8D8E1141
:100370000CC00FB607FCFACFE889F989808185FFA8
:10038000F5CFCE010E946501F1CFEB8DEC0FFD2F73
:10039000F11DE35AFF4FF0829FB7F8940B8FEA8963
:1003A000FB8980818062CFCFCF93DF93EC01888D72
:1003B0008823B9F0AA89BB89E889F9898C9185FDE0
:1003C00003C0808186FD0DC00FB607FCF7CF8C916E
:1003D00085FFF2CF808185FFEDCFCE010E946501C0
:1003E000E9CFDF91CF910895833081F028F48130F7
:1003F00099F08230A9F008958730A9F08830C9F0CB
:100400008430B1F4809180008F7D03C080918000A2
:100410008F7780938000089584B58F7784BD089589
:1004200084B58F7DFBCF8091B0008F778093B00033
:1004300008958091B0008F7DF9CFCF93DF93282F5F
:1004400030E0F901EE58FF4F8491F901E155FF4F7B
:10045000D491F901E556FF4FC491CC23A1F081114D
:100460000E94F401EC2FF0E0EE0FFF1FE957FF4F61
:10047000A591B491EC91ED2381E090E009F480E046
:10048000DF91CF91089580E090E0FACF1F93CF9352
:10049000DF93282F30E0F901EE58FF4F8491F901E6
:1004A000E155FF4FD491F901E556FF4FC491CC239C
:1004B000A9F0162F81110E94F401EC2FF0E0EE0F4D
:1004C000FF1FEF56FF4FA591B4918FB7F894EC91B1
:1004D000111108C0D095DE23DC938FBFDF91CF913F
:1004E0001F910895DE2BF8CF9091000189130BC066
:1004F000E6E8F0E0E4919FEF90930001E13049F0ED
:1005000028F0E23061F060E00C94460210926E0038
:10051000FACF90916F009D7F90936F00F4CF9091F0
:1005200070009D7F9093700091E09093B000909147
:10053000B100987F94609093B1001092B300E3CF24
:10054000CF93DF9390E0FC01E155FF4F2491855656
:100550009F4FFC0184918823C9F090E0880F991F78
:10056000FC01E859FF4FA591B491FC01EF56FF4FF4
:10057000C591D49161110DC09FB7F8948C912095CD
:1005800082238C938881282328839FBFDF91CF917A
:100590000895623051F49FB7F8943C91822F809572
:1005A00083238C93E8812E2BEFCF8FB7F894EC91B7
:1005B0002E2B2C938FBFEACF0F931F93CF93DF93F4
:1005C000EC01162F042F1B821A8288EE93E0A0E024
:1005D000B0E08C839D83AE83BF838BE391E09983EE
:1005E00088831F8A1E8A198E188E1B8E1A8E1D8E66
:1005F0001C8E6E8D6E7F6D7F6E8F6695617081E053
:100600006827842F0E94460261E0802F0E94A0028A
:10061000802F90E0FC01E155FF4FE491E88BFC0155
:10062000E556FF4FE491F0E0EE0FFF1FEF56FF4F4E
:10063000859194919A8B898B60E0812F0E94A00212
:100640008E8D81FD04C061E0812F0E9446021C87CF
:10065000812F90E0FC01E155FF4FE491ED87FC0113
:10066000E556FF4FE491F0E0EE0FFF1FE957FF4F13
:10067000859194919F878E87DF91CF911F910F91E4
:1006800008958091DF049091E00497FD08C061E037
:100690000E94A00260E08091DF040E94460281E097
:1006A0008093DA0408953FB7F8948091C402909142
:1006B000C502A091C602B091C70226B5A89B05C08D
:1006C0002F3F19F00196A11DB11D3FBFBA2FA92FD1
:1006D000982F8827BC01CD01620F711D811D911DCE
:1006E00042E0660F771F881F991F4A95D1F708953A
:1006F000CF92DF92EF92FF920F931F93CF93DF93EE
:10070000CDB7DEB729970FB6F894DEBF0FBECDBFC9
:100710008091E2049091E304892B09F480C0C09099
:10072000E804D090E904E090EA04F090EB040E9421
:1007300053036C157D058E059F0550F40E945303ED
:100740006093E8047093E9048093EA049093EB04C7
:100750000E9453030091E8041091E9042091EA04F7
:100760003091EB04601B710B820B930B6C32714068
:1007700081059105A0F2F8948091DD049091DE044A
:100780009A838983E091E204F091E304DF011196FA
:10079000808189879091D904E091EC04F091ED0477
:1007A0008091EE04992309F449C09081982B988791
:1007B0009081809589238F838F818C8388E08B83C0
:1007C00058856F8149853B812C8189819A8150832D
:1007D00047FD252F3A952083262F39F0441F00C06E
:1007E00000006083000000C0F2CF38E04D916083CC
:1007F0000000019761F7F093ED04E093EC04498762
:100800003B832C839A83898378940E94530360935B
:10081000E8047093E9048093EA049093EB0429962A
:100820000FB6F894DEBF0FBECDBFDF91CF911F9101
:100830000F91FF90EF90DF90CF9008959081982BCB
:1008400098879081809589238F838F818E8388E01C
:100850008D8358856F8149853D812E8189819A815B
:10086000508347FD252F00C000C0208300C000C07A
:1008700000C000C000C060830000262F3A9541F000
:10088000441F000000C000C000C000C000C0E8CF8E
:1008900038E04D9100C0608300C0019709F7F093E4
:1008A000ED04E093EC0449873D832E83ABCF8F9218
:1008B0009F92AF92BF92CF92DF92EF92FF926B0125
:1008C0007C010E9453034B015C01C114D104E1047B
:1008D000F104B9F00E945303681979098A099B0948
:1008E000683E73408105910580F321E0C21AD1086A
:1008F000E108F10888EE880E83E0981EA11CB11C67
:10090000E4CFFF90EF90DF90CF90BF90AF909F909B
:100910008F9008952FB7F8946091C0027091C10232
:100920008091C2029091C3022FBF08950F931F932D
:1009300080917A0490917B04DC01ED91FC9100841C
:10094000F185E02D0995892B09F4D7C060E070E0AE
:10095000CB010E9457042091980480917A049091D1
:100960007B04DC01ED91FC910284F385E02D2111E3
:100970000BC00995809384048E37D1F6809198043A
:100980008F5F80939804D4CF099590919804E92FB4
:10099000F0E0E658FB4F82879230B9F09930D9F0F9
:1009A0009130A9F48F3F99F01092980481E08093E0
:1009B0009A0410929D0410929C0480939E041092BD
:1009C0009F0480E01F910F910895863069F79F5F23
:1009D00090939804ADCF8F3E39F720918604809193
:1009E0008504280F3327331FE0918704C9018E0F38
:1009F000911D20918804280F392F311D40918904C1
:100A000050E0240F351F80918A0490E060918B04A0
:100A100070E0762F6627F0918C046F0F711D280F00
:100A2000391F3195219531096217730709F0BCCF41
:100A300010929804E13419F410929F042FC0E093AF
:100A40009B04542F4427840F951F90939D048093FB
:100A50009C04EA53E63108F046C0F0E0EE5CFA4F41
:100A60000C9412215F056705710548057105510554
:100A70006F057305710571057105710571057105C6
:100A800071057105730571057105710571057105B4
:100A900085E080939A0481E080939E0480919E0477
:100AA00091CF80FF02C089E0F4CF81FF02C084E0D3
:100AB000F0CF83709927892B89F38AE0EACF80FFF2
:100AC00002C087E0E6CF81FFE9CF82E0E2CF80FF7E
:100AD00002C088E0DECF81FFE1CF83E0DACF86E09D
:100AE000D8CF8BE0D6CF81E080939A0410929D04FA
:100AF00010929C0480939E049FCF80919F04882332
:100B000069F20E948A0400917C0410917D04209176
:100B10007E0430917F04601B710B820B930B00915C
:100B20008004109181042091820430918304601725
:100B300071078207930708F4B1CF109298041092BE
:100B40009A0410929D0410929C0481E036CF809309
:100B50009104272F30E070939304609394044091A4
:100B6000900490918F04490F5527551F840F952F9E
:100B7000911D40919204840F911D820F931F680F65
:100B8000792F711D7195619571097093950460932A
:100B90009604442361F080919F04882341F060E033
:100BA00070E0CB010E9457040E949604F4CF80911C
:100BB0007A0490917B04DC01ED91FC910280F38139
:100BC000E02D4AE050E06EE874E009950E948A0446
:100BD00060937C0470937D0480937E0490937F04E3
:100BE0008091920491E0811101C090E090939F0464
:100BF000811106C06AE070E080E090E00C94570438
:100C000008952091DD023091DE022817390771F432
:100C10009091DB028091DC02981741F0E091DB02B9
:100C2000F0E0E158FD4F808190E008958FEF9FEF55
:100C300008950895EF92FF920F931F93CF93DF9340
:100C4000DC015C96ED90FC905D97E114F10479F481
:100C500081E090E013969C938E93129790E080E051
:100C6000DF91CF911F910F91FF90EF9008955196D2
:100C7000ED91FC91529750968C915097982F9095AA
:100C80000FB75E962C915E97122F127021FD609522
:100C9000F8942081112319F1282B2083E701219753
:100CA000F1F728E0462F50E0308160FF1AC0382B62
:100CB0003083E7012197F1F7BA01759567952150C7
:100CC00089F7112381F08081892380830FBF5C968F
:100CD0008D919C910197F1F781E090E0C1CF29239C
:100CE000DCCF3923E5CF9081892BEFCF2091DD0236
:100CF0003091DE022817390771F48091DC022091CF
:100D0000DB0290E0805C9F4F821B910960E470E001
:100D10000E94FE20089590E080E008952091DD0279
:100D20003091DE0228173907B9F49091DB028091E7
:100D3000DC02981789F0E091DB02F0E0E158FD4F0A
:100D400080812091DB0230E02F5F3F4F2F733327EC
:100D50002093DB0290E008958FEF9FEF0895FC0150
:100D60008BE391E0918380838091DD029091DE029C
:100D7000E817F90759F4A389B4899C91858980956E
:100D800089238C931092DE021092DD020895209147
:100D90003502260F3327331F21323105ECF4209121
:100DA0005902FC0190E080E0243069F082E008956F
:100DB000A09135022191AC014B5E5D4FA40FB52F80
:100DC000B11D2C930196861798F380913502680F18
:100DD0006093350280E0089581E0089510925902F1
:100DE00081E080935B0210925A0261E082E10E94EE
:100DF000460261E083E10E944602E9EBF0E0808177
:100E00008E7F808380818D7F808388E48093B8008B
:100E100085E48093BC000895CF93DF9391E0909395
:100E200014028823B9F0C091B800D091BA00809123
:100E3000BC008A7B8093BC0060E082E10E94460295
:100E400060E083E10E9446020E94EE06D093BA0061
:100E5000C093B800DF91CF910895E0915303809142
:100E60005203E81730F4F0E0E151FE4F808190E04A
:100E700008958FEF9FEF089590915303809152034F
:100E80002FEF3FEF981748F4E92FF0E0E151FE4FC4
:100E9000208130E09F5F90935303C90108958091B2
:100EA000520390915303891B990B0895CF92DF92BF
:100EB000EF92FF920F931F93CF93DF937C01CB01AF
:100EC0008A012091EE01222389F0EB016B01C40E0F
:100ED000D51ECC15DD0569F06991D701ED91FC9126
:100EE0000190F081E02DC7010995F3CF642F0E9496
:100EF000C706C801DF91CF911F910F91FF90EF902E
:100F0000DF90CF900895CF93DF931F92CDB7DEB7D8
:100F100069832091EE012223F9F0209150032032C1
:100F200058F021E030E0FC013383228390E080E040
:100F30000F90DF91CF91089580915103E82FF0E059
:100F4000E253FE4F998190838F5F8093510380938A
:100F5000500381E090E0ECCF61E0CE0101960E9469
:100F6000C706F7CFCF92DF92EF92FF920F931F93B6
:100F7000CF93DF93FC01C48121E02093EE01C09365
:100F8000CD0110925103109250038385682B81EF9D
:100F900093E00E948307D0915003D13208F092C0B1
:100FA0000E9453036B017C0180915902811165C03D
:100FB00082E08093590281E080935B028FEF8093FF
:100FC000580210927D02D0937C02AEECB1E0ECE5C9
:100FD000F2E080E0D81385C010927E0280917E02FC
:100FE000CC0FC82BC0937E0280915A02813009F049
:100FF0007CC010925A020E9453036B017C018091C5
:101000007E028093BB008091100290911102A0910A
:101010001202B0911302892B8A2B8B2B99F00E941C
:10102000530300911002109111022091120230918D
:1010300013026C197D098E099F09061717072807E7
:101040003907E0F18091BC0083FDD9CF85EC809316
:10105000BC000E9453036B017C01809159028230D5
:1010600009F445C0809158028F3F61F18091580288
:10107000803241F18091580225C0809110029091F8
:101080001102A0911202B0911302892B8A2B8B2B93
:1010900009F48ACF0E9453030091100210911102AB
:1010A00020911202309113026C197D098E099F095B
:1010B000061717072807390708F076CF80910F0227
:1010C0000E940C0710925103109250031092EE01EF
:1010D000DF91CF911F910F91FF90EF90DF90CF9014
:1010E00008959D9191938F5F75CF85EEB0CF8091DC
:1010F000100290911102A0911202B0911302892B5B
:101100008A2B8B2B09F4A9CF0E9453030091100264
:101110001091110220911202309113026C197D0975
:101120008E099F09061717072807390708F095CF7A
:10113000C5CF089590E080E00895FC01EE0FFF1FF9
:10114000E05DFC4F20813181232B39F421E030E038
:101150003183208361E00C94A0020895682F84E518
:1011600093E00C9487010F931F93CF93DF938B0130
:10117000D82FC92F82E00E94AE08C801AD2FBC2F26
:101180008093C8019093C901A093CA01B093CB0189
:101190000E94AE08812F0E94AE088D2F0E94AE08DB
:1011A0008C2FDF91CF911F910F910C94AE0842E0EC
:1011B00050E069E771E084E593E00C94E7008FEF7D
:1011C0000E94AE0885E50E94AE080C94D7088FEF08
:1011D0000E94AE0885E50C94AE088F929F92AF9264
:1011E000BF92CF92DF92EF92FF920F931F93CF9314
:1011F000DF93C091EF028091CC04882309F0F8942A
:101200001092C7041092C8041092C9041092CA0424
:101210001092CB0461E08C2F0E94A00260E08C2F22
:101220000E94460262E170E080E090E00E94570474
:1012300060E08C2F0E94A0028BE990E00197F1F70B
:1012400000E911E08C2F0E941D02892B09F062C079
:1012500001501109B9F78EEF9FEF2091CC042223A2
:1012600009F07894892B09F49EC080E090ECA9E7FE
:10127000B4EC8093BF049093C004A093C104B093D6
:10128000C2048093C3049093C404A093C504B09394
:10129000C6048090C3049090C404A090C504B0908C
:1012A000C604C090BF04D090C004E090C104F09088
:1012B000C20462E370E080E090E00E9457048091F5
:1012C0002D03882359F00E94E708C501B4010E944C
:1012D000B30883E10E94AE080E94D70880912E03D4
:1012E000882309F4AFC00E94E708C701B6010E9435
:1012F000B30882E10E94AE08DF91CF911F910F9158
:10130000FF90EF90DF90CF90BF90AF909F908F9025
:101310000C94D70800E911E08C2F0E941D02019760
:1013200021F401501109C1F796CF18E2D0E800E08E
:1013300090E9E92EFF24F3948C2F0E941D02892B43
:1013400029F481E0E81AF108B9F785CF0E94530328
:101350006B017C0180E9A82EBB24B3948C2F0E94E2
:101360001D02019729F481E0A81AB108B9F773CFDB
:101370000E9453036C197D098E099F09693271051A
:101380008105910538F0E02FF0E0E154FB4F8085B6
:101390008D2B8087D69511F40F5FD0E8115041F660
:1013A00090E080E05ACF6091C80470E090E080E067
:1013B0000E941A1E2DEC3CEC4CEC5DE30E94791E61
:1013C0006B017C016091C70470E090E080E00E94B6
:1013D0001A1E9B01AC01C701B6010E94CA1F60938F
:1013E000BF047093C0048093C1049093C204C09161
:1013F000C9046091CA0470E090E080E00E941A1E67
:101400002DEC3CEC4CEC5DE30E94791E6B017C0101
:101410006C2F6F7770E090E080E00E941A1E9B01B5
:10142000AC01C701B6010E94CA1FC7FD09C0609385
:10143000C3047093C4048093C5049093C60429CF59
:101440009058F5CFDF91CF911F910F91FF90EF90C2
:10145000DF90CF90BF90AF909F908F9008954F9264
:101460005F926F927F928F929F92AF92BF92CF9234
:10147000DF92EF92FF920F931F93CF93DF9300D0F1
:10148000CDB7DEB78C0149832A83660F771FF80139
:10149000EA5AFF4FE080F180EE0CFF1CF801CF010B
:1014A000801B910B8E159F0514F41192F8CF898142
:1014B000F801E60FF71F81838A818083680184E544
:1014C000C80ED11C60E0F60180810E9446025801DE
:1014D000F2E5AF0EB11C480180E5880E911C1E1488
:1014E0001F040CF5E1E0EE1AF108F801EE0DFF1D06
:1014F0006080F5015080F401408088E0782E662DF0
:10150000661F6627661F842D0E944602660C61E0F6
:10151000852D0E94460260E0852D0E9446027A9445
:101520007110EDCFDCCF61E0F60180810F900F905C
:10153000DF91CF911F910F91FF90EF90DF90CF90AF
:10154000BF90AF909F908F907F906F905F904F90E3
:101550000C944602262F4091780450917904141679
:10156000150664F4FC01EE5DFB4F608B41E0480F13
:1015700070E060E082E294E00C942F0A08952091DC
:1015800078043091790412161306DCF420E830E078
:1015900002C0359527956A95E2F7FC01EE5DFB4F99
:1015A0005089442359F0252B208B41E0480F208996
:1015B00070E060E082E294E00C942F0A20952523ED
:1015C000F3CF0895CF92DF92EF92FF921F93CF93C4
:1015D000DF937C016B01EB0183E0CC0FDD1F8A956B
:1015E000E1F76096CE0DDF1D11E0199220E0412F4A
:1015F000B601C7010E942F0A1F5F1930B1F7DF91B2
:10160000CF911F91FF90EF90DF90CF9008958F9230
:101610009F92AF92BF92CF92DF92EF92FF920F9381
:101620001F93CF93DF938C01D62EC72EEC01C05BA6
:10163000DF4F688379834C0182E5880E911CF401A9
:10164000518340835801F4E5AF0EB11CF50131839D
:1016500020837801F6E5EF0EF11C81E090E0F701C0
:101660009183808361E08D2D0E94A00261E0F401EE
:1016700080810E94A00261E0F50180810E94A002A9
:1016800061E0F50180810E944602D882C982F8019A
:1016900070961192EC17FD07E1F7D0E0C0E0F7017A
:1016A00080819181C817D90784F520E04FE0BE0101
:1016B000C8010E942F0AF70180819181C817D907BC
:1016C00034F427E04BE0BE01C8010E942F0A20E05D
:1016D00049E0BE01C8010E942F0AF7018081918173
:1016E000C817D90724F4BE01C8010E94E20AF70115
:1016F00080819181C817D90734F420E04CE0BE0105
:10170000C8010E942F0A2196CACFDF91CF911F9165
:101710000F91FF90EF90DF90CF90BF90AF909F9090
:101720008F9008950F931F93CF938C01C62F0E9423
:10173000B2076C2F6460C8010E94B2076C2F6B7FE8
:10174000C8010E94B20783EC90E00197F1F7CF91B6
:101750001F910F9108950F931F93CF93DF938C01E7
:10176000D62FC42F607F642B0E94920B80E1D89FFC
:10177000B00111246C2BC801DF91CF911F910F9103
:101780000C94920B40E061E08DEC94E00E94AB0B76
:101790008BE39FE10197F1F70895CF93DF931092C8
:1017A00053031092520310925103109250030E945F
:1017B000EE068EE890E090934F0380934E038FE8FF
:1017C00090E090934D0380934C031092D20480914B
:1017D000D704823018F098E09093D2048093D50417
:1017E00062E370E080E090E00E9457046091D804CA
:1017F0008DEC94E00E94B20768EE73E080E090E028
:101800000E94570460E38DEC94E00E94920BCBE4BD
:10181000D6E4CE010197F1F760E38DEC94E00E94ED
:10182000920B2197F1F760E38DEC94E00E94920B0C
:1018300083E592E00197F1F760E28DEC94E00E947D
:10184000920B6091D204606240E08DEC94E00E94C3
:10185000AB0B84E08093D30440E06CE08DEC94E02B
:101860000E94AB0B0E94C20B82E08093D40440E044
:1018700066E08DEC94E00E94AB0B40E062E08DEC02
:1018800094E00E94AB0B8BE39FE10197F1F7DF91AE
:10189000CF9108950E94CD0B88E08093D80460E03A
:1018A0008DEC94E00E94B2070C94C20B41E00E94C0
:1018B000AB0B81E090E00895CF92DF92EF92FF9220
:1018C0000F931F93CF93DF93EC016B018A01198271
:1018D00018861F86188A198A1A8A81E08E878B8754
:1018E0001C8692E09D8788837B01EE0CFF1CE60E30
:1018F000F71EFD82EC82C7010E941F219A8789870B
:10190000009779F1A70170E060E00E940A23DB8272
:10191000CA821F830E838981882341F061E0802F72
:101920000E94A00260E0802F0E944602F801E55666
:10193000FF4FE491F0E0EE0FFF1FEF56FF4F859150
:1019400094919C8B8B8BF801E155FF4FE491ED8BCB
:10195000DF91CF911F910F91FF90EF90DF90CF908B
:1019600008951D821C821B821A82D3CFFC018081C4
:101970009181009711F00C94BB2108950F931F9350
:10198000CF93DF93EC0188819981009759F02A81E8
:101990003B812617370730F081E0DF91CF911F910F
:1019A0000F9108958B016F5F7F4F0E944422009733
:1019B00059F0998388831B830A832C813D81232BD3
:1019C00059F7FC011082E8CF80E0E7CFEF92FF9259
:1019D0000F931F93CF93DF93EC017B018A01BA0130
:1019E0000E94BE0C28813981811114C02115310556
:1019F00019F0C9010E94BB21198218821D821C8224
:101A00001B821A82CE01DF91CF911F910F91FF901F
:101A1000EF9008951D830C83B701C9010E94112323
:101A2000F1CFFB0101900020E9F73197AF01461B90
:101A3000570B0C94E60CAF92BF92CF92DF92EF92CD
:101A4000FF920F931F93CF93DF9300D0CDB7DEB7F4
:101A50008C016B017A01FC011182108213821282C7
:101A60001582148250E040E06BE771E00E94E60CC2
:101A7000C7018F509D4F5C01CE0CDF1CC501815FFB
:101A800092408C159D050CF5F50181915F018983CC
:101A90001A82F801E480F580FFEFEF1AFF0AB70120
:101AA000C8010E94BE0C882349F3F80120813181CE
:101AB00084819581BE016F5F7F4F820F931F0E94CB
:101AC0001123F801F582E482D9CFC8010F900F905D
:101AD000DF91CF911F910F91FF90EF90DF90CF900A
:101AE000BF90AF90089585ED8093BC008091100267
:101AF00090911102A0911202B09113020796A11DBC
:101B0000B11D23E0B695A795979587952A95D1F7AE
:101B10002091BC0024FD03C0109259020895409109
:101B20001002509111026091120270911302452B24
:101B3000462B472B69F30097A105B10541F025E33A
:101B40002A95F1F700000197A109B109E1CF809131
:101B50000F020C940C071F920F920FB60F921124D4
:101B60002F933F934F935F936F937F938F939F93A5
:101B7000AF93BF93EF93FF938091CF029091D002E8
:101B8000A091D102B091D202892B8A2B8B2BD1F15B
:101B90009091CA02E091CB02F091CC02808189271A
:101BA00080838091CF029091D002A091D102B09118
:101BB000D202181619061A061B069CF48091CF0251
:101BC0009091D002A091D102B091D2020197A109C7
:101BD000B1098093CF029093D002A093D102B09329
:101BE000D202FF91EF91BF91AF919F918F917F9121
:101BF0006F915F914F913F912F910F900FBE0F907A
:101C00001F901895809100010E947402EACF1F92E4
:101C10000F920FB60F9211242F933F934F935F9320
:101C20006F937F938F939F93AF93BF93EF93FF93A4
:101C300084E593E00E946501FF91EF91BF91AF9120
:101C40009F918F917F916F915F914F913F912F91D4
:101C50000F900FBE0F901F9018951F920F920FB606
:101C60000F9211242F938F939F93EF93FF93E09103
:101C70006403F09165038081E0916A03F0916B0346
:101C800082FD1BC0908180916D038F5F8F732091C7
:101C90006E03821741F0E0916D03F0E0EC5AFC4FC7
:101CA000958F80936D03FF91EF919F918F912F916D
:101CB0000F900FBE0F901F9018958081F4CF1F9248
:101CC0000F920FB60F9211242F933F938F939F93F0
:101CD000AF93BF938091C0029091C102A091C202C4
:101CE000B091C3023091BF0223E0230F2D3758F586
:101CF0000196A11DB11D2093BF028093C002909355
:101D0000C102A093C202B093C3028091C402909119
:101D1000C502A091C602B091C7020196A11DB11DD6
:101D20008093C4029093C502A093C602B093C702E9
:101D3000BF91AF919F918F913F912F910F900FBEC7
:101D40000F901F90189526E8230F0296A11DB11D34
:101D5000D2CF1F920F920FB60F9211242F933F9361
:101D60004F935F936F937F938F939F93AF93BF93A3
:101D7000EF93FF93E091DD02F091DE02309749F09E
:101D8000A685B7858585968D91FF14C09C91892382
:101D9000A1F4FF91EF91BF91AF919F918F917F91AE
:101DA0006F915F914F913F912F910F900FBE0F90C8
:101DB0001F9018959C91892361F7A389B4899C9100
:101DC0008589809589238C93868997890197F1F776
:101DD000608D718DA685B785558538E020E0CB01F3
:101DE0000197F1F7822F90E095958795282F4C91D8
:101DF000452309F02068315091F7868D81FD2095AB
:101E00008091DC0290E001968F7399273091DB027C
:101E1000381799F0A091DC02B0E0A158BD4F2C9387
:101E20008093DC02828D938D0197F1F7A389B489A9
:101E30008C919589892B8C93ACCF868D8160868F10
:101E4000F1CF1F920F920FB60F9211242F933F9351
:101E50004F935F936F937F938F939F93AF93BF93B2
:101E6000EF93FF938091B900887F803609F44AC0D0
:101E7000F0F5883209F4A7C018F5803109F49BC049
:101E8000B8F4882309F4F9C0883009F494C0FF91AC
:101E9000EF91BF91AF919F918F917F916F915F91E2
:101EA0004F913F912F910F900FBE0F901F9018955B
:101EB000883109F488C0803251F78093580214C0E9
:101EC000803409F49DC040F48033B9F38833F9F6C7
:101ED0008093580285ECB0C0803509F485C0883500
:101EE00009F496C0883499F60E94730DD0CF8839D2
:101EF00009F48CC038F5883729F050F4883611F091
:101F0000803729F683E0809359021092570257C018
:101F1000883809F47BC0803919F0803809F0B7CFD0
:101F200080915702803208F071C0E091570281E041
:101F30008E0F809357028091BB00F0E0E95CFD4F6B
:101F400080833DC0803B39F0E0F4803A09F479C0E9
:101F5000883A09F09CCF84E08093590210923602AF
:101F600010923502E0914E03F0914F030995809154
:101F7000350281110FC081E0809335021092150265
:101F800009C0803C09F4A6CF883C09F4A3CF883B64
:101F900009F07DCFE091360281E08E0F809336020A
:101FA000F0E0EB5EFD4F80818093BB0090913602A4
:101FB0008091350229C080917E028093BB0085EC20
:101FC0008093BC0064CF90917D0280917C02981731
:101FD00058F5E0917D0281E08E0F80937D02F0E064
:101FE000E45AFD4F8081E9CFE0917D0281E08E0FC0
:101FF00080937D028091BB00F0E0E45AFD4F808326
:1020000090917D0280917C029817C8F285E8D8CF24
:10201000E0917D0281E08E0F80937D028091BB0074
:10202000F0E0E45AFD4F808380915B0281115CCF28
:1020300081E080935A0284EA8093BC001092590296
:1020400026CF85EC8093BC001092590280915702F4
:10205000803230F4E0915702F0E0E95CFD4F1082ED
:102060006091570270E0E0914C03F0914D0387E3DB
:1020700092E00995109257020ACF1092580234CF7D
:102080001F920F920FB60F9211242F933F934F93ED
:102090005F936F937F938F939F93AF93BF93CF93F0
:1020A000DF93EF93FF938091CC01C0912104D0E0A6
:1020B00087FF24C010928500109284008091CC018B
:1020C0008F5F8093CC018091CC01082E000C990B7E
:1020D0008C179D0724F48091CC018C30C4F1809141
:1020E000840090918500049680349C4908F47AC05D
:1020F0008091840090918500049676C08091CC01F7
:10210000082E000C990B8C179D07C4F6E091CC01AA
:102110008E2FEE0F990BFC01EE0FFF1FE80FF91F3A
:10212000E350FC4F808186FFC9CFE091CC018E2F18
:10213000EE0F990BFC01EE0FFF1FE80FF91FE350A4
:10214000FC4F808160E08F730E944602B7CF2091E0
:10215000840030918500E091CC018E2FEE0F990B19
:10216000FC01EE0FFF1FE80FF91FE350FC4F8181C8
:102170009281820F931F9093890080938800E09151
:10218000CC018E2FEE0F990BFC01EE0FFF1FE80F15
:10219000F91FE350FC4F808186FF11C0E091CC0114
:1021A0008E2FEE0F990BFC01EE0FFF1FE80FF91FAA
:1021B000E350FC4F808161E08F730E944602FF91E3
:1021C000EF91DF91CF91BF91AF919F918F917F91CF
:1021D0006F915F914F913F912F910F900FBE0F9094
:1021E0001F90189580E49CE9909389008093880063
:1021F0008FEF8093CC01E3CFCF92DF92EF92FF92EB
:102200000F931F93E82FF92F05C0015011092109E1
:10221000310961F1908196239417B9F305C00150FB
:1022200011092109310911F1908196239413F7CFF7
:10223000C12CD12CE12CF12C0AC08FEFC81AD80A7E
:10224000E80AF80A0C151D052E053F0579F0808176
:102250008623841791F36C2D7D2D8E2D9F2D1F913C
:102260000F91FF90EF90DF90CF90089560E070E0C5
:1022700080E090E01F910F91FF90EF90DF90CF9062
:102280000895CF93109257031092560388EE93E06F
:10229000A0E0B0E08093580390935903A0935A03B1
:1022A000B0935B032DE431E0309355032093540346
:1022B00025EC30E0309361032093600324EC30E0A0
:1022C000309363032093620320EC30E03093650386
:1022D0002093640321EC30E030936703209366037E
:1022E00022EC30E0309369032093680326EC30E061
:1022F00030936B0320936A0310926D0310926E0368
:1023000010926F03109270031092F4031092F30373
:102310008093F5039093F603A093F703B093F8032B
:102320008FE591E09093F2038093F103E2EFF4E004
:102330002AE035E04FEF68EB7BE0809121048C30A0
:1023400008F091C091E0980F90932104808390E071
:10235000DC01AA0FBB1FA80FB91FA350BC4F1296D8
:102360007C936E93119733962E173F0731F7809128
:1023700021048C3008F079C091E0980F90932104EB
:102380008093EF0490E0FC01EE0FFF1FE80FF91FB0
:10239000E350FC4F88EB9BE09283818347E050E061
:1023A00064E070E089ED94E00E945C0C1092D0042F
:1023B0001092CF0481E791E09093CE048093CD04F6
:1023C00087E28093D10480E18093D604C2E0C09379
:1023D000D7041092D8041092CC041092C304109227
:1023E000C4041092C5041092C6041092BF04109247
:1023F000C0041092C1041092C20440911101609176
:102400000F0180EA94E00E94DC0284EF91E0A0E0FA
:10241000B0E08093800490938104A0938204B093F1
:1024200083048AE0E9E1F1E0AEE8B4E001900D92C6
:102430008A95E1F710929804C093990410929E0433
:1024400010929F0420910D0130910E0140910B01DB
:1024500050910C016091090170910A0182E294E0AF
:10246000CF910C94070B40837ECF8FEF8093EF04C6
:1024700095CFCF93DF93CDB7DEB7C456D1090FB652
:10248000F894DEBF0FBECDBF789484B5826084BD62
:1024900084B5816084BD85B5826085BD85B5816068
:1024A00085BD80916E00816080936E0010928100E6
:1024B00080918100826080938100809181008160A1
:1024C0008093810080918000816080938000809162
:1024D000B10084608093B1008091B00081608093EE
:1024E000B00080917A00846080937A0080917A00B5
:1024F000826080937A0080917A00816080937A0074
:1025000080917A00806880937A001092C100E091F7
:102510006403F091650382E08083E0916003F091B1
:1025200061031082E0916203F091630380E1808394
:1025300010926C03E0916803F091690386E0808358
:10254000E0916603F0916703808180618083E09170
:102550006603F0916703808188608083E091660361
:10256000F0916703808180688083E0916603F09139
:10257000670380818F7D808312E061E0812F0E945C
:10258000A00260E0812F0E9446021F5F1E30A9F763
:102590000E9441030E9478030E944A0C68EC70E09C
:1025A00080E090E00E94570484E593E00E9445019A
:1025B000892B11F40C94A91C84E593E00E94450139
:1025C000181619068CF784E593E00E942301909178
:1025D0002803853589F591112FC0809127038F3FFE
:1025E00029F481E0809326038093280380912603B9
:1025F0008F5F8433C0F5809326038091280388235E
:1026000099F2809125038111CFCF809126038430E8
:1026100058F210922803E091F6020091F702E02EA2
:10262000F12C4091F502423009F4B3C00CF5413071
:1026300041F110922603B8CF809327039923B1F27A
:10264000E0912603E23039F480932503F0E0EF5067
:10265000FD4F8083CBCFE330C8F390912503915099
:1026600090932503F3CF1092260310922803C5CF31
:10267000433011F40C942D1C4430D9F60E94DF082D
:10268000D8CFE13059F4F701EE0FFF1FE05DFC4FAA
:102690008091F80290E091838083CBCFF0E0E73027
:1026A000F10509F040C01091F802812F90E02091CF
:1026B0002F03211129C040932F03F0920801E092CB
:1026C00007019093060180930501F701EE0FFF1FAC
:1026D000E05DFC4F21E030E031832083880F991FBB
:1026E000FC01E05DFC4F3183208361E0802F0E947C
:1026F000A00260E0812F0E94A00262E370E080E00F
:1027000090E00E94570495CF209107013091080175
:10271000E216F30691F62091050130910601281783
:10272000390759F686CF9701220F331FE231F105A1
:1027300061F440932E03F092F002E092EF02205DEC
:102740003C4F81E090E0F901A6CF739721F481E03E
:1027500080932D03F0CF8091070190910801E81636
:10276000F90639F08091050190910601E816F90605
:1027700051F410922F031092290310922A03109201
:102780002B0310922C03205D3C4FF9011182108223
:1027900050CF8091070190910801E816F90639F0B1
:1027A0008091050190910601E816F90651F4109206
:1027B0002F031092290310922A0310922B031092D8
:1027C0002C03E150E13208F059CF0E2E000CFF0B24
:1027D000E451FC4E0C9412210D143E131614451BAB
:1027E0006F143E133E13291C3E133E133E133E133B
:1027F0003E133E133E133E133E133E133E13A516E7
:10280000DF161E175C177D178117E517ED170619E0
:10281000D617D419261B3E133C1BC7010E949D08E6
:102820006091F802802F0E94460228CFC7010E94C3
:102830009D081091F802C12ED12C61E0802F0E94DA
:10284000A002111102C060E0EDCFFFEFCF16D1045E
:1028500011F461E0E7CFF701EE58FF4FE491E33068
:1028600021F148F4E130B9F0E230D1F020E8C216AD
:10287000D1047CF7E8CFE73011F1E83041F1E430E2
:10288000A9F780918000806280938000D0928B00B5
:10289000C0928A00F3CE84B5806884BD17BDEECEA9
:1028A00084B5806284BD18BDE9CE809180008068C7
:1028B00080938000D0928900C0928800DFCE809102
:1028C000B00080688093B0001093B300D7CE8091A1
:1028D000B00080628093B0001093B400CFCEC701E7
:1028E0000E949D088091F8028093C8028091F902AD
:1028F0008093C9028091C8029091C902A1969FAFAE
:102900008EAFA1978091FA028093C8028091FB025A
:102910008093C902E091C802F091C902A596FFAF69
:10292000EEAFA5971E161F060CF00BC2809100019A
:102930000813D2C0E6E8F0E0149117FD9FCE61E0E5
:10294000802F0E94A0021123C9F0A1968EAD9FADE9
:10295000A1972C01712C612C60E072E18AE790E074
:10296000A30192010E94371F69017A0191E0C91AFF
:10297000D108E108F108123009F0A0C1A196EEAD2E
:10298000FFADA1972F01712C612C60E072E18AE705
:1029900090E0A3019F010E94371F49015A017A016B
:1029A0006901F1E0CF1AD108E108F1082FEFC21652
:1029B000D104E104F10409F00CF44FC160E472E4C5
:1029C0008FE090E0A30192010E94371F69017A0114
:1029D00081E0C81AD108E108F108123009F0F3C00B
:1029E00082E09FEFC916D104E104F10409F00CF470
:1029F0006CC060E970ED83E090E0A30192010E9459
:102A0000371F69017A01E1E0CE1AD108E108F10827
:102A100083E0FFEFCF16D104E104F10409F00CF4D8
:102A200054C068E478EE81E090E0A30192010E9436
:102A3000371F69017A0191E0C91AD108E108F1084C
:102A400084E0EFEFCE16D104E104F104F1F1ECF1F2
:102A500064E274EF80E090E0A30192010E94371FCE
:102A600069017A0191E0C91AD108E108F10885E00D
:102A70009FEFC916D104E104F10439F130F162E1AC
:102A80007AE780E090E0A30192010E94371F69017C
:102A90007A01F1E0CF1AD108E108F10886E02FEFC2
:102AA000C216D104E104F10481F078F075016401EB
:102AB0009AE0F594E794D794C7949A95D1F781E07A
:102AC000C81AD108E108F10887E09091B100987F19
:102AD000892B8093B100C8C08F3F09F0CFCD009300
:102AE0000001E6E8F0E014911F3F09F4C7CD113072
:102AF00031F150F0123009F442C017FDBFCD61E052
:102B0000802F0E94A00221CF14BC15BC84B5826026
:102B100084BD85B5816085BDF701E556FF4FE49121
:102B2000F0E0EE0FFF1FEF56FF4F85919491F701F4
:102B3000E155FF4FE491E093CE0210E000CF1092F8
:102B400080001092810080918100886080938100D4
:102B500080918100816080938100F701E556FF4FED
:102B6000E491F0E0EE0FFF1FEF56FF4F8591949137
:102B7000F701E155FF4FE491E093CD02E0CE1092D2
:102B8000B0001092B1008091B00082608093B000DC
:102B90008091B10081608093B100F701E556FF4F4D
:102BA000E491F0E0EE0FFF1FEF56FF4F85919491F7
:102BB0009093CC028093CB02F701E155FF4FE49153
:102BC000E093CA02BCCE2FEFC216D104E104F10497
:102BD00009F00CF471C068E478EE81E090E0A301A4
:102BE00092010E94371F69017A0181E0C81AD10859
:102BF000E108F10884E011113BCF8FEFC816D10432
:102C0000E104F10409F014F483E02AC062E17AE7F8
:102C100080E090E0A30192010E94371F69017A01D0
:102C2000E1E0CE1AD108E108F10884E0FFEFCF1609
:102C3000D104E104F104A1F098F0750164012AE0E7
:102C4000F594E794D794C7942A95D1F721E0C21A56
:102C5000D108E108F10885E003C081E0111135CF0A
:102C600095B5987F892B85BDA1962EAD3FADA197D7
:102C7000220F331FA596AEADBFADA5970E941821B8
:102C800028EE33E040E050E00E94981F1130B9F187
:102C9000123009F446C01111F1CCC7BC2093D70201
:102CA0003093D8024093D9025093DA0280916E009B
:102CB000826080936E00E2CC82E0D0CF91E0C114BC
:102CC000D10421E0E206F10484F068E478EE81E0CA
:102CD00090E0A30192010E94371F69017A0181E00F
:102CE000C81AD108E108F10893E0113009F0BCCF0F
:102CF00080918100887F892B80938100B5CFD0920D
:102D00008900C09288002093D3023093D40240936C
:102D1000D5025093D60280916F00826080936F003D
:102D2000ADCCC092B3002093CF023093D002409339
:102D3000D1025093D2028091700082608093700023
:102D40009DCC802F0E94740299CCC7010E949D08DF
:102D50006091F80270E0A701CE0101960E945C0C20
:102D600086E1FE013196A9EDB4E001900D928A95BD
:102D7000E1F78A859B850E94BB218F81988597FD0D
:102D800003C060E00E94A0020E94410320E040E0F6
:102D900060E090E080E00E94900020E040E060E091
:102DA00081E090E00E94900020E040E060E082E05E
:102DB00090E00E94900020E040E060E09BC08091A5
:102DC000F802FF24F394F80E2091E104F21609F4BE
:102DD00055CC0091E2041091E304215070E060E0D2
:102DE00061F08F3FF1F430E050E040E06FEF7FEFB3
:102DF00080E090E00E94371FB901F8014091DD04A6
:102E00005091DE04CF01801B910B8417950798F435
:102E10004081469FC001479F900D112490833196B9
:102E2000EDCF8F2D90E0982F88270197622F70E0CB
:102E30000E94EA20E2CFF092E10420CC8091F802D7
:102E40006091FA024091FC022091FE0281112EC095
:102E500061112CC041112AC0211128C0C7010E9454
:102E60009D0820E040E060E090E080E00E9490005B
:102E700020E040E060E081E090E00E94900020E0EF
:102E800040E060E082E090E00E94900020E040E0BE
:102E900060E083E090E00E9490000E94780362E38B
:102EA00070E080E090E00E945704E8CB90E00E9440
:102EB00090000E947803E2CB1091F8020091FA0290
:102EC000F090FC022F2D402F612F90E080E00E94B7
:102ED00090002F2D402F612F81E090E00E94900004
:102EE0002F2D402F612F82E090E00E9490002F2D27
:102EF000402F612F83E090E0DACFC7010E949D0848
:102F000045CF0091F80210E010930A0100930901E7
:102F1000C090FA02D12CD0920C01C0920B01E0902B
:102F2000FC02F12CF0920E01E0920D01C8010E940A
:102F30009D08C6010E949D08C7010E949D08970137
:102F4000A601B801CE0101960E94070B88E5FE019B
:102F50003196A2E2B4E001900D928A95E1F780915A
:102F60007804909179041816190644F421E04CE095
:102F700070E060E082E294E00E942F0A2091030159
:102F80003091040180917804909179041816190603
:102F90000CF074CB2031310508F070CB4AE070E0C2
:102FA00060E082E294E00E942F0A68CB809178046E
:102FB00090917904181619060CF060CB70E060E06F
:102FC00082E294E00E94E20A59CB8091F80290E0FC
:102FD000909304018093030151CB6091F80270E05B
:102FE00049E050E0CE01875A9F4F0E941B0D1A8284
:102FF00019821C821B821E821D8250E040E06BE71A
:1030000071E0CE0101960E94E60C0EE010E0B801DE
:10301000CE01875A9F4F0E94D600873309F4A6C07D
:103020000CF083C0833309F49EC00CF073C081336D
:1030300009F493C00CF094C06CE771E0803309F49C
:103040007FC0780117FF03C09FEFE91AF90AF594D2
:10305000E794F194E194F108E7E0EE0EF11CD12C35
:10306000C12CB601CE0101960E94D60041E0813309
:1030700009F040E0B601C7010E94BF0AFFEFCF1A76
:10308000DF0A24E0C216D10461F7B8016F5F7F4FF9
:10309000CE01875A9F4F0E94D600873309F4A4C0FF
:1030A0000CF081C0833309F49CC00CF071C08133F3
:1030B00009F491C00CF092C06CE771E0803309F420
:1030C0007DC0D12CC12CB601CE0101960E94D60044
:1030D000B6016C5F7F4F41E0813309F040E0C701EA
:1030E0000E94BF0A8FEFC81AD80A94E0C916D1040B
:1030F00051F7025011090E3FEFEF1E0709F087CF7D
:10310000CE0101960E94B60CCE01875A9F4F0E94B5
:10311000B60CB4CA65E971E0853391F060E971E0FD
:10312000863374F06AE971E00BC0823641F16CF4C9
:10313000893311F1F4F06EEA71E0813609F081CF44
:10314000CE0101960E94110D7CCF8436F1F0D4F0AF
:1031500062EC71E08536A1F374CF61E871E0F0CFE5
:1031600066E871E0EDCF6BE871E0EACF6FE971E0FE
:10317000E7CF64EA71E0E4CF69EA71E0E1CF63EBA5
:1031800071E0DECF68EB71E0DBCF6DEB71E0D8CFA3
:1031900065E971E0853391F060E971E0863374F0A0
:1031A0006AE971E00BC0823641F16CF4893311F1A8
:1031B000F4F06EEA71E0813609F083CFCE0101961A
:1031C0000E94110D7ECF8436F1F0D4F062EC71E0F4
:1031D0008536A1F376CF61E871E0F0CF66E871E063
:1031E000EDCF6BE871E0EACF6FE971E0E7CF64EA19
:1031F00071E0E4CF69EA71E0E1CF63EB71E0DECF2B
:1032000068EB71E0DBCF6DEB71E0D8CF8091F80215
:10321000833009F46EC00CF5813009F441C082306E
:1032200009F02CCA66E690E080E00E94AA0A69E9EB
:1032300081E090E00E94AA0A61E882E090E00E94AA
:10324000AA0A61E883E090E00E94AA0A62E484E0AE
:1032500090E00E94AA0A64E23DC0853009F484C06F
:103260000CF467C0863009F009CA60E090E080E0A5
:103270000E94AA0A68E081E090E00E94AA0A64E045
:1032800082E090E00E94AA0A6EE783E090E00E944C
:10329000AA0A64E084E090E00E94AA0A68E07EC086
:1032A00066E690E080E00E94AA0A6FEF81E090E07D
:1032B0000E94AA0A6FEF82E090E00E94AA0A6FEFD4
:1032C00083E090E00E94AA0A6EE784E090E00E940A
:1032D000AA0A6CE385E090E00E94AA0A68E186E011
:1032E00090E00E94AA0A60E087E090E00E94AA0AAB
:1032F000C5C960E090E080E00E94AA0A60E181E038
:1033000090E00E94AA0A68E382E090E00E94AA0A84
:1033100064E583E090E00E94AA0A60E184E090E026
:103320000E94AA0A60E185E090E00E94AA0A60E19A
:10333000D6CF60E090E080E00E94AA0A60E181E0E0
:1033400090E00E94AA0A60E182E090E00E94AA0A4E
:1033500060E183E090E00E94AA0A64E584E090E0E6
:103360000E94AA0A68E3DFCF60E090E080E00E945C
:10337000AA0A60E181E090E00E94AA0A60E282E08D
:1033800090E00E94AA0A6EE783E090E00E94AA0AF9
:1033900060E284E090E00E94AA0A60E185E090E0AB
:1033A0000E94AA0A60E09BCFF090F8028F2D90E077
:1033B0009093100180930F01E090FA020E2D10E01F
:1033C00010931201009311010E949D08C8010E94F0
:1033D0009D084E2D6F2DCE0101960E94DC028B813F
:1033E0009C819093A3048093A2048D819E81AF81E0
:1033F000B8858093A4049093A504A093A604B093E9
:10340000A70489859A85AB85BC858093A804909391
:10341000A904A093AA04B093AB048D858093AC0457
:103420008E858093AD048F8598899093AF048093A7
:10343000AE0489898093B0048A899B899093B204F1
:103440008093B1048C899D899093B4048093B304D4
:103450008E898093B5048F89988D9093B70480935B
:10346000B604898D9A8D9093B9048093B8048B8D9E
:103470009C8D9093BB048093BA048D8D9E8D909308
:10348000BD048093BC049F8D8091BE0490FB80F9A5
:1034900091FB81F98093BE04CE0101960E94AF0694
:1034A0001092BB041092BA041092B9041092B8049E
:1034B0001092B7041092B6048DE991E09093BD0488
:1034C0008093BC042091AC04263108F047C08DEBFA
:1034D00090E09093B7048093B6048BE991E09093C9
:1034E000B9048093B8048CE291E09093BB0480937C
:1034F000BA049091680084E0283048F031E02E3022
:1035000008F430E081E001C0880F3A95EAF7892B92
:10351000809368008DE690E0283050F08BE690E0D4
:103520002E3030F08CE690E0263110F090E080E014
:103530009093B4048093B304822F90E0283008F075
:1035400063C081E001C0880F2A95EAF78093B50433
:103550008091BC049091BD040197F1F78091BA0469
:103560009091BB04892B49F1E091DD02F091DE02DC
:1035700024E0E03AF20709F1309739F0A389B489E1
:103580009C918589809589238C938091BE048E7F40
:103590008093BE041092DC021092DB0280EA94E079
:1035A0009093DE028093DD02E091B304F091B404C5
:1035B00080819091B504892B808380EA94E0909378
:1035C0007B0480937A0481E08093920470E060E051
:1035D0008CE00E94A7050E948A046B017C010E9476
:1035E000960481111BC00E948A046C197D098E0902
:1035F0009F09613D77408105910580F460E070E0AE
:10360000CB010E945704EBCF2E3020F49C012850B0
:10361000310997CF9C012E50310993CF68EC70E0AF
:1036200080E090E00E94570410929E048FE090E0AA
:1036300090930201809301016FE070E086E00E94A8
:10364000A7056AE070E080E090E02DCC6091010178
:1036500070910201772786E00E94A7056AE070E07A
:1036600080E090E00E9457046091FA0270E083E0ED
:103670000E94A7050C943E138091FA0290E090936B
:103680000201809301010C943E13C7010E949D0822
:10369000B090F802F4EBFB1510F40C943E13EFED30
:1036A000F2E090E080E021913191E216F30651F0D2
:1036B000232B09F0C6C0FC01EE0FFF1FE152FD4FA6
:1036C000F182E082FC01EE0FFF1FE80FF91FEE50C0
:1036D000FB4F8081218192818093EF042093F0043D
:1036E0009093F1048C3008F053C061E0802F0E9469
:1036F000A0028091EF04282F30E0F901EE0FFF1FA8
:10370000E20FF31FE350FC4F902F9F730081007C6A
:10371000092B00831092F0041092F1042CE0622F28
:103720000E94DE20829FB001112430E020E0AB0136
:10373000420F531FFA01EE0FFF1FE40FF51FE35076
:10374000FC4F908196FD16C02F5F3F4F2C30310506
:1037500071F781110FC01092800082E08093810088
:103760001092850010928400B19A80916F0082605F
:1037700080936F00E091EF048E2F90E0FC01EE0F3C
:10378000FF1FE80FF91FE350FC4F808180648083A6
:10379000F090EF048091F104B8E5CB2EB2E0DB2E7F
:1037A000C81AD10887FDD394CC0CDD1CCC0CDD1CD1
:1037B0008091F00408E810E0081B110987FD1395BB
:1037C000000F111F000F111F2801012E000C6608A9
:1037D000770896010D2C000C440B550B2419350964
:1037E00046095709AB2DB0E00E94561F24EB30E08C
:1037F00040E050E00E94371F420E531E641E751EAB
:103800002BE02F1510F40C943E13401651062CF0AB
:1038100086014C145D040CF4820102501109000F62
:10382000111F2FB7F8948F2D90E0FC01EE0FFF1FB2
:10383000E80FF91FE350FC4F128301832FBF0C9454
:103840003E1301968830910509F02DCF90E080E07D
:1038500039CF0E948A040C943E13EC3009F448C01E
:10386000E131E9F0EB30F1F51091F8020091FA0244
:10387000F090FC026F2D70E04DE050E0CE01875AD1
:103880009F4F0E941B0DF11036C00E94CD0B0E946D
:10389000C20BCE01875A9F4F0E94B60C23C0809165
:1038A000FC029091FA022091F8021092D00410923A
:1038B000CF0421111BC027E22093D1042E81209335
:1038C000D2042F812093D30428852093D404298502
:1038D0002093D5049093D6048093D7041092D804F3
:1038E0000E944A0C0E94DF080C943E132FE3E4CFA1
:1038F0000E94C20BF7CF88E0E3E2F1E0DE0111960F
:1039000001900D928A95E1F78091D504811710F40A
:103910001FEF180FE12FF0E0EE0FFF1F81E090E0A6
:103920008C0F9D1FE80FF91F6081600F606840E0F9
:103930008DEC94E00E94AB0B6F964EAD5FAD6F9730
:103940006B966EAD7FAD6B978DEC94E00E94E700B7
:10395000A0CF6FE070E080E090E00E94570404E3A5
:1039600013E062E0F62EF801819191918F010097AA
:1039700021F00297E9F462E001C060E08F2D0E941F
:10398000A0020E94E7088F2D0E941D02BC01990F22
:10399000880B990B0E941A1E0E94B3088F2D0E945B
:1039A000AE0881E00E94AE080E94D7080E94DF089E
:1039B000F394FEE0FF12D7CF5BE2C52E51E0D52E87
:1039C00010E0F601819191916F01892B09F070C08F
:1039D00044E1E42EF12C01E0712E689476F87092A7
:1039E0007C0080917A00806480937A0080917A00D4
:1039F00086FDFCCF8091780060917900762F682F4A
:103A0000072E000C880B990B0E941A1E4B015C01BB
:103A1000002339F0A2966FAFA297A3969FAEA3970B
:103A20001C012DEC3CEC4CEC5DE3A2966FADA29733
:103A3000A3967FADA397C1010E94791E1B012C01A3
:103A400026E636E646E65FE3B401C5010E94791E2C
:103A50009B01AC01C201B1010E94CA1FA2966FAFC7
:103A6000A297A3967FAFA3971C01F1E0EF1AF1088C
:103A700000E009F0B4CF0E94E708A2966FADA297CC
:103A8000A3967FADA397C1010E94A820072E000C2A
:103A9000880B990B0E941A1E0E94B308812F0E9466
:103AA000AE0882E00E94AE080E94D7080E94DF089C
:103AB0001F5F163009F085CF80912F03882309F40A
:103AC0006FC01091070160E0812F0E94460283E0E1
:103AD00090E00197F1F761E0812F0E94460283E2B6
:103AE00090E00197F1F760E0812F0E9446028091FB
:103AF0000501909106019927FC01E155FF4F649162
:103B0000FC01E556FF4FE491F0E0EE0FFF1FE9578F
:103B1000FF4F8591949100E315E720E030E0462FB8
:103B20000E94FC10611571058105910529F06F5FF8
:103B30007F4F8F4F9F4F9F700E94181E20E030E0F4
:103B400048EE51E40E94362020E030E040E05FE3A0
:103B50000E94791E6B017C0120E030E0A9010E94E7
:103B6000131E811143C0C0902903D0902A03E09016
:103B70002B03F0902C030E94E708C701B6010E94B6
:103B8000B308809107010E94AE08809105010E9450
:103B9000AE0887E00E94AE080E94D7080E94DF08A6
:103BA00080912E03882321F00E94ED080E94DF08F7
:103BB00080912D03882321F00E94ED080E94DF08E8
:103BC0006AE070E080E090E00E94570480E090E0BE
:103BD000892B11F40C94D4120E945101882311F402
:103BE0000C94D4120E9400000C94D412C0922903A9
:103BF000D0922A03E0922B03F0922C03BCCF80EAF0
:103C000094E00E94AF068091E2049091E3040E9448
:103C1000BB218091DF049091E00497FD03C060E038
:103C20000C94A00208950E94551E08F481E00895A6
:103C3000E89409C097FB3EF4909580957095619546
:103C40007F4F8F4F9F4F9923A9F0F92F96E9BB27FC
:103C50009395F695879577956795B795F111F8CF78
:103C6000FAF4BB0F11F460FF1BC06F5F7F4F8F4FE3
:103C70009F4F16C0882311F096E911C0772321F0D9
:103C80009EE8872F762F05C0662371F096E8862F71
:103C900070E060E02AF09A95660F771F881FDAF7C8
:103CA000880F9695879597F90895990F0008550FF5
:103CB000AA0BE0E8FEEF16161706E807F907C0F0B2
:103CC00012161306E407F50798F0621B730B840BBA
:103CD000950B39F40A2661F0232B242B252B21F494
:103CE00008950A2609F4A140A6958FEF811D811D34
:103CF00008950E948C1E0C94FD1E0E94EF1E38F049
:103D00000E94F61E20F0952311F00C94E61E0C94F0
:103D1000EC1E11240C94311F0E940E1F70F3959F0E
:103D2000C1F3950F50E0551F629FF001729FBB27B2
:103D3000F00DB11D639FAA27F00DB11DAA1F649F4E
:103D40006627B00DA11D661F829F2227B00DA11D01
:103D5000621F739FB00DA11D621F839FA00D611D87
:103D6000221F749F3327A00D611D231F849F600DA8
:103D7000211D822F762F6A2F11249F5750409AF0D1
:103D8000F1F088234AF0EE0FFF1FBB1F661F771F5D
:103D9000881F91505040A9F79E3F510580F00C9428
:103DA000E61E0C94311F5F3FE4F3983ED4F38695F2
:103DB00077956795B795F795E7959F5FC1F7FE2BC8
:103DC000880F911D9695879597F9089597F99F67A4
:103DD00080E870E060E008959FEF80EC0895002493
:103DE0000A941616170618060906089500240A9460
:103DF00012161306140605060895092E0394000CE6
:103E000011F4882352F0BB0F40F4BF2B11F460FF74
:103E100004C06F5F7F4F8F4F9F4F089557FD90589D
:103E2000440F551F59F05F3F71F04795880F97FB7E
:103E3000991F61F09F3F79F0879508951216130638
:103E40001406551FF2CF4695F1DF08C01616170667
:103E50001806991FF1CF869571056105089408959C
:103E6000E894BB2766277727CB0197F90895052E9D
:103E700097FB1EF400940E944E1F57FD07D00E942E
:103E8000981F07FC03D04EF40C944E1F509540959C
:103E9000309521953F4F4F4F5F4F089590958095F6
:103EA000709561957F4F8F4F9F4F08950E94BA1F65
:103EB000A59F900DB49F900DA49F800D911D11247E
:103EC00008952F923F924F925F926F927F928F92BE
:103ED0009F92AF92BF92CF92DF92EF92FF920F9399
:103EE0001F93CF93DF93CDB7DEB7CA1BDB0B0FB6A3
:103EF000F894DEBF0FBECDBF09942A883988488860
:103F00005F846E847D848C849B84AA84B984C884F5
:103F1000DF80EE80FD800C811B81AA81B981CE0FEC
:103F2000D11D0FB6F894DEBF0FBECDBFED010895D1
:103F3000A1E21A2EAA1BBB1BFD010DC0AA1FBB1FAD
:103F4000EE1FFF1FA217B307E407F50720F0A21B1F
:103F5000B30BE40BF50B661F771F881F991F1A948C
:103F600069F760957095809590959B01AC01BD01B6
:103F7000CF010895A29FB001B39FC001A39F700D10
:103F8000811D1124911DB29F700D811D1124911D61
:103F900008955058BB27AA270E94E11F0C94FD1ECC
:103FA0000E94EF1E38F00E94F61E20F039F49F3F69
:103FB00019F426F40C94EC1E0EF4E095E7FB0C9437
:103FC000E61EE92F0E940E1F58F3BA176207730707
:103FD0008407950720F079F4A6F50C94301F0EF4B1
:103FE000E0950B2EBA2FA02D0B01B90190010C0109
:103FF000CA01A0011124FF27591B99F0593F50F421
:10400000503E68F11A16F040A22F232F342F442778
:10401000585FF3CF469537952795A795F040539570
:10402000C9F77EF41F16BA0B620B730B840BBAF040
:104030009150A1F0FF0FBB1F661F771F881FC2F7AB
:104040000EC0BA0F621F731F841F48F487957795BF
:104050006795B795F7959E3F08F0B0CF9395880F79
:1040600008F09927EE0F9795879508950E944A20AA
:104070000C94FD1E0E94F61E58F00E94EF1E40F0A8
:1040800029F45F3F29F00C94E61E51110C94311F66
:104090000C94EC1E0E940E1F68F39923B1F3552374
:1040A00091F3951B550BBB27AA276217730784074B
:1040B00038F09F5F5F4F220F331F441FAA1FA9F3E1
:1040C00035D00E2E3AF0E0E832D091505040E695CF
:1040D000001CCAF72BD0FE2F29D0660F771F881F30
:1040E000BB1F261737074807AB07B0E809F0BB0B23
:1040F000802DBF01FF2793585F4F3AF09E3F510537
:1041000078F00C94E61E0C94311F5F3FE4F3983E68
:10411000D4F3869577956795B795F7959F5FC9F71F
:10412000880F911D9695879597F90895E1E0660FA0
:10413000771F881FBB1F621773078407BA0720F019
:10414000621B730B840BBA0BEE1F88F7E095089582
:104150000E94AF206894B1110C94311F08950E9401
:10416000161F88F09F5798F0B92F9927B751B0F0D4
:10417000E1F0660F771F881F991F1AF0BA95C9F7EB
:1041800014C0B13091F00E94301FB1E008950C943A
:10419000301F672F782F8827B85F39F0B93FCCF3ED
:1041A000869577956795B395D9F73EF49095809568
:1041B000709561957F4F8F4F9F4F0895991B79E0C0
:1041C00004C0991F961708F0961B881F7A95C9F7A7
:1041D00080950895AA1BBB1B51E107C0AA1FBB1FF6
:1041E000A617B70710F0A61BB70B881F991F5A9583
:1041F000A9F780959095BC01CD01089597FB072EF6
:1042000016F4009407D077FD09D00E94EA2007FC3D
:1042100005D03EF4909581959F4F089570956195D6
:104220007F4F0895EE0FFF1F0590F491E02D099444
:104230000E94BA1FB7FF0895821B930B08950F9336
:104240001F93CF93DF938230910510F482E090E0CA
:10425000E0910C05F0910D0530E020E0B0E0A0E029
:10426000309799F42115310509F44AC0281B390B00
:1042700024303105D8F58A819B816115710589F15A
:10428000FB0193838283FE0111C040815181028131
:10429000138148175907E0F04817590799F4109708
:1042A00061F012960C93129713961C933296CF01DD
:1042B000DF91CF911F910F91089500930C051093FA
:1042C0000D05F4CF2115310551F04217530738F091
:1042D000A901DB019A01BD01DF01F801C1CFEF01A6
:1042E000F9CF90930D0580930C05CDCFFE01E20F21
:1042F000F31F819391932250310939832883D7CFBB
:1043000020910A0530910B05232B41F420911501D2
:104310003091160130930B0520930A05209113016B
:10432000309114012115310541F42DB73EB740916C
:10433000170150911801241B350BE0910A05F091EB
:104340000B05E217F307A0F42E1B3F0B28173907C4
:1043500078F0AC014E5F5F4F2417350748F04E0FE1
:104360005F1F50930B0540930A05819391939FCF54
:10437000F0E0E0E09CCFCF93DF930097E9F0FC0101
:10438000329713821282A0910C05B0910D05ED01B8
:1043900030E020E01097A1F420813181820F931F3B
:1043A00020910A0530910B052817390709F061C0E3
:1043B000F0930B05E0930A05DF91CF910895EA0190
:1043C000CE17DF07E8F54A815B819E014115510553
:1043D000B1F7E901FB83EA8349915991C40FD51FD5
:1043E000EC17FD0761F4808191810296840F951F7F
:1043F000E90199838883828193819B838A83F0E09A
:10440000E0E012968D919C9113970097B9F52D914C
:104410003C911197CD010296820F931F20910A05BE
:1044200030910B052817390739F6309751F510925E
:104430000D0510920C05B0930B05A0930A05BCCF97
:10444000D383C28340815181840F951FC817D90738
:1044500061F44E5F5F4F88819981480F591F5183E6
:1044600040838A819B81938382832115310509F0E2
:10447000B0CFF0930D05E0930C059ECFFD01DC015C
:10448000C0CF13821282D7CFB0E0A0E0EAE4F2E21C
:104490000C94631F8C01009751F4CB010E941F21E3
:1044A0008C01C801CDB7DEB7E0E10C947F1FFC01A1
:1044B000E60FF71F9C0122503109E217F30708F4B9
:1044C0009DC0D901CD91DC911197C617D70798F0FF
:1044D000C530D10530F3CE0104978617970708F34E
:1044E000C61BD70B2297C193D1936D937C93CF01B9
:1044F0000E94BB21D6CF5B01AC1ABD0A4C018C0EC9
:104500009D1EA0910C05B0910D05512C412CF12C54
:10451000E12C109731F580910A0590910B058815D3
:10452000990509F05CC04616570608F058C08091FE
:10453000130190911401009741F48DB79EB74091FB
:10454000170150911801841B950BE817F90708F023
:1045500055C0F0930B05E0930A05F9017183608360
:10456000A0CF8D919C91119712966C9012971396F3
:104570007C901397A815B90559F56C0142E0C40E5B
:10458000D11CCA14DB0420F1AC014A195B09DA0121
:104590001296159780F06282738251834083D9010D
:1045A0006D937C93E114F10471F0D7011396FC93A1
:1045B000EE93129776CF22968C0F9D1FF90191836F
:1045C0008083F301EFCFF0930D05E0930C0569CFE5
:1045D0004816590608F42C017D01D3019ACFCB016E
:1045E0000E941F217C01009749F0AE01B8010E9492
:1045F0000123C8010E94BB21870153CF10E000E0D6
:1046000050CFFB01DC0102C001900D92415050409F
:10461000D8F70895DC0101C06D9341505040E0F798
:104620000895FB01DC0101900D920020E1F708954F
:1046300010E0C3E6D0E004C0FE010E9412212196E2
:0A464000C436D107C9F7F894FFCF84
:10464A00FF0F0008000C000D000C000B000A000A06
:10465A00000B0000000E0580007EFF06000100002E
:10466A000000EF00004000140054000000000000A9
:10467A0000000000000000000000001A06E7009A8F
:10468A0008190676068E060106000000008701E773
:10469A00001401D401450123013701000000008301
:1046AA000756079A0819064F073C072D070000000E
:1046BA0000560CE7009A0899080D0A00303030308D
:1046CA00003030303100303031300030303131009C
:1046DA00303130300030313031003031313000305B
:1046EA003131310031303030003130303100313049
:1046FA003130003130313100313130300031313038
:08470A003100313131310000B2
:00000001FF
