:100000000C9464000C948C000C948C000C94A90E3D
:100010000C94A90E0C94A90E0C948C000C94AB0DAE
:100020000C948C000C948C000C948C000C9440105C
:100030000C948C000C948C000C948C000C948C0010
:100040000C945F0E0C948C000C942D0E0C94070EE7
:100050000C948C000C948C000C948C000C948C00F0
:100060000C94210F0C948C00000000002400270049
:100070002A0000000008000201000003040700003D
:1000800000000000000002000000002300260029FC
:100090000000000000250028002B000404040404D4
:1000A0000404040202020202020303030303030125
:1000B00002040810204080010204081020010204FC
:1000C000081020004111921E11241FBECFEFD8E06E
:1000D000DEBFCDBF11E0A0E0B1E0E0E7F7E402C091
:1000E00005900D92AC3CB107D9F725E0ACECB1E03E
:1000F00001C01D92A231B207E1F710E0C3E6D0E0E3
:1001000004C02197FE010E94A521C236D107C9F77C
:100110000E9439120C94AB230C94000008950895AA
:10012000E091DF04F091E0048E179F0798F530917D
:10013000E504332361F0639FB0011124672F349FDE
:10014000A0011124452F329F90011124232F3091BB
:10015000EB04E091E604F091E7045091E8043513D4
:100160001AC0DC01AA0FBB1F8A0F9B1F8E0F9F1F97
:10017000E091E804E80FF92FF11D6083E091E904B4
:10018000E80FF92FF11D40833091EA04830F911D90
:10019000FC0120830895880F991F880F991F8E0FE7
:1001A0009F1FFC01E30FF11D1082E2CFFC012481AF
:1001B00035816217730748F480819181009729F097
:1001C000860F971FFC018081089580E00895AF920B
:1001D000BF92CF92DF92EF92FF920F931F93CF9334
:1001E000DF936C017B018B01040F151FEB015E0196
:1001F000AE18BF08C017D10759F06991D601ED912B
:10020000FC910190F081E02DC6010995892B79F7C9
:10021000C501DF91CF911F910F91FF90EF90DF907B
:10022000CF90BF90AF900895FC01538D448D252F42
:1002300030E0842F90E0821B930B541710F0CF9680
:10024000089501970895FC01918D828D981761F0B2
:10025000A28DAE0FBF2FB11D5D968C91928D9F5FC9
:100260009F73928F90E008958FEF9FEF0895FC01A8
:10027000918D828D981731F0828DE80FF11D858D5B
:1002800090E008958FEF9FEF0895FC01918D228DEE
:10029000892F90E0805C9F4F821B91098F73992773
:1002A000089588E593E00E94450121E0892B09F437
:1002B00020E0822F089580E090E0892B29F00E94B1
:1002C000510181110C9400000895FC01A48DA80F28
:1002D000B92FB11DA35ABF4F2C91848D90E0019688
:1002E0008F739927848FA689B7892C93A089B189A8
:1002F0008C91837080648C93938D848D981306C049
:100300000288F389E02D80818F7D80830895EF92AC
:10031000FF920F931F93CF93DF93EC0181E0888FBF
:100320009B8D8C8D98131AC0E889F989808185FF8F
:1003300015C09FB7F894EE89FF896083E889F98931
:1003400080818370806480839FBF81E090E0DF9133
:10035000CF911F910F91FF90EF900895F62E0B8D86
:1003600010E00F5F1F4F0F731127E02E8C8D8E1141
:100370000CC00FB607FCFACFE889F989808185FFA8
:10038000F5CFCE010E946501F1CFEB8DEC0FFD2F73
:10039000F11DE35AFF4FF0829FB7F8940B8FEA8963
:1003A000FB8980818062CFCFCF93DF93EC01888D72
:1003B0008823B9F0AA89BB89E889F9898C9185FDE0
:1003C00003C0808186FD0DC00FB607FCF7CF8C916E
:1003D00085FFF2CF808185FFEDCFCE010E946501C0
:1003E000E9CFDF91CF910895833081F028F48130F7
:1003F00099F08230A9F008958730A9F08830C9F0CB
:100400008430B1F4809180008F7D03C080918000A2
:100410008F7780938000089584B58F7784BD089589
:1004200084B58F7DFBCF8091B0008F778093B00033
:1004300008958091B0008F7DF9CFCF93DF93282F5F
:1004400030E0F901EE58FF4F8491F901E155FF4F7B
:10045000D491F901E556FF4FC491CC23A1F081114D
:100460000E94F401EC2FF0E0EE0FFF1FE957FF4F61
:10047000A591B491EC91ED2381E090E009F480E046
:10048000DF91CF91089580E090E0FACF1F93CF9352
:10049000DF93282F30E0F901EE58FF4F8491F901E6
:1004A000E155FF4FD491F901E556FF4FC491CC239C
:1004B000A9F0162F81110E94F401EC2FF0E0EE0F4D
:1004C000FF1FEF56FF4FA591B4918FB7F894EC91B1
:1004D000111108C0D095DE23DC938FBFDF91CF913F
:1004E0001F910895DE2BF8CF9091000189130BC066
:1004F000E6E8F0E0E4919FEF90930001E13049F0ED
:1005000028F0E23061F060E00C94460210926E0038
:10051000FACF90916F009D7F90936F00F4CF9091F0
:1005200070009D7F9093700091E09093B000909147
:10053000B100987F94609093B1001092B300E3CF24
:10054000CF93DF9390E0FC01E155FF4F2491855656
:100550009F4FFC0184918823C9F090E0880F991F78
:10056000FC01E859FF4FA591B491FC01EF56FF4FF4
:10057000C591D49161110DC09FB7F8948C912095CD
:1005800082238C938881282328839FBFDF91CF917A
:100590000895623051F49FB7F8943C91822F809572
:1005A00083238C93E8812E2BEFCF8FB7F894EC91B7
:1005B0002E2B2C938FBFEACF0F931F93CF93DF93F4
:1005C000EC01162F042F1B821A8288EE93E0A0E024
:1005D000B0E08C839D83AE83BF838BE391E09983EE
:1005E00088831F8A1E8A198E188E1B8E1A8E1D8E66
:1005F0001C8E6E8D6E7F6D7F6E8F6695617081E053
:100600006827842F0E94460261E0802F0E94A0028A
:10061000802F90E0FC01E155FF4FE491E88BFC0155
:10062000E556FF4FE491F0E0EE0FFF1FEF56FF4F4E
:10063000859194919A8B898B60E0812F0E94A00212
:100640008E8D81FD04C061E0812F0E9446021C87CF
:10065000812F90E0FC01E155FF4FE491ED87FC0113
:10066000E556FF4FE491F0E0EE0FFF1FE957FF4F13
:10067000859194919F878E87DF91CF911F910F91E4
:1006800008958091E3049091E40497FD08C061E02F
:100690000E94A00260E08091E3040E94460281E093
:1006A0008093DE0408953FB7F8948091C80290913A
:1006B000C902A091CA02B091CB0226B5A89B05C081
:1006C0002F3F19F00196A11DB11D3FBFBA2FA92FD1
:1006D000982F8827BC01CD01620F711D811D911DCE
:1006E00042E0660F771F881F991F4A95D1F708953A
:1006F000CF92DF92EF92FF920F931F93CF93DF93EE
:10070000CDB7DEB729970FB6F894DEBF0FBECDBFC9
:100710008091E6049091E704892B09F480C0C09091
:10072000EC04D090ED04E090EE04F090EF040E9411
:1007300053036C157D058E059F0550F40E945303ED
:100740006093EC047093ED048093EE049093EF04B7
:100750000E9453030091EC041091ED042091EE04EB
:100760003091EF04601B710B820B930B6C32714064
:1007700081059105A0F2F8948091E1049091E20442
:100780009A838983E091E604F091E704DF011196F2
:10079000808189879091DD04E091F004F091F1046B
:1007A0008091F204992309F449C09081982B98878D
:1007B0009081809589238F838F818C8388E08B83C0
:1007C00058856F8149853B812C8189819A8150832D
:1007D00047FD252F3A952083262F39F0441F00C06E
:1007E00000006083000000C0F2CF38E04D916083CC
:1007F0000000019761F7F093F104E093F00449875A
:100800003B832C839A83898378940E94530360935B
:10081000EC047093ED048093EE049093EF0429961A
:100820000FB6F894DEBF0FBECDBFDF91CF911F9101
:100830000F91FF90EF90DF90CF9008959081982BCB
:1008400098879081809589238F838F818E8388E01C
:100850008D8358856F8149853D812E8189819A815B
:10086000508347FD252F00C000C0208300C000C07A
:1008700000C000C000C060830000262F3A9541F000
:10088000441F000000C000C000C000C000C0E8CF8E
:1008900038E04D9100C0608300C0019709F7F093E4
:1008A000F104E093F00449873D832E83ABCF8F9210
:1008B0009F92AF92BF92CF92DF92EF92FF926B0125
:1008C0007C010E9453034B015C01C114D104E1047B
:1008D000F104B9F00E945303681979098A099B0948
:1008E000683E73408105910580F321E0C21AD1086A
:1008F000E108F10888EE880E83E0981EA11CB11C67
:10090000E4CFFF90EF90DF90CF90BF90AF909F909B
:100910008F9008952FB7F8946091C4027091C5022A
:100920008091C6029091C7022FBF08950F931F9325
:1009300080917E0490917F04DC01ED91FC91008414
:10094000F185E02D0995892B09F4D7C060E070E0AE
:10095000CB010E94570420919C0480917E049091C9
:100960007F04DC01ED91FC910284F385E02D2111DF
:100970000BC00995809388048E37D1F680919C0432
:100980008F5F80939C04D4CF099590919C04E92FAC
:10099000F0E0E258FB4F82879230B9F09930D9F0FD
:1009A0009130A9F48F3F99F010929C0481E08093DC
:1009B0009E041092A1041092A0048093A2041092AD
:1009C000A30480E01F910F910895863069F79F5F1F
:1009D00090939C04ADCF8F3E39F720918A0480918B
:1009E0008904280F3327331FE0918B04C9018E0F30
:1009F000911D20918C04280F392F311D40918D04B9
:100A000050E0240F351F80918E0490E060918F0498
:100A100070E0762F6627F09190046F0F711D280FFC
:100A2000391F3195219531096217730709F0BCCF41
:100A300010929C04E13419F41092A3042FC0E093A7
:100A40009F04542F4427840F951F9093A1048093F3
:100A5000A004EA53E63108F046C0F0E0EE5CFA4F3D
:100A60000C94A5215F0567057105480571055105C1
:100A70006F057305710571057105710571057105C6
:100A800071057105730571057105710571057105B4
:100A900085E080939E0481E08093A2048091A2046B
:100AA00091CF80FF02C089E0F4CF81FF02C084E0D3
:100AB000F0CF83709927892B89F38AE0EACF80FFF2
:100AC00002C087E0E6CF81FFE9CF82E0E2CF80FF7E
:100AD00002C088E0DECF81FFE1CF83E0DACF86E09D
:100AE000D8CF8BE0D6CF81E080939E041092A104F2
:100AF0001092A0048093A2049FCF8091A304882326
:100B000069F20E948A04009180041091810420916E
:100B1000820430918304601B710B820B930B009154
:100B20008404109185042091860430918704601715
:100B300071078207930708F4B1CF10929C041092BA
:100B40009E041092A1041092A00481E036CF8093FD
:100B50009504272F30E07093970460939804409198
:100B6000940490919304490F5527551F840F952F96
:100B7000911D40919604840F911D820F931F680F61
:100B8000792F711D71956195710970939904609326
:100B90009A04442361F08091A304882341F060E02B
:100BA00070E0CB010E9457040E949604F4CF80911C
:100BB0007E0490917F04DC01ED91FC910280F38131
:100BC000E02D4AE050E062E974E009950E948A0451
:100BD00060938004709381048093820490938304D3
:100BE0008091960491E0811101C090E09093A3045C
:100BF000811106C06AE070E080E090E00C94570438
:100C000008952091E1023091E2022817390771F42A
:100C10009091DF028091E002981741F0E091DF02AD
:100C2000F0E0ED57FD4F808190E008958FEF9FEF4A
:100C300008950895EF92FF920F931F93CF93DF9340
:100C4000DC015C96ED90FC905D97E114F10479F481
:100C500081E090E013969C938E93129790E080E051
:100C6000DF91CF911F910F91FF90EF9008955196D2
:100C7000ED91FC91529750968C915097982F9095AA
:100C80000FB75E962C915E97122F127021FD609522
:100C9000F8942081112319F1282B2083E701219753
:100CA000F1F728E0462F50E0308160FF1AC0382B62
:100CB0003083E7012197F1F7BA01759567952150C7
:100CC00089F7112381F08081892380830FBF5C968F
:100CD0008D919C910197F1F781E090E0C1CF29239C
:100CE000DCCF3923E5CF9081892BEFCF2091E10232
:100CF0003091E2022817390771F48091E0022091C7
:100D0000DF0290E0805C9F4F821B910960E470E0FD
:100D10000E949121089590E080E008952091E102E1
:100D20003091E20228173907B9F49091DF028091DF
:100D3000E002981789F0E091DF02F0E0ED57FD4FF7
:100D400080812091DF0230E02F5F3F4F2F733327E8
:100D50002093DF0290E008958FEF9FEF0895FC014C
:100D60008BE391E0918380838091E1029091E20294
:100D7000E817F90759F4A389B4899C91858980956E
:100D800089238C931092E2021092E102089520913F
:100D90003902260F3327331F21323105ECF420911D
:100DA0005D02FC0190E080E0243069F082E008956B
:100DB000A09139022191AC01475E5D4FA40FB52F80
:100DC000B11D2C930196861798F380913902680F14
:100DD0006093390280E0089581E0089510925D02E9
:100DE00081E080935F0210925E0261E082E10E94E6
:100DF000460261E083E10E944602E9EBF0E0808177
:100E00008E7F808380818D7F808388E48093B8008B
:100E100085E48093BC000895CF93DF9391E0909395
:100E200018028823B9F0C091B800D091BA0080911F
:100E3000BC008A7B8093BC0060E082E10E94460295
:100E400060E083E10E9446020E94EE06D093BA0061
:100E5000C093B800DF91CF910895E091570380913E
:100E60005603E81730F4F0E0ED50FE4F808190E03B
:100E700008958FEF9FEF0895909157038091560347
:100E80002FEF3FEF981748F4E92FF0E0ED50FE4FB9
:100E9000208130E09F5F90935703C90108958091AE
:100EA000560390915703891B990B0895CF92DF92B7
:100EB000EF92FF920F931F93CF93DF937C01CB01AF
:100EC0008A012091F201222389F0EB016B01C40E0B
:100ED000D51ECC15DD0569F06991D701ED91FC9126
:100EE0000190F081E02DC7010995F3CF642F0E9496
:100EF000C706C801DF91CF911F910F91FF90EF902E
:100F0000DF90CF900895CF93DF931F92CDB7DEB7D8
:100F100069832091F2012223F9F0209154032032B9
:100F200058F021E030E0FC013383228390E080E040
:100F30000F90DF91CF91089580915503E82FF0E055
:100F4000EE52FE4F998190838F5F8093550380937B
:100F5000540381E090E0ECCF61E0CE0101960E9465
:100F6000C706F7CFCF92DF92EF92FF920F931F93B6
:100F7000CF93DF93FC01C48121E02093F201C09361
:100F8000D10110925503109254038385682B85EF8D
:100F900093E00E948307D0915403D13208F092C0AD
:100FA0000E9453036B017C0180915D02811165C039
:100FB00082E080935D0281E080935F028FEF8093F7
:100FC0005C0210928102D0938002A2EDB1E0E0E6D3
:100FD000F2E080E0D81385C01092820280918202F4
:100FE000CC0FC82BC093820280915E02813009F041
:100FF0007CC010925E020E9453036B017C018091C1
:1010000082028093BB008091140290911502A091FE
:101010001602B0911702892B8A2B8B2B99F00E9414
:101020005303009114021091150220911602309181
:1010300017026C197D098E099F09061717072807E3
:101040003907E0F18091BC0083FDD9CF85EC809316
:10105000BC000E9453036B017C0180915D028230D1
:1010600009F445C080915C028F3F61F180915C0280
:10107000803241F180915C0225C0809114029091F0
:101080001502A0911602B0911702892B8A2B8B2B87
:1010900009F48ACF0E9453030091140210911502A3
:1010A00020911602309117026C197D098E099F0953
:1010B000061717072807390708F076CF8091130223
:1010C0000E940C0710925503109254031092F201E3
:1010D000DF91CF911F910F91FF90EF90DF90CF9014
:1010E00008959D9191938F5F75CF85EEB0CF8091DC
:1010F000140290911502A0911602B0911702892B4B
:101100008A2B8B2B09F4A9CF0E9453030091140260
:101110001091150220911602309117026C197D0969
:101120008E099F09061717072807390708F095CF7A
:10113000C5CF089590E080E00895FC01EE0FFF1FF9
:10114000EC5CFC4F20813181232B39F421E030E02D
:101150003183208361E00C94A0020895682F88E514
:1011600093E00C9487010F931F93CF93DF938B0130
:10117000D82FC92F82E00E94AE08C801AD2FBC2F26
:101180008093CC019093CD01A093CE01B093CF0179
:101190000E94AE08812F0E94AE088D2F0E94AE08DB
:1011A0008C2FDF91CF911F910F910C94AE0842E0EC
:1011B00050E069E771E088E593E00C94E7008FEF79
:1011C0000E94AE0885E50E94AE080C94D7088FEF08
:1011D0000E94AE0885E50C94AE088F929F92AF9264
:1011E000BF92CF92DF92EF92FF920F931F93CF9314
:1011F000DF93C091F3028091D004882309F0F89422
:101200001092CB041092CC041092CD041092CE0414
:101210001092CF0461E08C2F0E94A00260E08C2F1E
:101220000E94460262E170E080E090E00E94570474
:1012300060E08C2F0E94A0028BE990E00197F1F70B
:1012400000E911E08C2F0E941D02892B09F062C079
:1012500001501109B9F78EEF9FEF2091D00422239E
:1012600009F07894892B09F49EC080E090ECA9E7FE
:10127000B4EC8093C3049093C404A093C504B093CA
:10128000C6048093C7049093C804A093C904B09384
:10129000CA048090C7049090C804A090C904B0907C
:1012A000CA04C090C304D090C404E090C504F09078
:1012B000C60462E370E080E090E00E9457048091F1
:1012C0003103882359F00E94E708C501B4010E9448
:1012D000B30883E10E94AE080E94D70880913203D0
:1012E000882309F4AFC00E94E708C701B6010E9435
:1012F000B30882E10E94AE08DF91CF911F910F9158
:10130000FF90EF90DF90CF90BF90AF909F908F9025
:101310000C94D70800E911E08C2F0E941D02019760
:1013200021F401501109C1F796CF18E2D0E800E08E
:1013300090E9E92EFF24F3948C2F0E941D02892B43
:1013400029F481E0E81AF108B9F785CF0E94530328
:101350006B017C0180E9A82EBB24B3948C2F0E94E2
:101360001D02019729F481E0A81AB108B9F773CFDB
:101370000E9453036C197D098E099F09693271051A
:101380008105910538F0E02FF0E0ED53FB4F8085AB
:101390008D2B8087D69511F40F5FD0E8115041F660
:1013A00090E080E05ACF6091CC0470E090E080E063
:1013B0000E94AD1E2DEC3CEC4CEC5DE30E940C1F3A
:1013C0006B017C016091CB0470E090E080E00E94B2
:1013D000AD1E9B01AC01C701B6010E945D20609368
:1013E000C3047093C4048093C5049093C604C09151
:1013F000CD046091CE0470E090E080E00E94AD1ECC
:101400002DEC3CEC4CEC5DE30E940C1F6B017C016D
:101410006C2F6F7770E090E080E00E94AD1E9B0122
:10142000AC01C701B6010E945D20C7FD09C06093F1
:10143000C7047093C8048093C9049093CA0429CF49
:101440009058F5CFDF91CF911F910F91FF90EF90C2
:10145000DF90CF90BF90AF909F908F9008954F9264
:101460005F926F927F928F929F92AF92BF92CF9234
:10147000DF92EF92FF920F931F93CF93DF9300D0F1
:10148000CDB7DEB78C0149832A83660F771FF80139
:10149000EA5AFF4FE080F180EE0CFF1CF801CF010B
:1014A000801B910B8E159F0514F41192F8CF898142
:1014B000F801E60FF71F81838A818083680184E544
:1014C000C80ED11C60E0F60180810E9446025801DE
:1014D000F2E5AF0EB11C480180E5880E911C1E1488
:1014E0001F040CF5E1E0EE1AF108F801EE0DFF1D06
:1014F0006080F5015080F401408088E0782E662DF0
:10150000661F6627661F842D0E944602660C61E0F6
:10151000852D0E94460260E0852D0E9446027A9445
:101520007110EDCFDCCF61E0F60180810F900F905C
:10153000DF91CF911F910F91FF90EF90DF90CF90AF
:10154000BF90AF909F908F907F906F905F904F90E3
:101550000C944602262F40917C0450917D04141671
:10156000150664F4FC01EA5DFB4F608B41E0480F17
:1015700070E060E086E294E00C942F0A08952091D8
:101580007C0430917D0412161306DCF420E830E070
:1015900002C0359527956A95E2F7FC01EA5DFB4F9D
:1015A0005089442359F0252B208B41E0480F208996
:1015B00070E060E086E294E00C942F0A20952523E9
:1015C000F3CF0895CF92DF92EF92FF921F93CF93C4
:1015D000DF937C016B01EB0183E0CC0FDD1F8A956B
:1015E000E1F76096CE0DDF1D11E0199220E0412F4A
:1015F000B601C7010E942F0A1F5F1930B1F7DF91B2
:10160000CF911F91FF90EF90DF90CF9008958F9230
:101610009F92AF92BF92CF92DF92EF92FF920F9381
:101620001F93CF93DF938C01D62EC72EEC01C05BA6
:10163000DF4F688379834C0182E5880E911CF401A9
:10164000518340835801F4E5AF0EB11CF50131839D
:1016500020837801F6E5EF0EF11C81E090E0F701C0
:101660009183808361E08D2D0E94A00261E0F401EE
:1016700080810E94A00261E0F50180810E94A002A9
:1016800061E0F50180810E944602D882C982F8019A
:1016900070961192EC17FD07E1F7D0E0C0E0F7017A
:1016A00080819181C817D90784F520E04FE0BE0101
:1016B000C8010E942F0AF70180819181C817D907BC
:1016C00034F427E04BE0BE01C8010E942F0A20E05D
:1016D00049E0BE01C8010E942F0AF7018081918173
:1016E000C817D90724F4BE01C8010E94E20AF70115
:1016F00080819181C817D90734F420E04CE0BE0105
:10170000C8010E942F0A2196CACFDF91CF911F9165
:101710000F91FF90EF90DF90CF90BF90AF909F9090
:101720008F9008950F931F93CF938C01C62F0E9423
:10173000B2076C2F6460C8010E94B2076C2F6B7FE8
:10174000C8010E94B20783EC90E00197F1F7CF91B6
:101750001F910F9108950F931F93CF93DF938C01E7
:10176000D62FC42F607F642B0E94920B80E1D89FFC
:10177000B00111246C2BC801DF91CF911F910F9103
:101780000C94920B40E061E081ED94E00E94AB0B81
:101790008BE39FE10197F1F70895CF93DF931092C8
:1017A00057031092560310925503109254030E944F
:1017B000EE068EE890E090935303809352038FE8F7
:1017C00090E090935103809350031092D60480913F
:1017D000DB04823018F098E09093D6048093D9040B
:1017E00062E370E080E090E00E9457046091DC04C6
:1017F00081ED94E00E94B20768EE73E080E090E033
:101800000E94570460E381ED94E00E94920BCBE4C8
:10181000D6E4CE010197F1F760E381ED94E00E94F8
:10182000920B2197F1F760E381ED94E00E94920B17
:1018300083E592E00197F1F760E281ED94E00E9488
:10184000920B6091D604606240E081ED94E00E94CA
:10185000AB0B84E08093D70440E06CE081ED94E032
:101860000E94AB0B0E94C20B82E08093D80440E040
:1018700066E081ED94E00E94AB0B40E062E081ED18
:1018800094E00E94AB0B8BE39FE10197F1F7DF91AE
:10189000CF9108950E94CD0B88E08093DC0460E036
:1018A00081ED94E00E94B2070C94C20B41E00E94CB
:1018B000AB0B81E090E00895CF92DF92EF92FF9220
:1018C0000F931F93CF93DF93EC016B018A01198271
:1018D00018861F86188A198A1A8A81E08E878B8754
:1018E0001C8692E09D8788837B01EE0CFF1CE60E30
:1018F000F71EFD82EC82C7010E94B2219A87898778
:10190000009779F1A70170E060E00E949D23DB82DF
:10191000CA821F830E838981882341F061E0802F72
:101920000E94A00260E0802F0E944602F801E55666
:10193000FF4FE491F0E0EE0FFF1FEF56FF4F859150
:1019400094919C8B8B8BF801E155FF4FE491ED8BCB
:10195000DF91CF911F910F91FF90EF90DF90CF908B
:1019600008951D821C821B821A82D3CFFC018081C4
:101970009181009711F00C944E2208950F931F93BC
:10198000CF93DF93EC0188819981009759F02A81E8
:101990003B812617370730F081E0DF91CF911F910F
:1019A0000F9108958B016F5F7F4F0E94D7220097A0
:1019B00059F0998388831B830A832C813D81232BD3
:1019C00059F7FC011082E8CF80E0E7CFEF92FF9259
:1019D0000F931F93CF93DF93EC017B018A01BA0130
:1019E0000E94BE0C28813981811114C02115310556
:1019F00019F0C9010E944E22198218821D821C8290
:101A00001B821A82CE01DF91CF911F910F91FF901F
:101A1000EF9008951D830C83B701C9010E94A42390
:101A2000F1CFFB0101900020E9F73197AF01461B90
:101A3000570B0C94E60CAF92BF92CF92DF92EF92CD
:101A4000FF920F931F93CF93DF9300D0CDB7DEB7F4
:101A50008C016B017A01FC011182108213821282C7
:101A60001582148250E040E06BE771E00E94E60CC2
:101A7000C7018B509D4F5C01CE0CDF1CC501855FFB
:101A800092408C159D050CF5F50181915F018983CC
:101A90001A82F801E480F580FFEFEF1AFF0AB70120
:101AA000C8010E94BE0C882349F3F80120813181CE
:101AB00084819581BE016F5F7F4F820F931F0E94CB
:101AC000A423F801F582E482D9CFC8010F900F90CA
:101AD000DF91CF911F910F91FF90EF90DF90CF900A
:101AE000BF90AF90089585ED8093BC008091140263
:101AF00090911502A0911602B09117020796A11DB0
:101B0000B11D23E0B695A795979587952A95D1F7AE
:101B10002091BC0024FD03C010925D020895409105
:101B20001402509115026091160270911702452B14
:101B3000462B472B69F30097A105B10541F025E33A
:101B40002A95F1F700000197A109B109E1CF809131
:101B500013020C940C071F920F920FB60F921124D0
:101B60002F933F934F935F936F937F938F939F93A5
:101B7000AF93BF93EF93FF938091D3029091D402E0
:101B8000A091D502B091D602892B8A2B8B2BD1F153
:101B90009091CE02E091CF02F091D002808189270E
:101BA00080838091D3029091D402A091D502B0910C
:101BB000D602181619061A061B069CF48091D30249
:101BC0009091D402A091D502B091D6020197A109BB
:101BD000B1098093D3029093D402A093D502B0931D
:101BE000D602FF91EF91BF91AF919F918F917F911D
:101BF0006F915F914F913F912F910F900FBE0F907A
:101C00001F901895809100010E947402EACF1F92E4
:101C10000F920FB60F9211242F933F934F935F9320
:101C20006F937F938F939F93AF93BF93EF93FF93A4
:101C300088E593E00E946501FF91EF91BF91AF911C
:101C40009F918F917F916F915F914F913F912F91D4
:101C50000F900FBE0F901F9018951F920F920FB606
:101C60000F9211242F938F939F93EF93FF93E09103
:101C70006803F09169038081E0916E03F0916F0336
:101C800082FD1BC09081809171038F5F8F732091C3
:101C90007203821741F0E0917103F0E0E85AFC4FC3
:101CA000958F80937103FF91EF919F918F912F9169
:101CB0000F900FBE0F901F9018958081F4CF1F9248
:101CC0000F920FB60F9211242F933F938F939F93F0
:101CD000AF93BF938091C4029091C502A091C602B8
:101CE000B091C7023091C30223E0230F2D3758F57E
:101CF0000196A11DB11D2093C3028093C40290934D
:101D0000C502A093C602B093C7028091C802909109
:101D1000C902A091CA02B091CB020196A11DB11DCA
:101D20008093C8029093C902A093CA02B093CB02D9
:101D3000BF91AF919F918F913F912F910F900FBEC7
:101D40000F901F90189526E8230F0296A11DB11D34
:101D5000D2CF1F920F920FB60F9211242F933F9361
:101D60004F935F936F937F938F939F93AF93BF93A3
:101D7000EF93FF93E091E102F091E202309749F096
:101D8000A685B7858585968D91FF14C09C91892382
:101D9000A1F4FF91EF91BF91AF919F918F917F91AE
:101DA0006F915F914F913F912F910F900FBE0F90C8
:101DB0001F9018959C91892361F7A389B4899C9100
:101DC0008589809589238C93868997890197F1F776
:101DD000608D718DA685B785558538E020E0CB01F3
:101DE0000197F1F7822F90E095958795282F4C91D8
:101DF000452309F02068315091F7868D81FD2095AB
:101E00008091E00290E001968F7399273091DF0274
:101E1000381799F0A091E002B0E0AD57BD4F2C9378
:101E20008093E002828D938D0197F1F7A389B489A5
:101E30008C919589892B8C93ACCF868D8160868F10
:101E4000F1CF1F920F920FB60F9211242F933F9351
:101E50004F935F936F937F938F939F93AF93BF93B2
:101E6000EF93FF938091B900887F803609F44AC0D0
:101E7000F0F5883209F4A7C018F5803109F49BC049
:101E8000B8F4882309F4F9C0883009F494C0FF91AC
:101E9000EF91BF91AF919F918F917F916F915F91E2
:101EA0004F913F912F910F900FBE0F901F9018955B
:101EB000883109F488C0803251F780935C0214C0E5
:101EC000803409F49DC040F48033B9F38833F9F6C7
:101ED00080935C0285ECB0C0803509F485C08835FC
:101EE00009F496C0883499F60E94730DD0CF8839D2
:101EF00009F48CC038F5883729F050F4883611F091
:101F0000803729F683E080935D0210925B0257C010
:101F1000883809F47BC0803919F0803809F0B7CFD0
:101F200080915B02803208F071C0E0915B0281E039
:101F30008E0F80935B028091BB00F0E0E55CFD4F6B
:101F400080833DC0803B39F0E0F4803A09F479C0E9
:101F5000883A09F09CCF84E080935D0210923A02A7
:101F600010923902E0915203F09153030995809148
:101F7000390281110FC081E0809339021092190259
:101F800009C0803C09F4A6CF883C09F4A3CF883B64
:101F900009F07DCFE0913A0281E08E0F80933A0202
:101FA000F0E0E75EFD4F80818093BB0090913A02A4
:101FB0008091390229C0809182028093BB0085EC18
:101FC0008093BC0064CF9091810280918002981729
:101FD00058F5E091810281E08E0F80938102F0E05C
:101FE000E05AFD4F8081E9CFE091810281E08E0FC0
:101FF000809381028091BB00F0E0E05AFD4F808326
:1020000090918102809180029817C8F285E8D8CF1C
:10201000E091810281E08E0F809381028091BB006C
:10202000F0E0E05AFD4F808380915F0281115CCF28
:1020300081E080935E0284EA8093BC0010925D028E
:1020400026CF85EC8093BC0010925D0280915B02EC
:10205000803230F4E0915B02F0E0E55CFD4F1082ED
:1020600060915B0270E0E0915003F09151038BE3CB
:1020700092E0099510925B020ACF10925C0234CF75
:102080001F920F920FB60F9211242F933F934F93ED
:102090005F936F937F938F939F93AF93BF93CF93F0
:1020A000DF93EF93FF938091D001C0912504D0E09E
:1020B00087FF24C010928500109284008091D00187
:1020C0008F5F8093D0018091D001082E000C990B76
:1020D0008C179D0724F48091D0018C30C4F180913D
:1020E000840090918500049680349C4908F47AC05D
:1020F0008091840090918500049676C08091D001F3
:10210000082E000C990B8C179D07C4F6E091D001A6
:102110008E2FEE0F990BFC01EE0FFF1FE80FF91F3A
:10212000EF5FFB4F808186FFC9CFE091D0018E2FFA
:10213000EE0F990BFC01EE0FFF1FE80FF91FEF5F89
:10214000FB4F808160E08F730E944602B7CF2091E1
:10215000840030918500E091D0018E2FEE0F990B15
:10216000FC01EE0FFF1FE80FF91FEF5FFB4F8181AE
:102170009281820F931F9093890080938800E09151
:10218000D0018E2FEE0F990BFC01EE0FFF1FE80F11
:10219000F91FEF5FFB4F808186FF11C0E091D001F6
:1021A0008E2FEE0F990BFC01EE0FFF1FE80FF91FAA
:1021B000EF5FFB4F808161E08F730E944602FF91C9
:1021C000EF91DF91CF91BF91AF919F918F917F91CF
:1021D0006F915F914F913F912F910F900FBE0F9094
:1021E0001F90189580E49CE9909389008093880063
:1021F0008FEF8093D001E3CFCF92DF92EF92FF92E7
:102200000F931F93E82FF92F05C0015011092109E1
:10221000310961F1908196239417B9F305C00150FB
:1022200011092109310911F1908196239413F7CFF7
:10223000C12CD12CE12CF12C0AC08FEFC81AD80A7E
:10224000E80AF80A0C151D052E053F0579F0808176
:102250008623841791F36C2D7D2D8E2D9F2D1F913C
:102260000F91FF90EF90DF90CF90089560E070E0C5
:1022700080E090E01F910F91FF90EF90DF90CF9062
:102280000895CF9310925B0310925A0388EE93E067
:10229000A0E0B0E080935C0390935D03A0935E03A5
:1022A000B0935F032DE431E030935903209358033A
:1022B00025EC30E0309365032093640324EC30E098
:1022C000309367032093660320EC30E0309369037A
:1022D0002093680321EC30E030936B0320936A0372
:1022E00022EC30E030936D0320936C0326EC30E059
:1022F00030936F0320936E03109271031092720358
:1023000010927303109274031092F8031092F70363
:102310008093F9039093FA03A093FB03B093FC031B
:102320008FE591E09093F6038093F503E6EFF4E0F8
:102330002EE035E04FEF68EB7BE0809125048C3098
:1023400008F091C091E0980F90932504808390E06D
:10235000DC01AA0FBB1FA80FB91FAF5FBB4F1296BE
:102360007C936E93119733962E173F0731F7809128
:1023700025048C3008F079C091E0980F90932504E3
:102380008093F30490E0FC01EE0FFF1FE80FF91FAC
:10239000EF5FFB4F88EB9BE09283818347E050E047
:1023A00064E070E08DED94E00E945C0C1092D40427
:1023B0001092D30481E791E09093D2048093D104EA
:1023C00087E28093D50480E18093DA04C2E0C09371
:1023D000DB041092DC041092D0041092C704109217
:1023E000C8041092C9041092CA041092C304109237
:1023F000C4041092C5041092C6044091110160916A
:102400000F0184EA94E00E94DC0284EF91E0A0E0F6
:10241000B0E08093840490938504A0938604B093E5
:1024200087048AE0E9E1F1E0A2E9B4E001900D92CD
:102430008A95E1F710929C04C0939D041092A20427
:102440001092A30420910D0130910E0140910B01D7
:1024500050910C016091090170910A0186E294E0AB
:10246000CF910C94070B40837ECF8FEF8093F304C2
:1024700095CFCF93DF93CDB7DEB7C456D1090FB652
:10248000F894DEBF0FBECDBF789484B5826084BD62
:1024900084B5816084BD85B5826085BD85B5816068
:1024A00085BD80916E00816080936E0010928100E6
:1024B00080918100826080938100809181008160A1
:1024C0008093810080918000816080938000809162
:1024D000B10084608093B1008091B00081608093EE
:1024E000B00080917A00846080937A0080917A00B5
:1024F000826080937A0080917A00816080937A0074
:1025000080917A00806880937A001092C100E091F7
:102510006803F091690382E08083E0916403F091A5
:1025200065031082E0916603F091670380E1808388
:1025300010927003E0916C03F0916D0386E080834C
:10254000E0916A03F0916B03808180618083E09168
:102550006A03F0916B03808188608083E0916A0355
:10256000F0916B03808180688083E0916A03F09131
:102570006B0380818F7D808312E061E0812F0E9458
:10258000A00260E0812F0E9446021F5F1E30A9F763
:102590000E9441030E9478030E944A0C68EC70E09C
:1025A00080E090E00E94570488E593E00E94450196
:1025B000892B11F40C943C1D88E593E00E944501A1
:1025C000181619068CF788E593E00E942301909174
:1025D0002C03853589F591112FC080912B038F3FF6
:1025E00029F481E080932A0380932C0380912A03AD
:1025F0008F5F8433C0F580932A0380912C03882356
:1026000099F2809129038111CFCF80912A038430E0
:1026100058F210922C03E091FA02D090FB02ED2CBC
:10262000F12C4091F902423009F4A5C00CF541307B
:1026300041F110922A03B8CF80932B039923B1F272
:10264000E0912A03E23039F480932903F0E0EB5063
:10265000FD4F8083CBCFE330C8F390912903915095
:1026600090932903F3CF10922A0310922C03C5CF25
:10267000433011F40C94C01C4430D9F60E94DF089A
:10268000D8CFE13059F4F701EE0FFF1FEC5CFC4F9F
:102690008091FC0290E091838083CBCFF0E0E73023
:1026A000F10509F040C01091FC02812F90E02091CB
:1026B0003303211129C040933303F0920801E092C3
:1026C00007019093060180930501F701EE0FFF1FAC
:1026D000EC5CFC4F21E030E031832083880F991FB0
:1026E000FC01EC5CFC4F3183208361E08D2D0E9466
:1026F000A00260E0812F0E94A00262E370E080E00F
:1027000090E00E94570495CF209107013091080175
:10271000E216F30691F62091050130910601281783
:10272000390759F686CF9701220F331FE231F105A1
:1027300061F440933203F092F402E092F3022C5CD5
:102740003C4F81E090E0F901A6CF739721F481E03E
:1027500080933103F0CF1092330310922D03109227
:102760002E0310922F03109230032C5C3C4FF90182
:10277000118210825ECF8091070190910801E816C6
:10278000F90639F08091050190910601E816F906E5
:1027900051F41092330310922D0310922E031092D5
:1027A0002F0310923003E150E13208F067CF0E2E74
:1027B000000CFF0BE252FC4E0C94A521FF133E13BC
:1027C0000814D71B5F143E133E13BC1C3E133E136C
:1027D0003E133E133E133E133E133E133E133E1371
:1027E0003E139416CE160D174B176C177017D4178F
:1027F000E8170B19C517661AB81B3E13CE1BC70185
:102800000E949D086091FC028D2D0E94460236CFE9
:10281000C7010E949D08C090FC020C2D10E061E0F1
:102820008D2D0E94A002C11002C060E0EDCF0F3FCD
:10283000110511F461E0E8CFF701EE58FF4FE49184
:10284000E33019F140F4E130B1F0E230C9F0003882
:10285000110584F7EACFE73011F1E83041F1E430B7
:10286000B1F78091800080628093800010938B008C
:1028700000938A0003CF84B5806884BDC7BCFECEB8
:1028800084B5806284BDC8BCF9CE80918000806828
:10289000809380001093890000938800EFCE809190
:1028A000B00080688093B000C092B300E7CE809102
:1028B000B00080628093B000C092B400DFCEC70148
:1028C0000E949D088091FC028093CC028091FD02C1
:1028D0008093CD028091CC029091CD02A1969FAFC2
:1028E0008EAFA1978091FE028093CC028091FF026F
:1028F0008093CD02E091CC02F091CD02A596FFAF7E
:10290000EEAFA5971E161F060CF00AC280910001BB
:10291000D812D2C0E6E8F0E0149117FDAFCE61E026
:102920008D2D0E94A0021123C9F0A1968EAD9FADFE
:10293000A1972C01712C612C60E072E18AE790E094
:10294000A30192010E94CA1F69017A0191E0C91A8C
:10295000D108E108F108123009F09FC1A196EEAD4F
:10296000FFADA1972F01712C612C60E072E18AE725
:1029700090E0A3019F010E94CA1F49015A017A01F8
:102980006901F1E0CF1AD108E108F1082FEFC21672
:10299000D104E104F10409F00CF44EC160E472E4E6
:1029A0008FE090E0A30192010E94CA1F69017A01A1
:1029B00081E0C81AD108E108F108123009F0F3C02B
:1029C00082E09FEFC916D104E104F10409F00CF490
:1029D0006CC060E970ED83E090E0A30192010E9479
:1029E000CA1F69017A01E1E0CE1AD108E108F108B5
:1029F00083E0FFEFCF16D104E104F10409F00CF4F9
:102A000054C068E478EE81E090E0A30192010E9456
:102A1000CA1F69017A0191E0C91AD108E108F108D9
:102A200084E0EFEFCE16D104E104F104F1F1ECF112
:102A300064E274EF80E090E0A30192010E94CA1F5B
:102A400069017A0191E0C91AD108E108F10885E02D
:102A5000EFEFCE16D104E104F10439F130F162E177
:102A60007AE780E090E0A30192010E94CA1F690109
:102A70007A0181E0C81AD108E108F10886E09FEFE9
:102A8000C916D104E104F10481F078F07501640104
:102A90002AE0F594E794D794C7942A95D1F721E0DA
:102AA000C21AD108E108F10887E09091B100987F3F
:102AB000892B8093B100C7C08F3F09F0DFCDD09242
:102AC0000001E6E8F0E014911F3F09F4D7CD113082
:102AD00031F150F0123009F442C017FDCFCD61E062
:102AE0008D2D0E94A00221CF14BC15BC84B582603C
:102AF00084BD85B5816085BDF701E556FF4FE49142
:102B0000F0E0EE0FFF1FEF56FF4F85919491F70114
:102B1000E155FF4FE491E093D20210E000CF109214
:102B200080001092810080918100886080938100F4
:102B300080918100816080938100F701E556FF4F0D
:102B4000E491F0E0EE0FFF1FEF56FF4F8591949157
:102B5000F701E155FF4FE491E093D102E0CE1092EE
:102B6000B0001092B1008091B00082608093B000FC
:102B70008091B10081608093B100F701E556FF4F6D
:102B8000E491F0E0EE0FFF1FEF56FF4F8591949117
:102B90009093D0028093CF02F701E155FF4FE4916B
:102BA000E093CE02BCCE2FEFC216D104E104F104B3
:102BB00009F00CF470C068E478EE81E090E0A301C5
:102BC00092010E94CA1F69017A0181E0C81AD108E6
:102BD000E108F10884E011113BCF83E0FFEFCF164D
:102BE000D104E104F10459F154F162E17AE780E0A3
:102BF00090E0A30192010E94CA1F69017A01E1E0FD
:102C0000CE1AD108E108F10884E0FFEFCF16D10415
:102C1000E104F104A1F098F0750164019AE0F594E3
:102C2000E794D794C7949A95D1F781E0C81AD10850
:102C3000E108F10885E003C081E0111136CF95B5B8
:102C4000987F892B85BDA1962EAD3FADA197220F10
:102C5000331FA596AEADBFADA5970E94AB2128EE60
:102C600033E040E050E00E942B201130B9F11230E7
:102C700009F446C0111102CDC7BC2093DB0230938A
:102C8000DC024093DD025093DE0280916E00826090
:102C900080936E00F3CC82E0D0CF91E0C114D104D8
:102CA00021E0E206F10484F068E478EE81E090E04F
:102CB000A30192010E94CA1F69017A0181E0C81A2A
:102CC000D108E108F10893E0113009F0BCCF809100
:102CD0008100887F892B80938100B5CFD0928900B5
:102CE000C09288002093D7023093D8024093D90233
:102CF0005093DA0280916F00826080936F00BECCA7
:102D0000C092B3002093D3023093D4024093D502F3
:102D10005093D60280917000826080937000AECC98
:102D20008D2D0E947402AACCC7010E949D0860915B
:102D3000FC0270E0A701CE0101960E945C0C86E1C6
:102D4000FE013196ADEDB4E001900D928A95E1F768
:102D50008A859B850E944E228F81988597FD03C0AE
:102D600060E00E94A0020E94410320E040E060E099
:102D700090E080E00E94900020E040E060E081E090
:102D800090E00E94900020E040E060E082E090E06F
:102D90000E94900020E040E060E09BC08091FC0237
:102DA000FF24F394F80E2091E504F21609F466CCA2
:102DB0000091E6041091E704215070E060E061F0BA
:102DC0008F3FF1F430E050E040E06FEF7FEF80E0C4
:102DD00090E00E94CA1FB901F8014091E1045091AE
:102DE000E204CF01801B910B8417950798F4408172
:102DF000469FC001479F900D112490833196EDCFDF
:102E00008F2D90E0982F88270197622F70E00E9405
:102E10007D21E2CFF092E50431CC8091FC026091FB
:102E2000FE02409100032091020381112EC0611126
:102E30002CC041112AC0211128C0C7010E949D0841
:102E400020E040E060E090E080E00E94900020E020
:102E500040E060E081E090E00E94900020E040E0EF
:102E600060E082E090E00E94900020E040E060E0BE
:102E700083E090E00E9490000E94780362E370E09B
:102E800080E090E00E945704F9CB90E00E9490000F
:102E90000E947803F3CB1091FC020091FE02F090A7
:102EA00000032F2D402F612F90E080E00E949000C2
:102EB0002F2D402F612F81E090E00E9490002F2D58
:102EC000402F612F82E090E00E9490002F2D402F34
:102ED000612F83E090E0DACFC7010E949D0845CFC3
:102EE0000091FC0210E010930A0100930901C090C8
:102EF000FE02D12CD0920C01C0920B01E090000395
:102F0000F12CF0920E01E0920D01C8010E949D0883
:102F1000C6010E949D08C7010E949D089701A60155
:102F2000B801CE0101960E94070B88E5FE0131969B
:102F3000A6E2B4E001900D928A95E1F780917C04BD
:102F400090917D041816190644F421E04CE070E0DD
:102F500060E086E294E00E942F0A20910301309104
:102F6000040180917C0490917D04181619060CF0E0
:102F700085CB2031310508F081CB4AE070E060E07C
:102F800086E294E00E942F0A79CB80917C04909194
:102F90007D04181619060CF071CB70E060E086E233
:102FA00094E00E94E20A6ACB2091FC02822F90E01A
:102FB000909304018093030180917C0490917D049F
:102FC000181619060CF05ACB203108F057CBD5CF84
:102FD0006091FC0270E049E050E0CE01875A9F4FBB
:102FE0000E941B0D1A8219821C821B821E821D8266
:102FF00050E040E06BE771E0CE0101960E94E60CE4
:103000000EE010E0B801CE01875A9F4F0E94D60013
:10301000873309F4A8C00CF083C0833309F4A0C03F
:103020000CF073C0813309F495C00CF096C06CE7C6
:1030300071E0803309F47FC0780117FF03C09FEF70
:10304000E91AF90AF594E794F194E194F108E7E0BC
:10305000EE0EF11CD12CC12CB601CE0101960E94BE
:10306000D60041E0813309F040E0B601C7010E947B
:10307000BF0AFFEFCF1ADF0A24E0C216D10461F7BE
:10308000B8016F5F7F4FCE01875A9F4F0E94D600D5
:10309000873309F4ABC00CF086C0833309F4A3C0B6
:1030A0000CF076C0813309F498C00CF099C06CE73D
:1030B00071E0803309F482C0D12CC12CB601CE015D
:1030C00001960E94D600B6016C5F7F4F41E08133CC
:1030D00009F040E0C7010E94BF0A8FEFC81AD80A62
:1030E00094E0C916D10451F7025011090E3FEFEFD9
:1030F0001E0709F087CFCE0101960E94B60CCE01C3
:10310000875A9F4F0E94B60CB9CA65E971E08533B2
:1031100091F060E971E0863374F06AE971E00BC008
:10312000823651F16CF4893321F104F16EEA71E0D9
:10313000813609F081CFCE0101960E94110D7CCF1E
:10314000843601F1E4F0853601F167EC71E08636F2
:1031500091F372CF61E871E0EECF66E871E0EBCFFA
:103160006BE871E0E8CF6FE971E0E5CF64EA71E008
:10317000E2CF69EA71E0DFCF63EB71E0DCCF68EBAF
:1031800071E0D9CF6DEB71E0D6CF62EC71E0D3CFB7
:1031900065E971E0853391F060E971E0863374F0A0
:1031A0006AE971E00BC0823651F16CF4893321F188
:1031B00004F16EEA71E0813609F07ECFCE0101960E
:1031C0000E94110D79CF843601F1E4F0853601F1CA
:1031D00067EC71E0863691F36FCF61E871E0EECF76
:1031E00066E871E0EBCF6BE871E0E8CF6FE971E082
:1031F000E5CF64EA71E0E2CF69EA71E0DFCF63EB2B
:1032000071E0DCCF68EB71E0D9CF6DEB71E0D6CF28
:1032100062EC71E0D3CFE091FC02EB3008F02ECAF3
:103220000E2E000CFF0BE95EF64E0C94A521C5177F
:1032300022194B1966198619A119C119DC19FC1933
:103240001C1A411A66E690E080E00E94AA0A6FEF1D
:1032500081E090E00E94AA0A6FEF82E090E00E9475
:10326000AA0A6FEF83E090E00E94AA0A6EE784E06A
:1032700090E00E94AA0A6CE385E090E00E94AA0A0E
:1032800068E186E090E00E94AA0A60E087E090E0B2
:103290000E94AA0AF3C966E690E080E00E94AA0AAA
:1032A00069E981E090E00E94AA0A61E882E090E08A
:1032B0000E94AA0A61E883E090E00E94AA0A62E400
:1032C00084E090E00E94AA0A64E2D6CF60E090E039
:1032D00080E00E94AA0A60E181E090E00E94AA0AD0
:1032E00068E382E090E00E94AA0A64E583E090E04F
:1032F0000E94AA0A60E184E090E00E94AA0A60E1CC
:1033000085E090E00E94AA0A60E1BBCF60E090E017
:1033100080E00E94AA0A60E181E090E00E94AA0A8F
:1033200060E182E090E00E94AA0A60E183E090E020
:103330000E94AA0A64E584E090E00E94AA0A68E379
:10334000DFCF60E090E080E00E94AA0A60E181E0C7
:1033500090E00E94AA0A60E282E090E00E94AA0A3D
:103360006EE783E090E00E94AA0A60E284E090E0C9
:103370000E94AA0A60E185E090E00E94AA0A60E04B
:1033800080CF60E090E080E00E94AA0A68E081E0DF
:1033900090E00E94AA0A64E082E090E00E94AA0AFB
:1033A0006EE783E090E00E94AA0A64E084E090E087
:1033B0000E94AA0A68E0DFCF60E090E080E00E940F
:1033C000AA0A62E481E090E00E94AA0A65EA82E02B
:1033D00090E00E94AA0A60E083E090E00E94AA0ABE
:1033E00060E084E090E00E94AA0A62E485E090E058
:1033F0000E94AA0A6CE345CF60E090E080E00E9462
:10340000AA0A60E081E090E00E94AA0A67EE82E0EA
:1034100090E00E94AA0A62E483E090E00E94AA0A77
:1034200062E484E090E00E94AA0A68E185E090E00E
:103430000E94AA0A64E225CF61E890E080E00E9441
:10344000AA0A62E481E090E00E94AA0A64E282E0B3
:1034500090E00E94AA0A60E083E090E00E94AA0A3D
:1034600060E084E090E00E94AA0A6CE385E090E0CE
:103470000E94AA0A6EE786E090E00E94AA0A6EE720
:1034800005CF60E090E080E00E94AA0A62E481E05B
:1034900090E00E94AA0A64E282E090E00E94AA0AF8
:1034A00062E483E090E00E94AA0A60E084E090E099
:1034B0000E94AA0A6CE385E090E00E94AA0A64E2F6
:1034C00086E090E00E94AA0A68E1E0CEF090FC025B
:1034D0008F2D90E09093100180930F01E090FE02F9
:1034E0000E2D10E010931201009311010E949D080F
:1034F000C8010E949D084E2D6F2DCE0101960E949D
:10350000DC028B819C819093A7048093A6048D811B
:103510009E81AF81B8858093A8049093A904A0935D
:10352000AA04B093AB0489859A85AB85BC8580934A
:10353000AC049093AD04A093AE04B093AF048D851A
:103540008093B0048E858093B1048F859889909381
:10355000B3048093B20489898093B4048A899B89D7
:103560009093B6048093B5048C899D899093B80498
:103570008093B7048E898093B9048F89988D909336
:10358000BB048093BA04898D9A8D9093BD04809377
:10359000BC048B8D9C8D9093BF048093BE048D8D55
:1035A0009E8D9093C1048093C0049F8D8091C2042E
:1035B00090FB80F991FB81F98093C204CE010196C2
:1035C0000E94AF061092BF041092BE041092BD0478
:1035D0001092BC041092BB041092BA048DE991E0E1
:1035E0009093C1048093C0042091B004263108F068
:1035F00047C08DEB90E09093BB048093BA048BE9B5
:1036000091E09093BD048093BC048CE291E0909390
:10361000BF048093BE049091680084E0283048F095
:1036200031E02E3008F430E081E001C0880F3A9597
:10363000EAF7892B809368008DE690E0283050F0FF
:103640008BE690E02E3030F08CE690E0263110F0E2
:1036500090E080E09093B8048093B704822F90E0CC
:10366000283008F063C081E001C0880F2A95EAF78E
:103670008093B9048091C0049091C1040197F1F73F
:103680008091BE049091BF04892B49F1E091E10241
:10369000F091E20224E0E43AF20709F1309739F0C0
:1036A000A389B4899C918589809589238C93809185
:1036B000C2048E7F8093C2041092E0021092DF0257
:1036C00084EA94E09093E2028093E102E091B704EF
:1036D000F091B80480819091B904892B808384EAA9
:1036E00094E090937F0480937E0481E0809396041D
:1036F00070E060E08CE00E94A7050E948A046B01E4
:103700007C010E94960481111BC00E948A046C19DE
:103710007D098E099F09613D77408105910580F4FF
:1037200060E070E0CB010E945704EBCF2E3020F414
:103730009C012850310997CF9C012E50310993CF1D
:1037400068EC70E080E090E00E9457041092A204C0
:103750008FE090E090930201809301016FE070E0B0
:1037600086E00E94A7056AE070E080E090E08ACBE6
:103770006091010170910201772786E00E94A70500
:103780006AE070E080E090E00E9457046091FE02E1
:1037900070E083E00E94A7050C943E138091FE0226
:1037A00090E090930201809301010C943E13C701B5
:1037B0000E949D08C090FC02F4EBFC1510F40C94E0
:1037C0003E13E3EEF2E090E080E021913191E216C9
:1037D000F30651F0232B09F0C7C0FC01EE0FFF1FC9
:1037E000ED51FD4FF182E082FC01EE0FFF1FE80F6B
:1037F000F91FEA50FB4F8081218192818093F3046D
:103800002093F4049093F5048C3008F054C061E0E8
:103810008D2D0E94A0028091F304282F30E0F90141
:10382000EE0FFF1FE20FF31FEF5FFB4F2D2D2F73E6
:10383000D22E9081907CD92AD0821092F4041092DA
:10384000F5042CE0622F0E947121829FB0011124A7
:1038500030E020E0AB01420F531FFA01EE0FFF1FD3
:10386000E40FF51FEF5FFB4F908196FD16C02F5FB1
:103870003F4F2C30310571F781110FC0109280003D
:1038800082E0809381001092850010928400B19AAA
:1038900080916F00826080936F00E091F3048E2F1F
:1038A00090E0FC01EE0FFF1FE80FF91FEF5FFB4FE9
:1038B000808180648083D090F3048091F504B8E522
:1038C000EB2EB2E0FB2EE81AF10887FDF394EE0C24
:1038D000FF1CEE0CFF1C8091F40408E810E0081BAC
:1038E000110987FD1395000F111F000F111F4801CB
:1038F000012E000CAA08BB0897010F2C000C440BEA
:10390000550B281939094A095B09AC2DB0E00E9412
:10391000E91F24EB30E040E050E00E94CA1F820E15
:10392000931EA41EB51EEBE0ED1510F40C943E138F
:10393000801691062CF087018E149F040CF48401EC
:1039400002501109000F111F2FB7F8948D2D90E030
:10395000FC01EE0FFF1FE80FF91FEF5FFB4F128313
:1039600001832FBF0C943E1301968830910509F016
:103970002CCF90E080E038CF0E948A040C943E1354
:10398000EC3009F448C0E131E9F0EB30F1F5109189
:10399000FC020091FE02F09000036F2D70E04DE0FC
:1039A00050E0CE01875A9F4F0E941B0DF11036C088
:1039B0000E94CD0B0E94C20BCE01875A9F4F0E94DE
:1039C000B60C23C0809100039091FE022091FC026E
:1039D0001092D4041092D30421111BC027E220932B
:1039E000D5042E812093D6042F812093D7042885D7
:1039F0002093D80429852093D9049093DA048093E6
:103A0000DB041092DC040E944A0C0E94DF080C9434
:103A10003E132FE3E4CF0E94C20BF7CF88E0E3E22E
:103A2000F1E0DE01119601900D928A95E1F7809107
:103A3000D904811710F41FEF180FE12FF0E0EE0FFB
:103A4000FF1F81E090E08C0F9D1FE80FF91F608140
:103A5000600F606840E081ED94E00E94AB0B6F96D0
:103A60004EAD5FAD6F976B966EAD7FAD6B9781ED91
:103A700094E00E94E700A0CF6FE070E080E090E06B
:103A80000E94570408E313E062E0F62EF8018191EA
:103A900091918F01009721F00297E9F462E001C053
:103AA00060E08F2D0E94A0020E94E7088F2D0E94E7
:103AB0001D02BC01990F880B990B0E94AD1E0E943C
:103AC000B3088F2D0E94AE0881E00E94AE080E94CC
:103AD000D7080E94DF08F394FEE0FF12D7CF5BE225
:103AE000C52E51E0D52E10E0F601819191916F0124
:103AF000892B09F070C044E1E42EF12C01E0712E15
:103B0000689476F870927C0080917A00806480934B
:103B10007A0080917A0086FDFCCF809178006091D8
:103B20007900762F682F072E000C880B990B0E94C6
:103B3000AD1E4B015C01002339F0A2966FAFA29736
:103B4000A3969FAEA3971C012DEC3CEC4CEC5DE3DF
:103B5000A2966FADA297A3967FADA397C1010E94D5
:103B60000C1F1B012C0126E636E646E65FE3B40196
:103B7000C5010E940C1F9B01AC01C201B1010E9452
:103B80005D20A2966FAFA297A3967FAFA3971C016B
:103B9000F1E0EF1AF10800E009F0B4CF0E94E70865
:103BA000A2966FADA297A3967FADA397C1010E9485
:103BB0003B21072E000C880B990B0E94AD1E0E9422
:103BC000B308812F0E94AE0882E00E94AE080E94D6
:103BD000D7080E94DF081F5F163009F085CF80915B
:103BE0003303882309F46FC01091070160E0812F2F
:103BF0000E94460283E090E00197F1F761E0812F97
:103C00000E94460283E290E00197F1F760E0812F85
:103C10000E94460280910501909106019927FC01BE
:103C2000E155FF4F6491FC01E556FF4FE491F0E050
:103C3000EE0FFF1FE957FF4F8591949100E315E7C1
:103C400020E030E0462F0E94FC10611571058105CF
:103C5000910529F06F5F7F4F8F4F9F4F9F700E949C
:103C6000AB1E20E030E048EE51E40E94C92020E085
:103C700030E040E05FE30E940C1F6B017C0120E01C
:103C800030E0A9010E94A61E811143C0C0902D03FF
:103C9000D0902E03E0902F03F09030030E94E708AD
:103CA000C701B6010E94B308809107010E94AE08C7
:103CB000809105010E94AE0887E00E94AE080E9434
:103CC000D7080E94DF0880913203882321F00E94E8
:103CD000ED080E94DF0880913103882321F00E94C3
:103CE000ED080E94DF086AE070E080E090E00E944A
:103CF000570480E090E0892B11F40C94D4120E94B8
:103D00005101882311F40C94D4120E9400000C94E9
:103D1000D412C0922D03D0922E03E0922F03F09282
:103D20003003BCCF84EA94E00E94AF068091E604A1
:103D30009091E7040E944E228091E3049091E40464
:103D400097FD03C060E00C94A00208950E94E81E55
:103D500008F481E00895E89409C097FB3EF490953B
:103D60008095709561957F4F8F4F9F4F9923A9F054
:103D7000F92F96E9BB279395F695879577956795E3
:103D8000B795F111F8CFFAF4BB0F11F460FF1BC027
:103D90006F5F7F4F8F4F9F4F16C0882311F096E9BA
:103DA00011C0772321F09EE8872F762F05C0662368
:103DB00071F096E8862F70E060E02AF09A95660F21
:103DC000771F881FDAF7880F9695879597F90895DA
:103DD000990F0008550FAA0BE0E8FEEF161617061C
:103DE000E807F907C0F012161306E407F50798F084
:103DF000621B730B840B950B39F40A2661F0232B9D
:103E0000242B252B21F408950A2609F4A140A69518
:103E10008FEF811D811D08950E941F1F0C94901F1C
:103E20000E94821F38F00E94891F20F0952311F014
:103E30000C94791F0C947F1F11240C94C41F0E94B2
:103E4000A11F70F3959FC1F3950F50E0551F629F1E
:103E5000F001729FBB27F00DB11D639FAA27F00DE3
:103E6000B11DAA1F649F6627B00DA11D661F829F0A
:103E70002227B00DA11D621F739FB00DA11D621FEF
:103E8000839FA00D611D221F749F3327A00D611D0C
:103E9000231F849F600D211D822F762F6A2F1124EE
:103EA0009F5750409AF0F1F088234AF0EE0FFF1F21
:103EB000BB1F661F771F881F91505040A9F79E3F78
:103EC000510580F00C94791F0C94C41F5F3FE4F3FC
:103ED000983ED4F3869577956795B795F795E795CE
:103EE0009F5FC1F7FE2B880F911D9695879597F9D7
:103EF000089597F99F6780E870E060E008959FEF6C
:103F000080EC089500240A94161617061806090670
:103F1000089500240A94121613061406050608953F
:103F2000092E0394000C11F4882352F0BB0F40F4C7
:103F3000BF2B11F460FF04C06F5F7F4F8F4F9F4F07
:103F4000089557FD9058440F551F59F05F3F71F089
:103F50004795880F97FB991F61F09F3F79F08795F0
:103F60000895121613061406551FF2CF4695F1DF79
:103F700008C0161617061806991FF1CF8695710509
:103F8000610508940895E894BB2766277727CB013D
:103F900097F90895052E97FB1EF400940E94E11FE7
:103FA00057FD07D00E942B2007FC03D04EF40C9441
:103FB000E11F50954095309521953F4F4F4F5F4FF2
:103FC000089590958095709561957F4F8F4F9F4F85
:103FD00008950E944D20A59F900DB49F900DA49F21
:103FE000800D911D112408952F923F924F925F9260
:103FF0006F927F928F929F92AF92BF92CF92DF92F9
:10400000EF92FF920F931F93CF93DF93CDB7DEB75D
:10401000CA1BDB0B0FB6F894DEBF0FBECDBF0994F1
:104020002A88398848885F846E847D848C849B8448
:10403000AA84B984C884DF80EE80FD800C811B8156
:10404000AA81B981CE0FD11D0FB6F894DEBF0FBE85
:10405000CDBFED010895A1E21A2EAA1BBB1BFD01E5
:104060000DC0AA1FBB1FEE1FFF1FA217B307E40757
:10407000F50720F0A21BB30BE40BF50B661F771FAF
:10408000881F991F1A9469F760957095809590958F
:104090009B01AC01BD01CF010895A29FB001B39F68
:1040A000C001A39F700D811D1124911DB29F700D41
:1040B000811D1124911D08955058BB27AA270E94E5
:1040C00074200C94901F0E94821F38F00E94891F58
:1040D00020F039F49F3F19F426F40C947F1F0EF45E
:1040E000E095E7FB0C94791FE92F0E94A11F58F37C
:1040F000BA17620773078407950720F079F4A6F5CD
:104100000C94C31F0EF4E0950B2EBA2FA02D0B01BB
:10411000B90190010C01CA01A0011124FF27591B0C
:1041200099F0593F50F4503E68F11A16F040A22F12
:10413000232F342F4427585FF3CF46953795279583
:10414000A795F0405395C9F77EF41F16BA0B620B82
:10415000730B840BBAF09150A1F0FF0FBB1F661FC9
:10416000771F881FC2F70EC0BA0F621F731F841F0C
:1041700048F4879577956795B795F7959E3F08F032
:10418000B0CF9395880F08F09927EE0F97958795F4
:1041900008950E94DD200C94901F0E94891F58F002
:1041A0000E94821F40F029F45F3F29F00C94791F90
:1041B00051110C94C41F0C947F1F0E94A11F68F31F
:1041C0009923B1F3552391F3951B550BBB27AA27D0
:1041D00062177307840738F09F5F5F4F220F331F0A
:1041E000441FAA1FA9F335D00E2E3AF0E0E832D0D2
:1041F00091505040E695001CCAF72BD0FE2F29D0D5
:10420000660F771F881FBB1F261737074807AB07A6
:10421000B0E809F0BB0B802DBF01FF2793585F4F1B
:104220003AF09E3F510578F00C94791F0C94C41F0E
:104230005F3FE4F3983ED4F3869577956795B795FD
:10424000F7959F5FC9F7880F911D9695879597F908
:104250000895E1E0660F771F881FBB1F6217730781
:104260008407BA0720F0621B730B840BBA0BEE1F96
:1042700088F7E09508950E9442216894B1110C944A
:10428000C41F08950E94A91F88F09F5798F0B92F66
:104290009927B751B0F0E1F0660F771F881F991F7B
:1042A0001AF0BA95C9F714C0B13091F00E94C31F3B
:1042B000B1E008950C94C31F672F782F8827B85F4B
:1042C00039F0B93FCCF3869577956795B395D9F7D3
:1042D0003EF490958095709561957F4F8F4F9F4FDD
:1042E0000895991B79E004C0991F961708F0961B52
:1042F000881F7A95C9F780950895AA1BBB1B51E1C9
:1043000007C0AA1FBB1FA617B70710F0A61BB70B45
:10431000881F991F5A95A9F780959095BC01CD01EA
:10432000089597FB072E16F4009407D077FD09D067
:104330000E947D2107FC05D03EF4909581959F4F0A
:104340000895709561957F4F0895EE0FFF1F0590BA
:10435000F491E02D09940E944D20B7FF0895821B2F
:10436000930B08950F931F93CF93DF9382309105A2
:1043700010F482E090E0E0911005F091110530E03A
:1043800020E0B0E0A0E0309799F42115310509F460
:104390004AC0281B390B24303105D8F58A819B810E
:1043A0006115710589F1FB0193838283FE0111C0C0
:1043B000408151810281138148175907E0F0481765
:1043C000590799F4109761F012960C93129713966F
:1043D0001C933296CF01DF91CF911F910F910895D9
:1043E0000093100510931105F4CF2115310551F0FC
:1043F0004217530738F0A901DB019A01BD01DF0123
:10440000F801C1CFEF01F9CF90931105809310050A
:10441000CDCFFE01E20FF31F81939193225031091A
:1044200039832883D7CF20910E0530910F05232B98
:1044300041F4209115013091160130930F0520931E
:104440000E0520911301309114012115310541F41D
:104450002DB73EB74091170150911801241B350B21
:10446000E0910E05F0910F05E217F307A0F42E1B63
:104470003F0B2817390778F0AC014E5F5F4F2417C8
:10448000350748F04E0F5F1F50930F0540930E0500
:10449000819391939FCFF0E0E0E09CCFCF93DF93A7
:1044A0000097E9F0FC01329713821282A091100567
:1044B000B0911105ED0130E020E01097A1F42081CA
:1044C0003181820F931F20910E0530910F0528171F
:1044D000390709F061C0F0930F05E0930E05DF91F5
:1044E000CF910895EA01CE17DF07E8F54A815B8195
:1044F0009E0141155105B1F7E901FB83EA8349911A
:104500005991C40FD51FEC17FD0761F4808191818B
:104510000296840F951FE901998388838281938194
:104520009B838A83F0E0E0E012968D919C91139733
:104530000097B9F52D913C911197CD010296820F0C
:10454000931F20910E0530910F052817390739F672
:10455000309751F51092110510921005B0930F0588
:10456000A0930E05BCCFD383C28340815181840FB9
:10457000951FC817D90761F44E5F5F4F88819981F5
:10458000480F591F518340838A819B819383828383
:104590002115310509F0B0CFF0931105E093100516
:1045A0009ECFFD01DC01C0CF13821282D7CFB0E0D5
:1045B000A0E0EDEDF2E20C94F61F8C01009751F4AF
:1045C000CB010E94B2218C01C801CDB7DEB7E0E17A
:1045D0000C941220FC01E60FF71F9C0122503109B8
:1045E000E217F30708F49DC0D901CD91DC91119732
:1045F000C617D70798F0C530D10530F3CE01049720
:104600008617970708F3C61BD70B2297C193D19340
:104610006D937C93CF010E944E22D6CF5B01AC1AE2
:10462000BD0A4C018C0E9D1EA0911005B091110584
:10463000512C412CF12CE12C109731F580910E0575
:1046400090910F058815990509F05CC0461657062C
:1046500008F058C08091130190911401009741F423
:104660008DB79EB74091170150911801841B950B8F
:10467000E817F90708F055C0F0930F05E0930E0511
:10468000F90171836083A0CF8D919C91119712964F
:104690006C90129713967C901397A815B90559F54D
:1046A0006C0142E0C40ED11CCA14DB0420F1AC0141
:1046B0004A195B09DA011296159780F062827382BB
:1046C00051834083D9016D937C93E114F10471F01F
:1046D000D7011396FC93EE93129776CF22968C0F08
:1046E0009D1FF90191838083F301EFCFF0931105B2
:1046F000E093100569CF4816590608F42C017D0196
:10470000D3019ACFCB010E94B2217C01009749F0DE
:10471000AE01B8010E949423C8010E944E22870175
:1047200053CF10E000E050CFFB01DC0102C001904C
:104730000D9241505040D8F70895DC0101C06D93AF
:1047400041505040E0F70895FB01DC0101900D92CB
:104750000020E1F7089510E0C3E6D0E004C0FE01B8
:104760000E94A5212196C436D107C9F7F894FFCF3E
:10477000FF0F0008000C000D000C000B000A000ADF
:10478000000B000000120580007EFF060001000003
:104790000000EF0000400014005400000000000082
:1047A00000000000000000000000001A06E7009A68
:1047B00008190676068E060106000000008701E74C
:1047C000001401D4014501230137010000000083DA
:1047D0000756079A0819064F073C072D07000000E7
:1047E00000560CE7009A0899080D0A003030303066
:1047F0000030303031003030313000303031310075
:104800003031303000303130310030313130003033
:104810003131310031303030003130303100313021
:104820003130003130313100313130300031313010
:0C483000310031313130003131313100C4
:00000001FF
